:020000040002F8
:10700000A84C0020C5730200CD730200CF730200AC
:10701000D1730200D3730200D57302000000000098
:10702000000000000000000000000000D773020014
:10703000D973020000000000DB730200DD73020060
:1070400031750200DF730200E5770200DF73020092
:10705000DF730200DF7302008D740200DF73020031
:10706000DF730200DF730200DF730200DF730200D0
:10707000DF730200DF730200DF730200DF730200C0
:10708000DF73020089750200DF730200DF73020004
:10709000DF730200DF73020099750200DF730200E4
:1070A000DF730200DF730200DF730200DF73020090
:1070B000DF730200DF730200000000000000000028
:1070C000DF730200DF730200DF730200DF73020070
:1070D000DF730200DF730200DF730200DF73020060
:1070E000DF730200DF730200DF73020000000000A4
:1070F00000000000DF73020000000000DF730200E8
:10710000000000000000000000000000000000007F
:10711000000000000000000000000000000000006F
:10712000000000000000000000000000000000005F
:10713000000000000000000000000000000000004F
:10714000000000000000000000000000000000003F
:10715000000000000000000000000000000000002F
:10716000000000000000000000000000000000001F
:10717000000000000000000000000000000000000F
:1071800000000000000000000000000000000000FF
:1071900000000000000000000000000000000000EF
:1071A00000000000000000000000000000000000DF
:1071B00000000000000000000000000000000000CF
:1071C00000000000000000000000000000000000BF
:1071D00000000000000000000000000000000000AF
:1071E000000000000000000000000000000000009F
:1071F000000000000000000000000000000000008F
:10720000DFF810D000F030F9004800478590020008
:10721000AFF30080A84C002030B450E8012F93B2A7
:10722000C48923448489A34228BF1B1B0489A34229
:1072300002BFBFF32F8F002007E0C3EA020340E83C
:107240000134002CE9D14FF001000A6030BC7047D6
:1072500050E8012FC2EA024240E801210029F7D19B
:10726000704730B450E8022F1FFAA2F3C488A3423B
:1072700002BFBFF32F8F00200DE0C489234484890F
:10728000A34228BF1B1BC2EA034340E80234002C80
:10729000E8D14FF001000A6030BC704750E8022F7F
:1072A000C2EA224240E802210029F7D17047034692
:1072B00053E8022FD988B2EB324F4FF0000017BFCE
:1072C00092B241EA014142EA014104E05A68B2EB5C
:1072D000324F08BF012043E80212002AE8D170476C
:1072E00030B4044654E8000F0D4644E80053002B28
:1072F000F8D1156030BC704730B4044654E8000F34
:1073000040EA010544E80053002BF7D1156030BC7A
:10731000704730B4044654E8000F00EA010544E821
:107320000053002BF7D1156030BC704730B40446D1
:1073300054E8000F80EA010544E80053002BF7D120
:10734000156030BC704730B4044654E8000F00EBC1
:10735000010544E80053002BF7D1156030BC70479D
:1073600030B4044654E8000FA0EB010544E8005394
:10737000002BF7D1156030BC704770B404464FF055
:10738000000054E8006F0D68AE4207BF44E80023D8
:10739000012044E800630E60002B1CBF0020F0E7D2
:1073A00070BC704730B4044654E8000F88422CBFCC
:1073B000451A054644E80053002BF5D1156030BC52
:1073C000704700000648804706480047FEE7FEE792
:1073D000FEE7FEE7FEE7FEE7FEE7FEE7FEE7FEE785
:1073E0009D75020001720200202A04DB203A00FA97
:1073F00002F1002070479140C2F1200320FA03F30C
:10740000194390407047000000487047C8C302000D
:1074100040EA01039B0703D009E008C9121F08C016
:10742000042AFAD203E011F8013B00F8013B521E96
:10743000F9D27047D2B201E000F8012B491EFBD20D
:1074400070470022F6E710B513460A46044619466F
:10745000FFF7F0FF204610BD421C10F8011B002969
:10746000FBD1801A70470000064C074D06E0E0682B
:1074700040F0010394E8070098471034AC42F6D37B
:10748000FFF7C2FEF0CA020010CB02002DE9FC415A
:107490000025DFF8948000954FF4807601242F4674
:1074A0000195304602F082FC38B1D8F8040320423E
:1074B00003D0304602F070FC2543361D64007F1C6B
:1074C000B6B2082FEDD34FF4BE74204602F06EFC26
:1074D00048B1204602F060FC45F000456A460221B2
:1074E000002002F0C1FB15F0FF0F16D0012600248A
:1074F0002E420ED008EB8401D1F81005D1F81015FA
:10750000C0F30520094AC1F3014152F8242002B119
:1075100090477600641C082CEAD3002D02DA6846F6
:1075200003F034FFBDE8FC810060004070250020BE
:1075300070B54FF48076304602F05EF9114CB50517
:1075400060B1304602F05FF90120C5F808036079A8
:1075500020B9012060712168002088474FF48276AD
:10756000304602F049F900280AD0304602F04BF9C3
:107570000220C5F808032168BDE8704001200847D3
:1075800070BD00003823002002490248091F096825
:10759000006808478823002003F052B9F0B54FF087
:1075A00080527F4ED2F830017E4FD2F83411431C06
:1075B00008D005464FEA010400234FF0010C082DC6
:1075C00005D013E03B783578C3F30314F4E72CB10E
:1075D000012C03D0022C01D0032C07D14FF08044A2
:1075E000C4F80C31C4F810316F4C2360441C04D033
:1075F00005460C46082D05D061E03C783578C4F38B
:107600000314F7E72CB1012C03D0022C01D0032C7A
:1076100055D1664C2468664D2C60644C241D24684A
:107620002D1D2C60614C083424682D1D2C605F4C8E
:107630000C3424682D1D2C605C4C103424682D1DE6
:107640002C605A4C143424682D1D2C60574C18346F
:107650002468574D20352C60544C1C3424682D1D53
:107660002C60524C203424682D1D2C604F4C243447
:1076700024682D1D2C604D4C283424682D1D2C6051
:107680004A4C2C3424682D1D2C60484C303424681E
:10769000474D40352C60454C343424682D1D2C60FA
:1076A000424C383424682D1D2C60404C3C342468F6
:1076B0002D1D2C603D4C403424682D1D2C60082865
:1076C00004D10C0002D13C4D3A4C2C60082804D166
:1076D0000C0002D1394DFB242C60082808D10C0085
:1076E00006D192F85852364A146865F303041460C0
:1076F000082804D10A0002D1324C82012260421CC7
:1077000003D139783078C1F3031108280DD129B19C
:10771000012903D0022901D0032906D12A48016892
:10772000C90702D06FF0010101602848016841F4E7
:1077300070010160BFF34F8FBFF36F8F4FF01021C7
:10774000D1F80002002803DBD1F80402002823DA74
:107750001F4AC2F800C01F480468002CFCD0122445
:10776000C1F800420568002DFCD0C1F80442016850
:107770000029FCD0136001680029FCD0BFF34F8FB3
:1077800012487C380168144A01F4E0611143016039
:10779000BFF34F8F00BFFDE7114910480860F0BDEF
:1077A000E00F00F0E80F00F038050040040400107E
:1077B00020C50040488103008C56004018F5004069
:1077C000E40E0040409602400004004088ED00E0D6
:1077D00004E5014000E401400400FA050090D003F4
:1077E00010240020014800680047000040230020CA
:1077F00002E008C8121F08C1002AFAD1704770477A
:10780000002001E001C1121F002AFBD170470000D7
:107810000121202803DA81400548014003E0402887
:1078200002DA2038814009B10120704700207047FA
:10783000FC06FFBD30B52548A5B03C21006824906A
:107840002348807C8DF892006846FFF7FAFD0220FD
:107850008DF8000001248DF8024006208DF8030009
:107860003C210FA8FFF7EDFD24A81A4D1490ADF8A8
:107870004C402A1D6846296800F014FA08B100F04F
:10788000F3F8144A0FA80C32A96800F00BFA08B1FB
:1078900000F0EAF818211EA8FFF7D3FD00208DF8AC
:1078A0008D408DF87840ADF884001F908DF88C00E5
:1078B0004020084920901EAAA1F10C0072DF002888
:1078C00001D000F0D1F825B030BD000090C002001A
:1078D000142400200C230020064810B50121007854
:1078E00073DF08B100F0C0F8BDE81040002000F0E0
:1078F0004DBD00000023002038B500240E4D05E0EA
:10790000686810F8340003F0B3F8641C28788442E7
:10791000F6D300208DF80000684600F00FF9002033
:10792000C5E904009DF8000000F02CF90348406808
:10793000BDE8384000F0FCB848230020D4C0020065
:1079400070B50024064D06E06868012110F8340087
:1079500003F0B2F8641C28788442F5D3002070BD8F
:1079600048230020F8B516460C4605460A2A01D2DF
:107970000720F8BD03F098F918B903F059F9002869
:10798000F7D1134F202113487D603C70BE60FFF794
:1079900058FD0020C7E904000F4E0DE005EBC400C0
:1079A0003168009181788DF8011000780B4A6946A2
:1079B00003F0CEF80028DCD1641EE4B2EED2BDE8BC
:1079C000F84005480021064A001D00F05FB800009D
:1079D0004823002050260020D4C00200758D0200EC
:1079E0006189020010B572B602F076FC02F0C2FAAC
:1079F0000028FBD111481249401AC408012000EBAD
:107A0000044010A102F0D0FB11480068C00700D06C
:107A100000BE022000EB04400EA102F0C5FBBFF344
:107A20004F8F0B48E43801680E4A01F4E0611143BE
:107A30000160BFF34F8F00BFFDE7000078CB02006D
:107A400020CB0200466174616C206572726F720017
:107A5000F0ED00E053797374656D207265736574A1
:107A6000000000000400FA050EB500210091CDE9E8
:107A700001106A4644F20100FFF7B4FF0EBD00009A
:107A8000014800F0D4BF0000682300203AB100682C
:107A90000129426100D000210161002070470720C8
:107AA0007047000038B511480823582241680091FA
:107AB0000F49006801F08DFC002815D10D4A694678
:107AC0000D4800F0B9FF04000ED101210A4801F071
:107AD0002EF80123094A1946074800F080FF06499D
:107AE000012008390870204638BD0000DCC00200C3
:107AF0008026002059B5020068230020FFFF7F0088
:107B000070B50446007F0D4608B1002070BDA2612B
:107B100001F016F9401941F10001C4E902012069A0
:107B200000B125612146BDE87040002003F0C4BFCC
:107B3000014600200877012003F0BEBF30B5EFF307
:107B4000108172B60D4A9468012324B10370002994
:107B500000D162B630BD93604FF0E023D3F880517E
:107B6000074C25401560C3F88041D3F88441546028
:107B70005A17C3F8842100220270E8E7D8260020B3
:107B8000FC06FFBD0B498A68002A11D000280FD1DE
:107B9000EFF3108072B60B684FF0E022C2F80031AC
:107BA0004B68C2F8043100228A60002800D162B616
:107BB00070470000D826002070B5054608680C46BE
:107BC000411C04D002F0C1F8206802F021F860687E
:107BD000411C02D0002102F009F82968A069C1F80F
:107BE0002405607D227D29681043C1F86C05D4E925
:107BF00000122868C0F81425C0F80C15207D012853
:107C000014D1A068411C02D0002101F0EFFFE06810
:107C1000411C04D002F099F8E06801F0F9FFD4E9C2
:107C200002122868C0F80825C0F8101570BD70B59C
:107C3000054608680C46411C04D002F090F8206804
:107C400001F0F0FF6068411C02D0002101F0D7FF75
:107C50002968A069C1F82405607D217D2A68084350
:107C6000C2F86C05D4E900122868C0F80C15C0F8F9
:107C70001425207D012814D1A068411C02D00021C8
:107C800001F0BDFFE068411C04D002F068F8E06834
:107C900001F0C8FFD4E902122868C0F80825C0F82E
:107CA000101570BD2DE9FC47002517880646158084
:107CB00090F82D001446894630B13A462146484690
:107CC00000F0E6F8051E09D1B0784FF00C0A18B3A1
:107CD0002088C846001DB84202D95046BDE8FC873E
:107CE000684679DF0028F9D12088032108F80010C0
:107CF00020881921401C80B2208008F800102088BC
:107D0000401C80B2208000EB0801BDF8000004F0A8
:107D1000A2F8218808442080F0780222C8B1218886
:107D200096F9033001F1030C4846BC45D5D84254BE
:107D300021884FF0010C491C89B2218000F801C054
:107D40002188491C89B2218009F801302088401C13
:107D500020807068B8B1218890F9003001F1030CDF
:107D60004846BC45B9D8425421880A22491C89B2E8
:107D7000218042542188491C89B2218009F80130B0
:107D80002088401C2080308950B1CDE900474B4607
:107D90000622022106F1080004F012F9051E9DD109
:107DA000308A50B1CDE900474B460722032106F146
:107DB000100004F005F9051E90D1308B50B1CDE9CB
:107DC00000474B461522142106F1180004F0F8F87C
:107DD000051E83D1306A30B13B462246494600F049
:107DE000F4FC051EDBD1706A30B13B4622464946A1
:107DF00001F012FA051ED2D196F82C0038B13B469C
:107E000022464946304603F0F3FC051EC7D13078C0
:107E100038B13B4622464946304601F087FA051EF6
:107E2000BDD128465AE7000070B5040012D00146C3
:107E30001C221448FFF7ECFA1248134D0560206825
:107E400050B17ADF002806D12068016829604068B7
:107E5000686005E00E2070BD0B487BDF0028FAD17A
:107E600008484FF6FF711438084A20F8041B0549EA
:107E7000343901600021FFF709FE0028EBD0032010
:107E800070BD0000C42400201C23002015BF020088
:107E90007CB5054608880C460930904201D90C2073
:107EA0007CBD68466DDF0028FAD12188082068541F
:107EB00020881B21401C80B2208029542088401C2F
:107EC00080B220802844DDF801100160BDF8051063
:107ED00081802088801D80B220809DF80010490894
:107EE00000D0012129542088401C208000207CBD26
:107EF000F8B5334D018804466E8821294BD015DC36
:107F00003048314A1029A0EB02004FEAD0004FF070
:107F1000030202EB004013D011292AD0132943D1C8
:107F200000231A46852130467FDF1CE03B2942D0E2
:107F300052293AD0562937D18088132176DF12E0B2
:107F400022A102F031F9012000F020FA002000F017
:107F500015FAA1886980204801F0D6FB08B1FFF727
:107F600083FDFFF7EDFC00281ED0BDE8F840FFF7C9
:107F70007BBD1AA102F018F9012000F0FFF94FF6BD
:107F8000FF706880FFF7B8FC08B1FFF76DFDBDE832
:107F9000F840FFF7A1BC00200090A08869468FDF61
:107FA000002801D0FFF760FDF8BD00231A461946EE
:107FB0003046B1DFD7E78088132176DFD3E70000B2
:107FC0000023002078CB020020CB0200436F6E6EAE
:107FD0006563746564000000402400204469736395
:107FE0006F6E6E6563746564000000002DE9F047F4
:107FF00001883B4E40F2F3194FF6FF7510291BD054
:1080000011293ED0122954D0502946D1C188F28975
:10801000841D914241D1618902293ED18688304632
:1080200000F0C6FE050038D004F10C0000F078F92D
:10803000A8B3294630464EE0C17B87880446012913
:108040002BD1A846284600F0B3FE050017D02F809C
:1080500000202872234843464A460168C5F80A10A2
:108060004068C5F80E0004F1100105F10A0000F0A7
:108070005BFF6872F08900280FD129462AE00420AE
:1080800013E0808800F094FE040006D06068FFF7DB
:108090004FFD08B103F084FB2580BDE8F087FFE7C2
:1080A0006868FFF745FD0028F7D0BDE8F04703F00A
:1080B00077BB87880646384600F07AFE0400ECD08D
:1080C0002B464A4606F1080104F10A0000F02CFF95
:1080D000607221463846BDE8F04700F0BDBB0000A5
:1080E000C42400201C2300202DE9F04F044686887C
:1080F0000188424897B0834610290CD0112950D0EE
:10810000103019296AD01A2974D1217A0C09042C4B
:108110004DD301224CE0394D083DA868C0430B9077
:1081200069680BA801F0C0F90B990CA800F02EFBB0
:108130002C220CA96846FFF76BF90027E946A846F0
:1081400010E000BF09EB47005FF00005B0F804A0A5
:1081500008EB85005146001D01F07AF96D1C1E2DBB
:10816000F6D37F1C0098B842ECD8142E05D317B074
:108170000420BDE8F04FFFF777BC3146584601F0C8
:108180007DF9314608F1040001F078F9E07B02281E
:1081900030D117B03146BDE8F04F1848001D01F04E
:1081A0006DB917B03146BDE8F04F01F051B900226A
:1081B000314600F0BFFD032C01D3012200E0002274
:1081C0000E4831460C3000F0B5FD022C01D30122DF
:1081D00000E0002209483146083006E0217A0029F3
:1081E00008D1617AC1F3C002314617B0BDE8F04F43
:1081F00000F0A0BD17B0BDE8F08F0000E82400201B
:1082000030B58DB004462E4B086860610FCB08ADC9
:1082100085E80F0004F1120108A862DF00284CD1A4
:10822000A07C8DF8320041F22350ADF83000224698
:108230000CA90120A8DF00283FD120216846FFF7C4
:1082400000F941F22450ADF80000A07C8DF8020046
:1082500001259DF80D00ADF8065040F012008DF894
:108260001150ADF804508DF80D008DF81350208892
:1082700004F10A02694600F093F900281DD120217B
:108280006846FFF7DEF841F22550ADF80000A07C0B
:108290008DF802009DF80D00ADF8065040F00A0080
:1082A0008DF81150ADF804508DF80D008DF8125076
:1082B0002088A21C694600F073F90DB030BD0000A3
:1082C000B4C0020030B40288502A10D1034630F8FE
:1082D000062F4C88A2420AD14289012A07D14C6953
:1082E000002C04D0027B9888A44630BC604730BC88
:1082F000704707B586B0012200230093ADF8102027
:108300000193029303938DF802204989ADF8001080
:1083100008A9039104A902916946AEDF09B000BD26
:10832000007800F0010070472DE9FC410646800707
:108330001FD50025104F2C460122785D00940023A4
:108340001146019401F0DCFB6D1C042DF4D300F008
:1083500025F8B0070DD5084E0025361D0022705DAA
:10836000032300941146019401F0CAFB6D1C042DF7
:10837000F4D3BDE8FC81000094C002000249085C0F
:10838000012101F0F6BC000094C002000249085C23
:10839000002101F0EEBC000094C0020010B50024E2
:1083A0002046FFF7EBFF641C042CF9D310BD00003E
:1083B0002DE9F84F0546861C00208DF800009146F7
:1083C0000F464FF0010A6846FFF7B8FB1B4C04F25A
:1083D0001C4860683860D4E90101194F401A3968B7
:1083E000081A0EE00121404601F058F800F0F8FDAF
:1083F0000146404601F052F8D4E90101401A3968BB
:10840000081A401C8642EDD8B9F1000F03D00520B0
:1084100065F3891002E0062065F39F5061683A68B1
:10842000114004EB8101C8606068304460609DF8D1
:108430000000FFF7A7FB5046BDE8F88F8828002012
:10844000B823002070B50D4604460A2902D10D213B
:10845000FFF7F8FFA0682268411CA1601554D4E919
:108460000101814204D32046BDE8704001F04FBABB
:1084700070BD0000044881684068814201D101203C
:1084800070470020704700008828002010B50C4677
:108490000B281BD110481149401AC008032101EBD9
:1084A00000400FA101F080FE154822461349408884
:1084B000FFF71FFF00280DD0A0F54051023909D069
:1084C000082807D043F20141884203D0BDE810409C
:1084D000FFF7CABA10BD000078CB020020CB020023
:1084E00053656E6420627574746F6E20737461746A
:1084F00065206368616E67652E000000142400200B
:1085000000230020034630B5074800210478426864
:1085100006E000BF02EBC10005789D4203D0491C74
:10852000A142F7DB002030BD4823002005494FF071
:10853000FF32082841F8202002D3084480F8582050
:108540007047000070250020F0B54FF0FF3512B1E4
:108550000023082601E008230C260C4C05E000BF90
:1085600054F823707F1C04D05B1CB342F8D3284618
:10857000F0BD26185DB286F8305044F82310002A6A
:10858000F5D1E11881F85800F1E7000070250020CE
:108590000249084490F9300070470000702500201F
:1085A0002DE9F0438146887891B090460C4600B999
:1085B00001208DF83E002088ADF83C000025009594
:1085C000607C694603F058F96E46A07C711C03F08C
:1085D00053F9E07B00289DF8020002D040F008002B
:1085E00001E020F008008DF80200217C11B140F07C
:1085F000100001E020F010008DF80200217B11B185
:1086000040F0010001E020F001008DF80200217D22
:1086100009B1022100E0012161F342008DF802005E
:108620001C2102A8FEF70DFF607BC10601D4800665
:1086300017D50E950EAFE07C791C03F01DF99DF85F
:108640003800079720F00F00401C20F0F000103099
:108650008DF838009DF83A0020F00600801C8DF857
:108660003A00607B8DF80800A07B8DF8090014218A
:1086700009A8FEF7E6FE0FA8CDE90906A088ADF827
:108680003000A06820B1E088ADF82C00A0680D9003
:10869000A06998B301950088ADF81000A06901ADFC
:1086A00001A94088ADF81200A069406806950390C2
:1086B000A069007B03F0E0F8A069691C407B03F02F
:1086C000DBF8A069807A00289DF8060002D040F00F
:1086D000080001E020F008008DF80600A169C97AC1
:1086E00011B140F0100001E020F010008DF80600FC
:1086F000A169097A19B140F0010002E00DE020F013
:1087000001008DF80600A169897B09B1022100E012
:10871000012161F342008DF80600E06900B1059087
:10872000434609AA02A94846AADF11B0BDE8F08372
:1087300070B5084C050009D010342168002907D015
:1087400008682060496828468847F6E70834F4E757
:1087500070BD00005C250020054A012120B10128E0
:1087600005D19170FFF7E4BF51700020FAE7704720
:108770005C25002010B5D0E90234D1E90220D11ADD
:10878000A04101D3012010BD002010BD73B58CB0F5
:108790000646002000900D9880B100246D462146C9
:1087A0000DA800F060FE30B1009805EB4000848019
:1087B0000098401C0090641C142CF0D32C226946B5
:1087C0003046FEF725FE0EB070BD2DE9F04117884A
:1087D0000646B81D14460D46984202D90C20BDE845
:1087E000F0813188072206290AD34FF4486C4FF6EE
:1087F000FF73614501D9994202D17088062801D2E0
:108800001046ECE7604501D99842F9D1994203D06E
:10881000984201D08142F3D80520E85520881221E2
:10882000401C80B2208029542088401C80B22080C7
:108830004119308803F00FFB2188084480B2208062
:108840004119708803F007FB21880844208000202C
:10885000C5E7FFF709B9000038B54A7A0F4B62B196
:1088600000220A725969002906D001228DF80020E1
:10887000ADF802006846884738BD0A7A62B19B6845
:108880004C68024619462046FFF73AF90028F3D013
:10889000BDE8384002F084BF5B68F1E7C4240020E3
:1088A00070B588B00646002005900690ADF814100B
:1088B000ADF816100190029001AA05A9304690DF8C
:1088C000050021D002F060F80346114811493246F4
:1088D000401AC108012000EB014004460E4901F096
:1088E0006EFCBDF8042012B9BDF8060028B1BDF831
:1088F0000630204609A101F062FCBDF808201AB13B
:108900002046164901F054FC08B0284670BD00000E
:1089100020CB020020CB0200CCC3020054686520AB
:108920007265717565737465642054582F525820B0
:108930007061636B6574206C656E67746820697321
:1089400020746F6F206C6F6E672062792025752F01
:108950002575206F63746574732E000018C40200BF
:1089600070B500240F4D10E0686800EBC406307845
:1089700002F056F97178012901D0012100E00021AF
:108980004140307800F05CF9641C28788442EBDBCD
:10899000D5E90401084303D0BDE8704003F0A8B84E
:1089A00070BD00004823002010B50021024800F0EF
:1089B00086FD80F3100010BDA42C00204FF48032FF
:1089C0008A400168C1F848230068C0F8082370474E
:1089D0004FF4A07202EB810189B200F0A1B92DE938
:1089E000F04105460E464FF4A07000EB860081B2C0
:1089F00028684FF48034B440984622F07F47C0F88E
:108A000008432868C0F84843286801F089FD2868B1
:108A100000EB8600C0F840752868C0F84443B8F100
:108A2000000F02D02868C0F80443BDE8F081006858
:108A3000D0F804057047000070B54379234C44F822
:108A400023204279231D03EBC202224C1579204AD0
:108A5000121BD4082DB10825022000EB04401EA1F2
:108A600030E005680A88C5F8082590F9042089785F
:108A7000002A4FEA411104DB02F1E02282F80014DF
:108A800005E002F00F0202F1E02282F8141D90F9D5
:108A900004100122002909DB01F01F0502FA05F587
:108AA0004909890001F1E021C1F80051417900250F
:108AB00003EBC1010A71417943F83100032000EB57
:108AC00004400EA101F070FB284670BD84230020F5
:108AD00060CB020020CB020052544320696E7374B5
:108AE000616E636520616C726561647920696E698D
:108AF0007469616C697A65642E0000005254433ACF
:108B000020696E697469616C697A65642E00000081
:108B100090F90400002809DB00F01F0201219140B8
:108B20004009800000F1E020C0F8001270470A46BA
:108B3000022100F07BB84FF4827100F0F1B80068B8
:108B400001210160704700680121416070472DE9F3
:108B5000F05F07460C464FF4A07000EB84001FFA4C
:108B600080FA38684FF48036A6409B4622F07F4555
:108B7000C0F848633868C0F808633868D0F80485DE
:108B800000EB8402D2F84095C2F84085514638681F
:108B900001F0C6FCA9EB080020F07F40012806D1B7
:108BA000102001F05DFF5146386801F0B9FC3868CB
:108BB000D0F80485C0F84463A5EB080121F07F419B
:108BC0003868012900EB840010D0C0F8405538689F
:108BD000D0F804156FF07F4C6A1A521E22F07F42C3
:108BE000ACEB0B03934217D362B118E06D1CC0F8D5
:108BF0004055102001F034FF3868D0F80405404596
:108C00000AD10CE000EB84006D1CC0F840553868B8
:108C1000D0F80405884202D00D20BDE8F09F012263
:108C20003146384600F002F80020F6E70368C3F842
:108C30004413002A02D00068C0F8041370470000F3
:108C40002DE9F84F0E463449804601EB5001C0072C
:108C5000097801D00F0901E001F00F074FF000097A
:108C6000424601204946FEF7BFFBDFF8B0A00446AC
:108C70000D46052F4ED2DFE807F003161B282C0007
:108C8000002E47D00121404602F04CFE8DF80090A6
:108C90006846FEF753FF5046D0E904120C431543D3
:108CA000CAE9044532E00EB1022114E0002112E0CD
:108CB0004EB10321404602F035FE4046BDE8F84F74
:108CC000012103F06DB9012105E0002E22D104211C
:108CD00001E02EB103214046BDE8F84F02F022BE6C
:108CE0000021404602F01EFE0021404603F058F9E4
:108CF0008DF800906846FEF721FF5046E243D0E928
:108D000004341A4024EA0501CAE904219DF8000050
:108D1000FEF738FFBDE8F88F5026002048230020DA
:108D200010B5006842581AB101F0FAFB012010BDDD
:108D3000002010BD0AB100F0A1BB00F089BB00000B
:108D400010B50B48FFF773FE094A083AD2E904341C
:108D5000C018D2E9063244F10001C31A71EB0202D5
:108D600004D24FF08072801841F1000110BD000064
:108D70006823002010B5C0B2FFF7C4FB044600789A
:108D800001F04EFF01466078012801D0012000E08B
:108D9000002090EA010F08D00449D1E904010843FA
:108DA00003D1BDE8104002F0A3BE10BD482300204F
:108DB0000146034802888A4200D000207047000024
:108DC000B02400202DE9FC5F0E008346DDE90C474E
:108DD000C6F1000098469246814600D40846012517
:108DE00003E000BF90FBFAF06D1C5045FADAA8458D
:108DF00000D9454624B1002E01DB780700D5641E5A
:108E0000B80702D5B8F1000F0AD0F80708D13CB175
:108E1000A54205D220215846641EFFF713FBF6E752
:108E2000002E02DA4E462D2102E0780703D52B21D1
:108E30005846FFF707FB07F0030002280BD1B8F1F3
:108E4000000F08D13CB1A54205D230215846641E1E
:108E5000FFF7F8FAF6E7CDE90047434652463146B8
:108E6000584602F0FDFFBDE8FC9F000070B50D46BE
:108E7000044600684FF4887101F0A6FD4FF490712C
:108E8000206801F0A1FD4FF49271206801F09CFD73
:108E90004FF4A271206801F097FD4FF4AC71206887
:108EA00001F092FD20681249C0F804132068690798
:108EB00040F30730090E002804DB00F1E02080F8C1
:108EC000001405E000F00F0000F1E02080F8141D10
:108ED000206840F30730002809DB00F01F02012161
:108EE00091404009800000F1E020C0F8001170BD01
:108EF00010034200024600201268530713D502F007
:108F00000300012802D002280CD105E0C2F383102F
:108F10000B68801C184404E00223086803EB92529B
:108F20001044086001207047F0B58488A518944269
:108F300000D82246A41AC288D6189A4200D81346EE
:108F4000D21A4B880788BB420CD34088834209D889
:108F50008888A04206D3A84204D8C888904201D38A
:108F6000B04201D90020F0BD0120F0BD0B480C49F2
:108F700010B5401AC008032101EB00444FF0020075
:108F800022B1FFF703FA204606A103E0FFF7F6F946
:108F9000204609A1BDE8104001F006B978CB0200D7
:108FA00020CB02005265636569766564204C4544B8
:108FB000204F4E21000000005265636569766564AC
:108FC000204C4544204F46462100000017210180D7
:108FD00041800021017141711B218171C171704774
:108FE0002DE9FF410026244800F055FA2248001FD1
:108FF000074600F050FA214C2149A06800900D6806
:1090000000E000986946284004EB80000C30FFF730
:1090100071FF0028F5D101AA009901EA050304EBCC
:109020008303491CDB6842F82030401C0091022871
:10903000F2D3019800F0030001280BD0022810D1D0
:109040000198032101EB90500099BDF80A6001EBF3
:10905000900005E00198BDF80A60C0F38310084451
:109060000090384600F014FA08B10098A06004B0EF
:109070003046BDE8F0810000A02C002088280020A8
:10908000B823002088B04FF48041002001F0F8F8A8
:1090900008B1FEF7E9FC00F05FFF0220FFF744F99A
:1090A000FEF700FD08B1FEF7DFFC40F2333201218C
:1090B0004748FEF757FC08B1FEF7D6FC01F0EAF985
:1090C00008B1FEF7D1FC01F081FB08B1FEF7CCFC42
:1090D000002469460120009401F032FA08B1FEF73D
:1090E000C3FC684601F0ACFA08B1FEF7BDFC9DF880
:1090F000080038A120F00F00401C20F0F0001030D4
:109100008DF808000D2202A87CDF08B1FEF7ACFC48
:1091100000945020ADF80000A0200194ADF80200AA
:10912000ADF804404FF4C870ADF8060068467ADF29
:1091300008B1FEF799FC00212A4800F02BFA08B18B
:10914000FEF792FC284801A9CDE9004025481430DB
:1091500000F0E5FA08B1FEF787FC244800902148AA
:1091600069461838FFF74CF808B1FEF77DFCFEF7AA
:1091700061FB1C216846FEF764F94FF4A020CDE99D
:109180000040801002901A480590032519488DF878
:109190000C500690ADF80E408DF810406846FEF772
:1091A00043FE08B1FEF760FC13481449401AC0089A
:1091B00005EB004012A100F0F7FFFEF78DFB00BFAA
:1091C00000F0D8FE0028FBD101F078F9F8E70000A4
:1091D000042300204E6F726469635F426C696E6B9A
:1091E000790000002C24002001A502006D8F0200F0
:1091F000D1B102005388020078CB020020CB0200DC
:10920000426C696E6B79206578616D706C65207356
:109210007461727465642E0070B5144682880E46BF
:1092200005462088111D0144921C994201D8FE2A4E
:1092300001D90C2070BD521C32542088FF21401CE3
:1092400080B2208031542088401C80B22080811957
:10925000288802F000FE2188084480B22080AA8875
:1092600042B1A96841B13044FEF7D2F82088A988FC
:1092700008442080002070BD072070BD2DE9F04714
:10928000C5881E1DB6FBF5F78946B6FBF5F1044609
:1092900005FB176C407916686843DDF820A0F718C5
:1092A000001F874200D9C61A166001E02468491ED3
:1092B0000029FBD1A5EB0C078846B74216D818E069
:1092C00004EB0C00001D09EB0803BAF1000F3A464D
:1092D00002D00146184600E01946FEF799F82468C6
:1092E000F61B4FF0000CB844B54201D9374600E0F8
:1092F0002F46002EE4D1BDE8F087000030B50246CD
:1093000051B100F0D1FF0021074C08E034F82130C2
:109310001568AB4202D11160002030BD491C81426A
:10932000F4D3052030BD000000000000F8B50F4662
:10933000017814460546012901D1687830B12088AA
:10934000821C9A4232D8012902D006E00720F8BDDB
:1093500069780144891C994228D8181A801E86B25F
:10936000ADF800602188B81C084469467DDF0028FC
:10937000EDD12978022904D06878BDF80020904208
:1093800005D3BDF80000B04201D809200AE008204A
:10939000012905D16978B14202D8ADF8001001E089
:1093A000ADF80060BDF80010FE2901D90C20F8BD11
:1093B0002288491CB9542188491C89B221807854DB
:1093C0002088401C2080BDF8001008442080002028
:1093D000F8BD10B531B1B2FBF3F403FB14241CB19A
:1093E000092010BD0E2010BD016000214160816088
:1093F0008281C381084610BD70B50C460546FDF755
:109400000BFF002802D021882868084470BD10B5E1
:109410000A8849888A4203D1FDF740FF012010BD28
:10942000002010BD70B50C460546FDF71AFF002858
:1094300002D061882868084470BD10B50A88498840
:109440008A4203D1FDF704FF012010BD002010BDAA
:1094500001F01F0301229A40D243490900EB810029
:10946000114600F021B84A0950F8220001F01F020D
:1094700001219140084000D00120704701F01F03F6
:1094800001229A40490900EB8100114600F01CB806
:10949000002100F00FB8012100F016B808B56A46A7
:1094A000FDF751FF009808BD08B56A46FDF731FF8A
:1094B000009808BD08B56A46FDF72BFF08BD08B542
:1094C0006A46FDF70DFF08BD08B56A46FDF714FFB3
:1094D000009808BD08B56A46FDF742FF009808BD30
:1094E00038B5044600258DF800506846FEF726FB87
:1094F00021686268086890420ED9401E08600178B1
:10950000238AE26801FB0325227A2168101AC0B27F
:109510000A79824200D208719DF80000FEF732FB02
:10952000284638BD38B5054600208DF800000C46A9
:109530006846FEF703FBE868298A201AB0FBF1F1C0
:109540002A681068431C136001709DF80000FEF744
:1095500019FB38BD10B530B1017A42680368891A29
:10956000C9B21A6006E00E2010BD03681A68541CC8
:109570001C601170491EC9B2F7D200680021017148
:10958000084610BDC20800F007030120895C98401E
:109590000840704710B560B10161172120F8021B27
:1095A00020F8021B1B2100F8021BFFF70FFD002013
:1095B00010BD0E2010BD0000F0B5858893B00C469C
:1095C000002D39D1018800263F4F24293BD006DCED
:1095D000102909D011290CD0232958D14FE03A295C
:1095E0000BD0552953D129E00146204601F0FEFD5C
:1095F0004DE0A01DFFF7EAFC49E02246408934F81F
:10960000061F814200D808466080172800D2172024
:109610006080106970B1607960B1D7E90001CDE96F
:109620000301ADF80E506088ADF81000136903A96E
:10963000104698476671267113B0F0BD014620466A
:1096400001F028FE23E0011D2C2206A8FDF7E0FE14
:10965000BDF81800BDF81C2004EBC0014A73226954
:10966000AAB1D7E90423CDE90423ADF81200487B61
:109670008DF814002269204604A9904707E0017A7A
:10968000207B884200D201462846FFF709F9A07ADC
:109690000028D1D0E1882846A5DF012580B1112816
:1096A000CAD001F071F902460848094913B0401ABE
:1096B000C00805EB0040BDE8F04006A100F078BD11
:1096C000A672E572B8E700009CC0020020CB020041
:1096D00020CB020073645F626C655F6761747463C2
:1096E0005F65786368616E67655F6D74755F7265ED
:1096F000717565737428292072657475726E65645E
:109700002025732E0000000020B10278DE2A03D04D
:10971000082070470E20704741800020704760B1DC
:1097200059B10278DE2A0AD009684160DE21017051
:109730004FF6FF714180002070470E2070470820CF
:1097400070477FB5054600294DD0002D4BD00878D5
:109750000C46DE2847D1A8886188884202D120467D
:1097600002F00CFC2888012825D002283BD01128C3
:109770003AD0512837D135F8040F6188884232D168
:10978000A978A81C02292ED1017A042903D0062920
:1097900001D0052927D10021009102228DF8002057
:1097A00001914FF4C07202910391ADF80420007A48
:1097B00005280FD010E0297A2046012913D1A98865
:1097C000428891420FD10121017204B0BDE870407E
:1097D00002F0D4BBADF8041028886946B0DF002839
:1097E00001D0616888477FBDA88861888842FAD126
:1097F0004FF6FF7060807FBD00F180400068002858
:1098000000D00120704708B500F1804000210160C0
:109810000068009008BD000070B50D4C012520784F
:1098200008B185260EE00020A06060602061E06045
:10983000084801F0EDF8064601F014F808B901F007
:10984000D1F8257001F0C6F800B1A570304670BDA2
:109850005C2500205987020038B500258DF800509E
:109860006846FEF76BF9084CE068401EE060E0686F
:1098700028B901F0AFF810B901F0DAF8A5709DF839
:109880000000FEF77FF938BD5C250020F0B50546E5
:109890000478154889B0164640F82420124A086911
:1098A0000832A2F10C0742F82400487F38552022E4
:1098B0006846FDF7ADFD04942878385C48B10EB1D8
:1098C0000A4A00E000226946281D01F063FB09B046
:1098D000F0BD0EB1064A00E00022694605F10C0019
:1098E00001F022FAF3E700002823002015BD020052
:1098F0005DBB02000FB408B50399002904D004AA87
:1099000000926A4600F00FF801B05DF814FB10B544
:1099100082680446002A05D0D4E9040321689847E8
:109920000020A06010BD2DE9FC4791460C00804648
:1099300076D014F8011B39B125290ED04046FEF728
:1099400081FD20780028F4D198F80C00002867D019
:109950004046BDE8FC47FFF7DABF0020012221782E
:109960002B291BD02D2902D0302908D102E040F04C
:10997000010001E040F00200641C002AEFD1002544
:109980002A290ED02178A1F130020A2A11D205EB42
:10999000850201EB4205641C303DF1E740F0040014
:1099A000EAE7D9F800100B1DC9F800300968641CFB
:1099B0000D44217800232E290BD114F8011FA1F1A9
:1099C00030020A2A05D203EB830201EB4203303B4B
:1099D000F3E76C290DD068290BD0692921D00BDC65
:1099E000252918D0582931D063290ED0642915D1E2
:1099F00017E014F8011FECE7702969D0732932D001
:109A000075291BD0782909D120E0D9F80000011D63
:109A1000C9F8001001784046FEF714FD641C90E779
:109A20006CE0D9F800100A1DC9F800200968CDE9DA
:109A300000500A224046FFF7C5F9EFE7D9F80010B9
:109A40000A1DC9F8002009680A2206E0D9F80010AA
:109A50000A1DC9F8002009681022CDE900504046CF
:109A600002F0FEF9DAE7D9F8001000270A1DC9F85C
:109A700000200E68C00705D112E04046761C7F1C0E
:109A8000FEF7E0FC31780029F7D104E020214046C0
:109A90006D1EFEF7D7FCBD42C0D9002DF6D1BDE743
:109AA0004EB13046FDF7D8FC074604E02021404681
:109AB0006D1EFEF7C7FCBD4206D9002DF6D103E0AE
:109AC0004046761CFEF7BEFC31780029F8D1A5E7A8
:109AD000D9F80000011DC9F8001005683021404682
:109AE000FEF7B0FC78214046FEF7ACFC08200021D0
:109AF000CDE90001034610222946B0E7BDE8FC8706
:109B00002DE9FF411C46DDE90A7815460E466846F8
:109B100000F0C2F846EA450141EA840141EA072221
:109B200042EA0841009A00EB8200C0F80017BDE845
:109B3000FF812DE9FF411C46DDE90A7815460E46F6
:109B4000684600F0B7F846EA450141EA840141EA77
:109B5000072242EA0841009A00EB8200C0F8001791
:109B6000BDE8FF812DE9FF411C46DDE90A78154675
:109B70000E46684600F0ACF846EA450141EA840129
:109B800041EA072242EA0841009A00EB8200C0F84D
:109B90000017BDE8FF812DE9FF411C46DDE90A7889
:109BA00015460E46684600F0A1F846EA450141EA2E
:109BB000840141EA072242EA0841009A00EB820050
:109BC000C0F80017BDE8FF811CB5002100910B46CD
:109BD00001220191FFF7C6FF1CBD1CB500210091B9
:109BE0000B4601220191FFF7D6FF1CBD1CB50022D8
:109BF0000B46009211460192FFF7B4FF1CBD1CB545
:109C000000220B46009211460192FFF7C4FF1CBDD3
:109C10001CB5002100910B46012201911146FFF76E
:109C2000A1FF1CBD1CB5002100910B460122019132
:109C30001146FFF7B0FF1CBD13B50C46684600F097
:109C400039F8009900EB8101D1F8002722F4403265
:109C5000C1F80027009900EB8100D0F8001741EA15
:109C60000441C0F800171CBD3CB50A4CD4E90034CF
:109C7000CDE900346B46441808E000BF53F82010CB
:109C8000D1F8205520C2C1F82055401C8442F5D897
:109C90003CBD0000C4C002000168202902D24FF080
:109CA000A040704701F01F010160014870470000AB
:109CB000000300500168202902D24FF0A0407047F5
:109CC00001F01F01016001487047000000030050CF
:109CD0000168202902D24FF0A040704701F01F0117
:109CE000016001487047000000030050016820290E
:109CF00002D24FF0A040704701F01F0101600148FF
:109D0000704700000003005042094FF0000102D0EC
:109D1000012A05D102E04FF0FF3101E04FF6FF715B
:109D200000F01F00012282400A4201D0012070474A
:109D30000020704701B56846FFF7BCFFD0F810055A
:109D40000099C84000F0010008BD01B56846FFF762
:109D5000BFFF009A01219140C0F8081508BD01B568
:109D60006846FFF7C3FF009A01219140C0F808152B
:109D700008BD38B501240090684631B1FFF78CFF6B
:109D800000998C40C0F8084538BDFFF785FF009961
:109D90008C40C0F80C4538BD034908B50844002183
:109DA00001600068009008BD006000400249405812
:109DB000012800D0002070470060004030B5154AEF
:109DC00001460020D2F8104423460AE0DB681D79E2
:109DD000854205D1401C0A28F6DB4FF0FF3030BD2C
:109DE0001B68002BF2D1431CF9D0CB681871D2F854
:109DF000103443B1DB68CC681B682360D2F81024B0
:109E0000D268116030BDC2F81014C96800220A601F
:109E100030BD000088280020F0B595B01C461546DE
:109E20000E4608461A9F00F00FFB182109A8FDF7FF
:109E300008FB0E97CDE909540023082203A93046F8
:109E400000F017FB05980690BDF81000ADF81C0057
:109E5000BDF81200ADF81E0000208DF82100039916
:109E6000082501F00300012802D0022816D02FE0B7
:109E7000C1F3C200C1F383178C0A8DF82000BA0029
:109E80002B460FA9304600F0F4FA09A8009006AB63
:109E90003A460FA9204600F033FA19E0C1F3C20098
:109EA0008C0D8DF82000082C01D2274600E00827F1
:109EB0002B463A460FA9304600F0DBFA3D44E41B3E
:109EC00009AB06AA39460FA800F082F9002CEAD1A6
:109ED000304600F0BFFA15B0F0BD7047012001F028
:109EE0005BBE0000084810B50178084A515C19B102
:109EF000001D01F0E9F802E00C3000F0E3FFBDE8DE
:109F00001040002001F048BE9C23002024230020A4
:109F100008B5034A00924023024AFFF77DFF08BDBF
:109F2000B1B70200F02600200A4A012902EBC00066
:109F300007D0022907D0032907D0042907D0002021
:109F400070470220704704207047007970474079BD
:109F50007047000020CB020010B5FFF7BFFF0421BF
:109F60000348FFF72BFF02490120C968487110BD63
:109F700010CB02002DE9F04F8DB0FEF77BFA18B13F
:109F800000200DB0BDE8F08F7D4C4FF0000BC4F801
:109F900018B4BFF34F8F7B49A06802900D68D84674
:109FA000284004EB80000BE0D4F8180470B9616815
:109FB0000298814201D8A160E2E7284004EB8000CA
:109FC0000C3002A9FEF796FF0028EDD1002009AA67
:109FD000029901EA050304EB8303491CDB6842F89C
:109FE0002030401C02910228F2D3099800F00301AE
:109FF000022902D001294DD0A8E0810D50228946C6
:10A00000B2EB905F00D850210E4666F39F50099046
:10A0100008315D4800F0CFF9070077D000F014FA5E
:10A020004346082209A9384600F02BFA029908F1A4
:10A03000080A2940681A8000001D864223D9504D25
:10A040000C3530B1C2B204EB8101301A90460C31AC
:10A0500004E02946F2B2002590462846C6B253468F
:10A06000384600F00EFA0AEB08032DB132462946B5
:10A070004FEA070000F005FA029909F1030001EB2D
:10A080009000029039E004EB810153463246384695
:10A090000C31EFE7C0F38311062900D3062161F3E9
:10A0A00089100990C0F38310801C8100364800F0AD
:10A0B00082F907004AD000F0C7F94346082209A9EF
:10A0C000384600F0DEF908F1080800260FE0029893
:10A0D000434600EA0501401C04EB81010290042282
:10A0E00038460C3100F0CDF908F10408761C0998C7
:10A0F000C0F38310B042EAD847B1D4F81054D4F872
:10A10000180478B1384600F0A5F934E01EE0E8689C
:10A110004079012804D12A682846394612689047B8
:10A12000E8680568002DF2D1384600F093F98DF803
:10A1300000B06846FDF702FDD4F8180408B902988B
:10A14000A0609DF80000FDF71DFD14E0D4F8104458
:10A1500005E02168204689688847E0680468002C8B
:10A16000F7D10A480A49401AC008022101EB004011
:10A1700008A100F019F8FEF77DF980F0010000E772
:10A1800088280020B823002098CB020078CB02005A
:10A1900020CB02004261636B656E647320666C7550
:10A1A000736865640000000000231A4601F0D2BB0A
:10A1B00008B5012300926A4601F0CCFB08BD1CB52E
:10A1C000CDE9002302236A4601F0C4FB1CBD000058
:10A1D0002DE9F0470E4680461C469246082940D895
:10A1E00094F80C90002020731946104601F05CF999
:10A1F0000025B54206D218F805201BA12046FFF71E
:10A2000079FB03E01AA12046FFF774FB6D1C082DB3
:10A21000EFD318A12046FFF76DFB0025B54212D2FF
:10A2200018F805707E2F08D8FDF7EEF80068C05DBD
:10A2300010F03E0F01D03A4600E02E220EA120463B
:10A24000FFF758FB03E00DA12046FFF753FB6D1C01
:10A25000082DE3D301222146504601F007F984F886
:10A260000C90BDE8F0870000202530327800000017
:10A27000202020007C00000025630000200000005A
:10A28000064910B500200870054800F0E1F80028E4
:10A2900003D1044800F036F9002010BD88280020C2
:10A2A00098CB020094C2020002480349401AC00839
:10A2B0007047000098CB020020CB020013B568461F
:10A2C000FFF71CF808B100201CBD0248009950F8A7
:10A2D00031001CBD20CB020070B508480125D0F824
:10A2E0001044057007E0E068457121682046496820
:10A2F0008847E0680468002CF5D170BD88280020EC
:10A300002DE9FF4781460C9D00200C462F7B2873CA
:10A31000984616462946184601F0C6F8072E42D23E
:10A32000DFE806F004090F161F2A360049462846C2
:10A33000FFF7E0FA37E0494628462268FFF7DAFAE5
:10A3400031E0D4E9002349462846FFF7D3FA2AE052
:10A35000A0680090D4E9002349462846FFF7CAFACE
:10A3600021E0D4E90201CDE90001D4E90023494606
:10A370002846FFF7BFFA16E004F1080007C88DE889
:10A380000700D4E9002349462846FFF7B3FA0AE05C
:10A3900004F108000FC88DE80F00D4E900234946F6
:10A3A0002846FFF7A7FA00222946404601F05EF84A
:10A3B0002F73BDE8FF872DE9F041058A80462D1FE8
:10A3C0004819C01CB0FBF5F0C6B24046FFF788F84C
:10A3D000041E19D00020207101206071E580002743
:10A3E0002546761EC4F800800BE04046FFF778F85B
:10A3F00060B16179491C6171286005467F1CC0F815
:10A400000080B742F1D32046BDE8F081204600F03D
:10A4100002F80020F8E72DE9F041457901466B1E6E
:10A42000002201E00968521C9A42FBD30F680146E2
:10A43000002605E038460C68FFF774F82146761CC4
:10A44000AE42F7D3BDE8F0810121001DFFF726B829
:10A45000FFF780B810B504460121001DFFF73AF858
:10A4600010F0FF0F04D12046BDE81040FFF7D3BF26
:10A4700010BD1CB501920122009201AAFEF7FEFE5A
:10A480001CBD1CB501920022009201AAFEF7F6FE47
:10A490001CBD0000064910B500204870091D086069
:10A4A000BFF35F8F0349044800F000FA002010BD9D
:10A4B0009023002020C10200E426002008B50020DF
:10A4C0008DF800006846FDF739FBF1EE100A20F028
:10A4D0009F00E1EE100ABFF35F8F08494020C1F8EA
:10A4E00080029DF80000FDF74DFB00F0BBF908B1BC
:10A4F00041DF08BD20BF40BF20BF08BD04E000E031
:10A50000FDF7B2BA826800219160826811618268A9
:10A5100051618268D16082685160806801607047D3
:10A5200008B5002242504058009008BD20B10349B0
:10A5300009680160002070470E20704718C30200B0
:10A54000FEB502460E460846FFF7F0FF002868D128
:10A55000002400940194012706208DF80020ADF816
:10A56000040002948DF8027069462020326869DF89
:10A570002C492D4A891AC908012202EB014530B144
:10A5800000F002FA024628462849FFF711FE00941F
:10A590008DF801708DF80240019402948DF803400B
:10A5A00069464020326869DF30B100F0EDF90246BB
:10A5B00028461F49FFF7FCFD00940A208DF8000093
:10A5C0000194029469460120326869DF30B100F0DD
:10A5D000DBF9024628461749FFF7EAFD4FF4B06061
:10A5E0000090019402946946A120326869DF30B17D
:10A5F00000F0CAF9024628460F49FFF7D9FD00943A
:10A60000019402948DF800406946A020326869DF09
:10A6100030B100F0B9F9024628460849FFF7C8FDF5
:10A620000020FEBD88CB020020CB0200B8C902008A
:10A6300000CA020018C9020064C90200C4C80200AE
:10A640002DE9F0410546076860DF804619491A4840
:10A650002A68081AC608BA4219D9022000EB064433
:10A6600016A12046FFF7A0FD20463A461FA12B6801
:10A67000FFF7A5FD4FF08050D0F80C01296880024B
:10A6800000F10050421A204625A1FFF791FDB8F1D4
:10A6900000004FF001040AD000F076F9024604EB06
:10A6A00006402AA1FFF784FD4046BDE8F0812F480F
:10A6B0000470F9E788CB020020CB0200496E737565
:10A6C0006666696369656E742052414D20616C6CE9
:10A6D0006F636174656420666F72207468652053CF
:10A6E0006F66744465766963652E00004368616E29
:10A6F0006765207468652052414D207374617274DF
:10A70000206C6F636174696F6E2066726F6D2030AC
:10A7100078257820746F20307825782E000000008E
:10A720004D6178696D756D2052414D2073697A6570
:10A7300020666F72206170706C69636174696F6EFE
:10A7400020697320307825782E00000073645F62E2
:10A750006C655F656E61626C652829207265747531
:10A76000726E65642025732E000000000F24002007
:10A7700030B5144891B00078002820D05FF034053F
:10A78000ADF8405010A903A861DF30B1052816D0FC
:10A7900011B0BDE83040FDF767B903AC0A4968461F
:10A7A00000F084F807E000BFD0E900212046904780
:10A7B000684600F092F802980028E1D0F4E711B062
:10A7C00030BD00000F2400201CC302007CB5194CD2
:10A7D000207808B108207CBD0120A070002000F086
:10A7E000B1FF112819D0002000F0C4FF1248002644
:10A7F000006801908DF800606846FDF79FF90F49E9
:10A8000001A810DF05000AD0002020709DF800008C
:10A81000FDF7B8F92DB128467CBD00207CBD012094
:10A82000F3E7A670667001F04BF8012000F0A2FF7C
:10A83000F3E700000C240020B0C20200E57902001A
:10A840000EB50749684600F031F805E0D0E9001080
:10A850008847684600F041F802980028F6D10EBDFE
:10A86000CCC2020001480078704700000C24002090
:10A870001FB568464BDF30B1052814D004B0BDE8E1
:10A880001040FDF7F1B8084901A800F00FF806E004
:10A89000D0E900210098904701A800F01EF8039825
:10A8A0000028E6D0F4E71FBD38C302000160096844
:10A8B0004160AFF3008010B5D0E9002153689942A0
:10A8C00001D1002104E0D1E90034A34202D01946AD
:10A8D000816010BD08314160F0E7816800290BD02C
:10A8E000026892680A44826041684B689A4203D1C8
:10A8F00008314160FFF7DFBF704770B50D4606466F
:10A90000446804E0B2682946904718B1246820687A
:10A910000028F7D120682860256070BD4068006875
:10A92000704741680868002801D002680A607047D3
:10A9300002460020526806E08B4203D1086810608E
:10A94000012070471A461368002BF5D170470000AC
:10A950000C4A10B502F594730EE0991AC91001EB78
:10A96000D171491002EBC1010C68844201D90B4638
:10A9700002E005D201F108029A42EED3002010BD98
:10A98000486810BD40C1020000B5FFF7E1FF002894
:10A9900000D1014800BD00002CC102004058002831
:10A9A00000D00120704708B5002242504058009066
:10A9B00008BDD0F80403084000D00120704740587B
:10A9C000002800D00120704708B5002242504058AE
:10A9D000009008BD02480068002800D001207047A0
:10A9E0000004014008480068012110F0010F06D161
:10A9F0004FF0E020C02280F800248430C167034972
:10AA0000012008607047000000E100E018050040E8
:10AA10000649024600200B790BB1852070470A6079
:10AA200001220A7100224A71704700003823002079
:10AA3000022010B54107C1F808034FF48270FEF7F9
:10AA4000E2FE05490120086004480168C1F30041A5
:10AA50000029FAD110BD00000C000040180400408D
:10AA6000002802D00149800108477047F1C0020068
:10AA700010B5044600F072FC28B12046BDE8104035
:10AA80000021FFF7D9B8204600F074FC00280FD051
:10AA90002046FDF77DFD074A02EB8001D1F8103515
:10AAA00023F00103C1F8103501218140C2F80813D9
:10AAB00010BD0000006000402DE9F0410D46064643
:10AAC00000F04CFC0028304615D0FDF761FD083839
:10AAD00000F0C4FC032802D001280AD003E030466D
:10AAE000FFF728F928B103213046BDE8F041FFF710
:10AAF000A3B80221F8E700F03DFC002822D0304640
:10AB0000FDF746FD04464FF4807000EB84000E4FC5
:10AB100081B207EB8400D0F8102542F00102C0F8A2
:10AB200010250846FFF738F9002D0BD03046FDF709
:10AB30002FFD064951F82000002803D00120A04035
:10AB4000C7F80403BDE8F0810060004070250020D4
:10AB50002DE9FC41DFF8BC80044608EB0400002727
:10AB600090F930001346C0170E46401C01D008274C
:10AB70004DE0B0781946C0F340022046FDF7E4FCF2
:10AB80000546401C42D0B07841071AD4C0070DD00A
:10AB900068460094FFF78EF8009900EB8101D1F828
:10ABA000000720F00200C1F8000707E000217378D9
:10ABB000204600910A460191FEF7BBFF204600F0B7
:10ABC000BFFBB078800718D51348317800EB8500BB
:10ABD000D0F81025114B1A40C0F810254FF47C52C4
:10ABE0004FF4403302EA042203EA01410A43D0F859
:10ABF00010150A43C0F8102509E008EB050032786B
:10AC000010F8581F41EA8211017000E0042738460D
:10AC1000BDE8FC817025002000600040FFC0FCFF03
:10AC200010B5FFF787F8002800D0012010BD000004
:10AC300070B51A4D95F86A0008B1082070BD00245F
:10AC4000661E2046FFF760F810B1281980F83060C2
:10AC5000641CE4B2302CF4D300242046FDF766FCDB
:10AC6000641CE4B20C2CF8D30C4800210C4C416657
:10AC7000A0F868100B49C02081F80004012640208C
:10AC8000891FC1F800014FF4BE70FFF785F8A004DA
:10AC9000C4F8040385F86A60002070BD70250020A8
:10ACA0000060004006E000E0034890F86A000028D9
:10ACB00000D0012070470000702500200121B1EB79
:10ACC000507F01D1012070470020704738B50D46F4
:10ACD00000F036FC040014D000208DF80000684617
:10ACE000FCF72CFF207928B19DF80000FCF74AFF03
:10ACF000112038BD0120256020719DF80000FCF76F
:10AD000041FF002038BD10B500F01AFC002802D029
:10AD100000210160017110BD0149024800F064BFCB
:10AD2000DC250020002000402DE9F0410546007997
:10AD300016460F4600EB40012D4A01EBC00102EB25
:10AD4000810494F82A1011B10820BDE8F081294946
:10AD500051F820102868FFF7B9FF08B11120F4E777
:10AD600039462846FCF728FF6660386920603000C5
:10AD70004FF001062FD03F7F4FF48E712868FFF708
:10AD800012FE4FF4A2712868FFF70DFE28681A49D9
:10AD9000C0F8041328684FEA471140F30730002831
:10ADA00004DB00F1E02080F8001405E000F00F0063
:10ADB00000F1E02080F8141D286840F307300028D7
:10ADC00009DB00F01F0106FA01F14009800000F1E3
:10ADD000E020C0F8001128680421C0F80015002008
:10ADE000A061E06184F8290044F8140FA675ACE76F
:10ADF000DC250020CCC00200800002002DE9F05FBD
:10AE0000054600790B4600EB400101EBC0002449E8
:10AE100001EB8004284600F045F810B11120BDE890
:10AE2000F09F62614FF00009C4F82090A36084F89D
:10AE300028904FF48E784E4641462868FFF7B3FDC0
:10AE400028684FF0010AC0F808A02146286800F0E1
:10AE50005BFE606808BBD5F800B067690FE000BF13
:10AE600094F8280008B10F2615E041465846FFF730
:10AE700095FD0028F4D02146584600F045FE206A92
:10AE8000B842F2D3574641462868FFF787FD0028AD
:10AE9000F9D02868C760C4F814903046BFE70000B6
:10AEA000DC250020007900EB400101EBC0000449E3
:10AEB00001EB80004069002800D0012070470000AD
:10AEC000DC2500202DE9F047044600794FF0000909
:10AED00000EB400101EBC000284901EB800720682E
:10AEE000C0F800957868B0B120682549C0F808130B
:10AEF000206840F3073000280DDB00F01F0201211D
:10AF000091404009800000F1E020C0F88011BFF3BB
:10AF10004F8FBFF36F8F2068D0F80C25D0F81485C1
:10AF2000D0F80865D0F810554FF0FF31C0F814156F
:10AF3000C0F80C152068C0F80815C0F81015501C92
:10AF400002D01046FEF740FEB8F1FF3F02D0404667
:10AF5000FEF73AFE681C02D02846FEF735FE701C4C
:10AF600002D03046FEF730FE2068FFF7CCFE87F8AF
:10AF70002A90C7F80490BDE8F0870000DC25002087
:10AF8000840202000149024800F0DCBE08260020CD
:10AF9000002000402DE9F0410546164600790F4695
:10AFA000154A00EBC00102EB810494F8201011B1A6
:10AFB0000820BDE8F081114951F820102868FFF7FA
:10AFC00085FE08B11120F4E739462846FCF72FFE2C
:10AFD0006660386920601EB1397F2846FDF746FF5C
:10AFE00028680821C0F800150020A061E0616061B8
:10AFF000012184F82010DCE708260020D0C00200E0
:10B000002DE9F04704460E460079274900EBC000C1
:10B0100001EB800517463046FFF750FE30B1204661
:10B0200000F044F820B11120BDE8F0871020FBE7C4
:10B030006F61AE604FF490774FF00008394620689A
:10B04000FFF7C2FC4FF4AC7631462068FFF7BCFC3A
:10B050002068AA686969C0F84425C0F848152068C6
:10B060004FF00109C0F808906868D0B9BA46514657
:10B070002068FFF7A4FC074631462068FFF79FFCD5
:10B080000743F4D010B14FF00F0808E02068C0F873
:10B090000C9031462068FFF792FC0028F9D0002080
:10B0A00068614046C0E70000082600200079054995
:10B0B00000EBC00001EB80004069002800D00120B7
:10B0C00070470000082600202DE9F0470646007969
:10B0D0003D4900EBC00001EB80053468686801273A
:10B0E000A8B13A49C4F80813306840F30730002883
:10B0F0000DDB00F01F0107FA01F14009800000F1AB
:10B10000E020C0F88011BFF34F8FBFF36F8FD4F8EA
:10B11000000220F02000C4F80002A8694FF4A278D1
:10B1200020B141462046FFF74FFC67604FF4AC79F1
:10B1300049462046FFF748FCE76047464946204617
:10B14000FFF73DFC0028F9D0A86928B13946204610
:10B15000FFF735FC0028F1D04FF0000AC4F800A535
:10B160003068D0F80C25D0F81495D0F80885D0F8C0
:10B1700010754FF0FF31C0F80C15C0F81415306889
:10B18000C0F80815C0F81015501C02D01046FEF784
:10B1900024FDB9F1FF3F02D04846FEF71EFD781CA2
:10B1A00002D03846FEF719FDB8F1FF3F02D0404605
:10B1B000FEF713FD2046FFF7A6FD85F820A0C5F891
:10B1C00004A0BDE8F087000008260020100342001C
:10B1D0000078002807D104483B21408876DF00280A
:10B1E00001D0FCF741BC70470023002070B58D886A
:10B1F000027900EBC5042273C97BA41D012902D08A
:10B20000022904D101E0008800E0408820802188E4
:10B210006088814211D92846A5DF0126B0B11128E6
:10B2200016D0FFF7B1FB02460B480C49401AC00884
:10B2300006EB00400AA1FEF7BBFFA179E07981424D
:10B2400008D92846BDE87040FDF72ABB6671F4E7CF
:10B250002671F2E770BD000020CB020020CB020077
:10B2600073645F626C655F67617474635F65786364
:10B2700068616E67655F6D74755F72657175657322
:10B280007428292072657475726E65642025732E8A
:10B29000000000007CB506468D88C88806EBC50412
:10B2A000A41D172800D217202188814200D8084603
:10B2B00060800020207121882846B5DF60B1FFF74B
:10B2C00063FB02460F481049401AC008012101EBF8
:10B2D00000400EA1FEF76CFF6079002810D13069A4
:10B2E00000280DD01549D1E90201CDE90001ADF8E2
:10B2F00002506088ADF804003269694630469047D4
:10B300007CBD000020CB020020CB020073645F6292
:10B310006C655F67617474735F65786368616E679D
:10B32000655F6D74755F7265706C79282920726530
:10B330007475726E65642025732E00009CC0020037
:10B3400010B50549C20800F00703885C01249C4041
:10B350002043885410BD0000D4250020044908442F
:10B3600090F93000082801DB012070470020704769
:10B37000702500200449084490F93000082801D2C3
:10B380000120704700207047702500202DE9F84FFC
:10B39000314F05464FF001090024381990F960102B
:10B3A000491C46D090F86000294620F0C00630467F
:10B3B000FEF7E8F870B3204600F050F88246684681
:10B3C0000096FEF777FC009900EB8100D0F80007AB
:10B3D000C0F30148B8F1020F1DD002213046FEF73C
:10B3E0002BFC68460096FEF765FC009A09FA02F10C
:10B3F000C0F820153046FDF7CBF857F820204AB1A9
:10B400005046BAF1030F11D0B8F1020F05D0B8F1D0
:10B41000030F07D00DE00321E0E75046BAF1010F1A
:10B4200004D006E05046BAF1020F02D10146304680
:10B430009047641C042CB0D32A4602210020FEF75A
:10B4400013FC002055F820100029A5D1401C02282B
:10B45000F8D3BDE8F88F00007025002002490844A9
:10B4600090F86000800970477025002010B50C46E8
:10B47000017A052908D0407A38B1084808A1026845
:10B480002046FEF737FA00E01AB106A12046FEF783
:10B4900031FA2046BDE81040FEF739BAE823002013
:10B4A000257300000D0A000038B5C3880D46044618
:10B4B00033B114A0009015A216A12846FEF71AFA7F
:10B4C000217A05291CD0607A48B1A088FEF72CFDAE
:10B4D000164951F8202016A12846FEF70BFAA0883D
:10B4E0000021FEF7EBFE03461049207A143951F88B
:10B4F000202001B02846BDE830400EA1FEF7FAB981
:10B5000038BD00001B5B306D000000001B5B313B51
:10B5100033316D0025734C6F67732064726F7070E8
:10B520006564202825642925730D0A00E82300207E
:10B53000257300003C25733E2025733A200000004F
:10B540000349884201D1034870470020704700003A
:10B55000002000404023002070B50546FDF7EBFABF
:10B56000134C40B1D4E904024FF08071411842F10C
:10B570000000C4E9041000212846FDF729FA30B183
:10B58000606820B1606800F02FFA0020606001213F
:10B590002846FDF71DFA18B1FDF7D2FBC4E90601F4
:10B5A000284600F04DFA2846BDE8704000F034B857
:10B5B0006023002070B5054600200C460870FDF79A
:10B5C000BFFBD5E90223101A63EB010300263146C5
:10B5D000361A994112DAB0F5350F03D3FCF750FA59
:10B5E0000B4942184FF4960300210A48FDF7AFFAC1
:10B5F00010B10D2806D009E0012070BD00210548DA
:10B60000FDF7DCF9284600F0EFF92070002070BD4E
:10B61000FFFFB40068230020F8B51A4C0746002647
:10B620001948FFF77BF9D0B1616871B1D0E9021018
:10B630006268D2E90232C91A904120D26068007F64
:10B6400018B161681048FFF758F900F065F9054630
:10B650006946FFF7AFFF98B1606840B10AE06068E3
:10B6600000280CD13846BDE8F840FDF76CBA3846E2
:10B67000FDF765FA65609DF800000028D0D1F8BD9F
:10B680006660CDE760230020E4C0020070B5054687
:10B6900088690C4600284FF4847128460AD0FFF7C9
:10B6A00082F9D5F81805626AE1688854606A401C1E
:10B6B000606270BDFFF777F9D5F8180570BD1FB54A
:10B6C00001238DF80030CDE90121D0E90012684650
:10B6D00090471FBD1FB501238DF80030CDE9012132
:10B6E000D0E90012684690471FBD000038B5002120
:10B6F000012548B1012810D003280DD1FFF772F9B8
:10B70000BDE83840FEF7A8B84FF0E020C0F88051FF
:10B71000BFF34F8FBFF36F8F38BD8DF800106846B1
:10B72000FCF70CFA064C207808B9FEF775F8E068CB
:10B73000401CE060A5709DF80000FCF723FA38BDBE
:10B740005C2500203EB5044609496846FFF7AEF87F
:10B7500008E000BFD0E900212046904730B168469C
:10B76000FFF7BBF802980028F4D13EBD11203EBD82
:10B77000B4C202003EB5044608496846FFF796F891
:10B7800007E000BFD0E90021204690476846FFF758
:10B79000A4F802980028F5D13EBD0000C0C2020006
:10B7A00002498969002900D008477047C424002055
:10B7B00070B50D4C0020D2B22070201D0B4D0378C7
:10B7C000EB5C1BB1001DFFF71BFC02E00C30FFF728
:10B7D00015FB08B1FCF748F96078002802D0217801
:10B7E0000029FAD070BD00009823002024230020F7
:10B7F0002DE9F0410746806A14468846C8B3002503
:10B8000031E000BFB96A05EB450001EB8006B08866
:10B81000801CFE2802D90C20BDE8F0812288401C43
:10B8200008F8020020881622401C80B2208008F808
:10B8300000202088401C80B2208000EB0801308866
:10B8400000F009FB2188084480B22080B28842B110
:10B85000B16871B14044FBF7DBFD2088B188084432
:10B8600020806D1CEDB297F82C00A842CAD80020A9
:10B87000D2E7FFE70720CFE70A78062822F0FF0289
:10B880000A7010D2DFE800F0030507090B0D002055
:10B8900008E0112006E0212004E0312002E012201F
:10B8A00000E0222008707047002805D103490120DC
:10B8B00048700020FCF73CBF704700005C2500206A
:10B8C00010B51620FBF7A4FFA0B1114890F80004B2
:10B8D0004009082811D20121814011F0EC0F0CD051
:10B8E0000C4882684FF480016AB1016841F480011C
:10B8F000016010BD42F2010001E042F20200BDE829
:10B900001040FCF7B1B84FF0E020C0F8001110BDB6
:10B9100016E000E0D82600200148FFF702B800003A
:10B92000E4C00200C207002A03D000BF4FF00F029C
:10B9300001E04FF0F00201D04FEA0111044B03EB9C
:10B940005003187800EA020040EA010018707047BE
:10B95000502600202DE9F84F074621489146884699
:10B9600005681E46012269461846FCF721FDDFF8EE
:10B9700074A060B3009800210446801C0AE000BF58
:10B9800000EA050259F821C00AEB8202401C491C5A
:10B99000C2F80CC0B142F3D34FEA1749FDF704F8DF
:10B9A000611C29400AEB810149EA00422C40CA602F
:10B9B0000AEB8401C86867F3C50066F3891068F371
:10B9C0009F2020F00300401C20F00400C8609AF87B
:10B9D000000001E0FEF7CEFA0028FBD1BDE8F88FA9
:10B9E000B82300208828002070B50446124800259E
:10B9F0000078F8B1F4B1207FE0B1FDF7A1F9D4E906
:10BA00000223801A994110D32069002600B92677B5
:10BA1000D4E905108847206960B1217F51B1D4E98C
:10BA2000022110187141C4E9020121460348FEF7C2
:10BA300064FF0125284670BD60230020E4C0020099
:10BA4000F8B51B4C69462068FDF7ECFC0026012781
:10BA5000184D29E0017821B101290CD002291BD110
:10BA600014E041680A7FBAB90F774168104808307E
:10BA7000FEF743FF10E041686868814201D16E60C3
:10BA80000AE00B480830FEF753FF05E0FFF744FFDC
:10BA900008B10677FAE72F7069462068FDF7B7FC12
:10BAA00069462068FDF7BEFC0028D3D1F8BD000030
:10BAB000DCC0020060230020F8B50B4C0D460646A2
:10BAC00069462068FDF798FC58B1067045606946E4
:10BAD0002068FDF7B2FC10B10448FDF719F800200A
:10BAE000F8BD0420F8BD0000DCC00200682300207F
:10BAF000034880684108034800224068FCF700B80A
:10BB000048230020D4C0020070B50C4605464FF40F
:10BB10008E71FEF748FF216AA068415C206A401CD4
:10BB20002062C5F81C1570BD1FB500228DF80020DD
:10BB30000291816801914261D0E900126846904704
:10BB40001FBD1FB500228DF8002002918168019170
:10BB50004261D0E90012684690471FBD1FB50A46F2
:10BB600001788DF8001041680191017A8DF8081074
:10BB7000C0680390044850F82210083850F822207A
:10BB8000684690471FBD0000302300200149012076
:10BB9000087070479823002010B588B00446202212
:10BBA0000E496846FBF734FC06200090C01F019048
:10BBB000029003904FF0EB7006900CB1084A00E041
:10BBC000002269460748FDF761FE08B1FBF74CFF0C
:10BBD0000448001F447008B010BD000074C2020089
:10BBE0008DBB02009C2300202DE9FF470C46054633
:10BBF0004FF40071FEF7DDFE01274FF401780026B7
:10BC000018B34FF4927949462846FEF7C7FEE0B1D3
:10BC100049462846FEF7C7FEC5F8088394F8290070
:10BC200000B96F6002208DF80000D5F88004C5F8D7
:10BC300080040390A0690290E0680190A661E6612B
:10BC4000D4E900126846904728E004212846FEF710
:10BC5000B0FE18B34FF484712846FEF79FFEE8B19A
:10BC600021462846FFF712FD616AA069884215D176
:10BC7000E06938B1E268616AA0612069E6616662E4
:10BC8000E06008E094F8290000B96F60C5F8088307
:10BC9000A661E268616A2046FFF711FD4FF48E78D5
:10BCA00041462846FEF77AFE80B16069216A8142EA
:10BCB00002D294F8280028B341462846FEF773FEC6
:10BCC000606918B161692046FFF72EFF4FF4A27832
:10BCD00041462846FEF762FE002818D04146284615
:10BCE000FEF761FE94F8290000B12F60A0690028DA
:10BCF0000DD0A661E268616A04B02046BDE8F04755
:10BD0000FFF7DDBC21462846FFF7FEFEDEE7BDE873
:10BD1000FF8700001FB50A4601788DF800104168C2
:10BD20000191017A8DF80810C0680390044850F81A
:10BD30002210083850F82220684690471FBD0000A6
:10BD4000302300202DE9FF410C464FF49277054641
:10BD50003946FEF734FE0026B8B139462846FEF7CC
:10BD600033FE02208DF80000D5F88004C5F8800469
:10BD70000390D5F83C050290E0680190A661E66169
:10BD8000D4E900126846904723E04FF4887739469B
:10BD90002846FEF714FEE0B139462846FEF714FEA9
:10BDA000D5F83C15A069884213D1E06960B1E2681A
:10BDB000D5F8000220F02000C5F80002E069A0617B
:10BDC0002069E661E06001E0A661E2682046FFF7D5
:10BDD00081FC4FF4A27739462846FEF7F0FD68B1A2
:10BDE00039462846FEF7F0FDA06938B1A661E66144
:10BDF000D5F83C152046E268FFF76CFC4FF49076CE
:10BE000031462846FEF7DBFD60B131462846FEF795
:10BE1000DBFD0120E860606920B1D5F84C152046B3
:10BE2000FFF78FFE4FF4AC7631462846FEF7C7FD8C
:10BE300000280ED031462846FEF7C6FD606900286E
:10BE400007D0D5F84C1504B02046BDE8F041FFF707
:10BE500078BEBDE8FF810870000A48700220704774
:10BE60002DE9F05F8346DDE90A4A994690460D4682
:10BE70000846012703E000BFB0FBF8F07F1C4045F7
:10BE8000FAD2B94500D94F465FEACA7012D18CB1D7
:10BE90005FEA8A7002D5B9F1000F01D0202607E0D1
:10BEA000302605E031465846641EFCF7CBFA0CB14B
:10BEB000A742F7D35FF00106B9F1010F02D9A9F14A
:10BEC000010903E0B5FBF6F0404502D306FB08F696
:10BED000F2E7DFF83C9000BFB5FBF6F000FB16552B
:10BEE00019F800105846FCF7ADFAB6FBF8F6002E2C
:10BEF000F2D15FEACA7009D0002C07D0A74205D260
:10BF000020215846641EFCF79DFAF5E7BDE8F09F36
:10BF1000F6C00200F8B5054680B2FCF749FF040000
:10BF200013D0154E207A0027317B88420ED2A8B25A
:10BF300004F10A0175DF28B1112806D0BDE8F840E8
:10BF4000FFF72EBC207A401C2072F8BD2772307C8F
:10BF500038B1A8B23B2176DF18B1082801D0FFF72D
:10BF60001FFC71690029F0D08DF80070ADF8025007
:10BF700068468847F8BD0000C424002030B4044659
:10BF8000007A00280AD06088002166DF28B11128D5
:10BF900002D0616830BC08470120207230BC704775
:10BFA00070B50C460546FCF7ADFA002807D042688C
:10BFB000002A04D021462846BDE87040104770BDD5
:10BFC0002DE9FC411646DDE90854CDE900541F4631
:10BFD0008046022200F00CF8002807D1CDE9005479
:10BFE0003B4610223146404600F002F8BDE8FC8195
:10BFF0002DE9FC5F0026DDE90C4B994692468E4602
:10C0000080462788354630E0D8F80400002200EB4F
:10C01000850069460068019001A864DF002830D1DE
:10C020009DF8000050451FD10EB1002100E0022113
:10C03000228808441118594522D846B9521C90B29A
:10C04000208009F800E02088401C208001262188FB
:10C0500001A801EB0902694664DF002811D120889C
:10C060009DF80010084420806D1CB8F80000A8421C
:10C07000CADC56B12088C01B401E80B2FF2802D9FE
:10C080000C20BDE8FC9F09F807000020F9E700003C
:10C09000231500000D0E0F100B0C1819770A000065
:10C0A00000000000770A0000000000007ADA0000BB
:10C0B0000000000023D1BCEA5F782315DEEF1212E6
:10C0C00000000000000000500003005019AD020005
:10C0D00085AF0200030000003026002070260020FB
:10C0E0000100060000000000802300207587020088
:10C0F0000338FDD87047303132333435363738396C
:10C10000414243444546000000000000000000009A
:10C11000000000000000000000000000000000001F
:10C1200008C1020020C1020004000000556E6B6EC1
:10C130006F776E206572726F7220636F64650000A6
:10C1400000000000E8C702000100000094C60200E1
:10C150000200000088C402000300000008C70200BB
:10C16000040000005CC70200050000003CC602009D
:10C1700006000000D8C502000700000044C7020006
:10C180000800000050C6020009000000B4C602000A
:10C190000A000000D0C702000B00000070C40200BB
:10C1A0000C00000068C602000D00000038C8020044
:10C1B0000E00000034C702000F00000070C702002C
:10C1C00010000000A4C70200110000004CC80200CB
:10C1D0001200000020C8020013000000BCC70200CB
:10C1E00080000000F0C50200810000002CC50200A4
:10C1F00082000000ECC4020083000000CCC40200F6
:10C200008400000008C502008500000014C602007A
:10C21000860000001CC7020090000000B8C50200A4
:10C2200091000000ACC40200920000007CC6020035
:10C230000082000084C7020001820000D0C6020014
:10C2400002820000ECC602000084000048C5020023
:10C2500001840000F4C702000284000090C50200BF
:10C26000038400006CC50200119F0200E59E0200DD
:10C27000DB9E0200FFFFFFFFFFFFFFFFFFFFFFFF4F
:10C28000FFFFFFFF00000000000000000000D601DB
:10C2900006010000F02700207F0000007028002029
:10C2A000000000000000000000000000000000008E
:10C2B00001000007A0C20200B0C202000800000096
:10C2C000D8C20200E8C2020008000000E8C2020072
:10C2D000F8C2020008000000F4CB0200FCCB020010
:10C2E0000000000000000000E4CB0200F4CB0200DC
:10C2F0000000000000000000ACCB0200B4CB020044
:10C30000B4CB0200C4CB0200C4CB0200D4CB0200E9
:10C31000D4CB0200DCCB020000230020F8C20200D4
:10C3200018C3020008000000DCCB0200E4CB0200CE
:10C33000000000000000000028C3020038C3020013
:10C340000800000000404040404040404040414123
:10C3500041414140404040404040404040404040DA
:10C360004040404040050202020202020202020274
:10C370000202020202202020202020202020200271
:10C380000202020202029090909090901010101001
:10C39000101010101010101010101010101010109D
:10C3A0000202020202028888888888880808080831
:10C3B00008080808080808080808080808080808FD
:10C3C000020202024000000045C3020073645F6283
:10C3D0006C655F6761705F646174615F6C656E67F7
:10C3E00074685F75706461746528292028726571AE
:10C3F0007565737429206F6E20636F6E6E6563744C
:10C40000696F6E20307825782072657475726E655C
:10C41000642025732E0000005468652072657175D4
:10C42000657374656420636F6D62696E6174696FB2
:10C430006E206F6620545820616E64205258207020
:10C4400061636B6574206C656E67746873206973D3
:10C4500020746F6F206C6F6E6720627920257520C5
:10C460006D6963726F7365636F6E64732E00000095
:10C470004E52465F4552524F525F494E56414C49CB
:10C48000445F4441544100004E52465F4552524F72
:10C49000525F534F46544445564943455F4E4F54AF
:10C4A0005F454E41424C4544000000004E52465FFD
:10C4B0004552524F525F464541545552455F4E4F8B
:10C4C000545F454E41424C45440000004E52465F89
:10C4D0004552524F525F4D555445585F554E4C4F43
:10C4E000434B5F4641494C45440000004E52465F75
:10C4F0004552524F525F4D555445585F4C4F434B38
:10C500005F4641494C4544004E52465F4552524FAA
:10C51000525F4D555445585F434F4E445F494E4915
:10C52000545F4641494C4544000000004E52465F6E
:10C530004552524F525F4D555445585F494E4954EC
:10C540005F4641494C4544004E52465F4552524F6A
:10C55000525F424C455F495053505F52585F504BB9
:10C56000545F5452554E4341544544004E52465F29
:10C570004552524F525F424C455F495053505F50B5
:10C580004545525F52454A4543544544000000002A
:10C590004E52465F4552524F525F424C455F4950A2
:10C5A00053505F4C494E4B5F444953434F4E4E45A9
:10C5B00043544544000000004E52465F4552524FDE
:10C5C000525F4150495F4E4F545F494D504C454D6D
:10C5D000454E5445440000004E52465F4552524F6E
:10C5E000525F4E4F545F535550504F525445440084
:10C5F0004E52465F4552524F525F4D4F44554C4547
:10C600005F4E4F545F494E495449414C495A454445
:10C61000000000004E52465F4552524F525F4D4F50
:10C6200044554C455F414C52454144595F494E4940
:10C630005449414C495A4544000000004E52465F5F
:10C640004552524F525F4E4F545F464F554E440035
:10C650004E52465F4552524F525F494E56414C49E9
:10C66000445F5354415445004E52465F4552524F29
:10C67000525F444154415F53495A45004E52465F10
:10C680004552524F525F494F5F50454E44494E47C5
:10C69000000000004E52465F4552524F525F5356C3
:10C6A000435F48414E444C45525F4D495353494EB8
:10C6B000470000004E52465F4552524F525F494E6E
:10C6C00056414C49445F4C454E47544800000000D9
:10C6D0004E52465F4552524F525F4452565F545736
:10C6E000495F4552525F414E41434B004E52465FB7
:10C6F0004552524F525F4452565F5457495F45521C
:10C70000525F444E41434B004E52465F4552524F9A
:10C71000525F494E5445524E414C00004E52465FC6
:10C720004552524F525F53544F524147455F465511
:10C730004C4C00004E52465F4552524F525F4E5590
:10C740004C4C00004E52465F4552524F525F494E8C
:10C7500056414C49445F504152414D004E52465F54
:10C760004552524F525F4E4F5F4D454D0000000005
:10C770004E52465F4552524F525F464F52424944D5
:10C7800044454E004E52465F4552524F525F44520E
:10C79000565F5457495F4552525F4F564552525566
:10C7A0004E0000004E52465F4552524F525F494E76
:10C7B00056414C49445F4144445200004E52465F4A
:10C7C0004552524F525F5245534F555243455300C5
:10C7D0004E52465F4552524F525F494E56414C4968
:10C7E000445F464C414753004E52465F53554343C6
:10C7F000455353004E52465F4552524F525F424C92
:10C80000455F495053505F4348414E4E454C5F4150
:10C810004C52454144595F45584953545300000018
:10C820004E52465F4552524F525F434F4E4E5F430A
:10C830004F554E54000000004E52465F4552524F35
:10C84000525F54494D454F55540000004E52465FCB
:10C850004552524F525F4255535900007761726EF4
:10C86000696E670064656275670000001B5B313BA1
:10C8700033306D001B5B306D000000001B5B313BF3
:10C8800033316D001B5B313B33326D001B5B313B41
:10C8900033336D001B5B313B33346D001B5B313B2D
:10C8A00033356D001B5B313B33366D001B5B313B19
:10C8B00033376D00696E666F000000006572726F3D
:10C8C0007200000073645F626C655F6366675F732C
:10C8D000657428292072657475726E6564202573ED
:10C8E000207768656E20617474656D7074696E6719
:10C8F00020746F2073657420424C455F4741545447
:10C90000535F4346475F534552564943455F43484B
:10C91000414E4745442E000073645F626C655F635F
:10C9200066675F73657428292072657475726E6519
:10C9300064202573207768656E20617474656D705E
:10C9400074696E6720746F2073657420424C455F74
:10C95000434F4D4D4F4E5F4346475F56535F5555CE
:10C9600049442E0073645F626C655F6366675F7342
:10C97000657428292072657475726E65642025734C
:10C98000207768656E20617474656D7074696E6778
:10C9900020746F2073657420424C455F47415454A6
:10C9A000535F4346475F415454525F5441425F5383
:10C9B000495A452E0000000073645F626C655F6336
:10C9C00066675F73657428292072657475726E6579
:10C9D00064202573207768656E20617474656D70BE
:10C9E00074696E6720746F2073657420424C455FD4
:10C9F000434F4E4E5F4346475F4741502E00000075
:10CA000073645F626C655F6366675F736574282932
:10CA10002072657475726E65642025732077686571
:10CA20006E20617474656D7074696E6720746F2018
:10CA300073657420424C455F4741505F4346475FF2
:10CA4000524F4C455F434F554E542E006E72665FF9
:10CA5000626C655F6761747400000000636C6F63F3
:10CA60006B000000434C4F434B0000004750494FC0
:10CA700054450000505253005541525400000000EC
:10CA800055415254450000006170705F62757474C6
:10CA90006F6E00006170705F74696D6572000000F8
:10CAA0007077725F6D676D7400000000736F727451
:10CAB0006C69737400000000756172745F6C6F675D
:10CAC0005F6261636B656E640000000061707000FE
:10CAD0006E72665F736468006E72665F7364685F2F
