:020000022000DC
:1060000000000120756302005D6302005F6302000F
:106010006163020063630200656302000000000028
:1060200000000000000000000000000067630200A4
:1060300069630200000000006B6302006D630200F0
:10604000E58502006F630200E98902006F630200C8
:106050006F6302006F6302009D8802006F6302009D
:106060006F6302006F6302006F6302006F630200E0
:106070006F6302006F6302006F6302006F630200D0
:106080006F630200B57602006F6302006F63020067
:106090006F6302006F630200319E02006F630200B3
:1060A0006F6302006F6302006F6302006F630200A0
:1060B0006F6302006F630200000000000000000038
:1060C0006F6302006F6302006F6302006F63020080
:1060D0006F6302006F6302006F6302000000000044
:1060E00000000000000000000000000000000000B0
:1060F00000000000000000000000000000000000A0
:10610000000000000000000000000000000000008F
:10611000000000000000000000000000000000007F
:10612000000000000000000000000000000000006F
:10613000000000000000000000000000000000005F
:10614000000000000000000000000000000000004F
:10615000000000000000000000000000000000003F
:10616000000000000000000000000000000000002F
:10617000000000000000000000000000000000001F
:10618000000000000000000000000000000000000F
:1061900000000000000000000000000000000000FF
:1061A00000000000000000000000000000000000EF
:1061B00000000000000000000000000000000000DF
:1061C00000000000000000000000000000000000CF
:1061D00000000000000000000000000000000000BF
:1061E00000000000000000000000000000000000AF
:1061F000000000000000000000000000000000009F
:10620000354936480A1A02D0072291438D4634494F
:1062100034480A1A06D00722914381F309880222E2
:1062200082F3148830483149314A00F044F831484B
:106230003149324A00F03FF831483249324A00F0E1
:106240003AF832483249334A00F035F83248334997
:10625000334A00F030F833483349344A00F02BF821
:1062600033483449344A00F026F83448344900228F
:1062700000F02CF833483449002200F027F8334866
:106280003349091A082902DB002202604160314AC1
:1062900090471F481F49884205D00268043003B464
:1062A000904703BCF7E700208646EC46002000211B
:1062B000294A9047FEE7884207D0521A05D0037852
:1062C00001300B700131013AF9D17047884202D098
:1062D00002700130FAE770470000012000E0002062
:1062E000000001200000012010B00200C8180020AA
:1062F0002C190020D0630200D06302004AA30200E0
:1063000010B00200C8180020C818002000A4020025
:1063100000A4020000A4020000A4020000A40200E5
:1063200000A4020000A4020000A402000EB00200BB
:1063300074B002002C1900202C1900202C19002008
:106340008B2100208C2100208C2100208C2100201A
:106350008C4100209D6302004D970200FEE7FEE79E
:10636000FEE7FEE7FEE7FEE7FEE7FEE7FEE7FEE705
:1063700000F002B8FFF7FCBF0F484FF00701884359
:1063800085460E4880470E48016841F4700101605F
:10639000BFF34F8FBFF36F8FFFF732BF09480A4932
:1063A0000A4A884207D0521A05D0037801300B7090
:1063B0000131013AF9D1704700000120C97F020084
:1063C00088ED00E000A40200C8180020C8180020D2
:1063D000F0B595B01D46164608460C4601F0F0FC97
:1063E0001A9B0D93CDE9086500252B46082205A9C7
:1063F00020460A958DF82C500C9501F0FDFC079B6A
:106400000293069B03939DF814308DF8115003F00E
:106410000302012A1DD1BDF81420059DC3F3C20358
:10642000C2F383168DF81030B20008230EA920465F
:1064300001F0E2FCC5F3952508AB0093324602ABB0
:106440000EA9284600F0AAFB204601F0BDFC15B0BD
:10645000F0BD022AF8D1BDF81650C3F3C203C5F34C
:1064600089158DF810300827082D2E4628BF0826DC
:106470003B4632460EA9204601F0BEFCAD1B08ABE0
:1064800002AA31460EA8374400F0ECFB002DEBD1F8
:10649000DAE70000014B01221A7070476D190020E5
:1064A0007047000070B50E4D06460FCD88B06C46A3
:1064B0000FC495E80F00002E84E80F00094A0A482F
:1064C0004FF0060308BF00226946009302F012F85D
:1064D00008B100F099FD054B1E7008B070BD00BFFB
:1064E00000A4020095640200C81800202C190020A6
:1064F00007B5044B0093044A4023FFF769FF03B03C
:106500005DF804FB0D6502002D19002038B50D481B
:106510000D4C0E4D002323700378EB5CD2B263B1B7
:10652000043002F0EFFE08B100F06EFD084B1A785F
:1065300012B12378002BFBD038BD0C3002F090FC58
:10654000F1E700BFC81800206D19002008200020C6
:106550002C19002008B50848084A0378D35C3BB1E1
:10656000043002F033FEBDE808400020FFF79ABF78
:106570000C3002F0FFFBF6E7C818002008200020CE
:106580000120FFF78FBF000008B5FFF7F9FF0448AF
:10659000042100F06DFA034B01225A7108BD00BFBF
:1065A000F0A30200DC180020037813F0040216D0D8
:1065B00003F00303012B03D0022B09D00120704705
:1065C0000A6800880232C0F3831002440A60F5E7CB
:1065D0000B684288023303EB92130B60EEE7104620
:1065E000704700002DE9F04FDFF81CA187B00F467F
:1065F00000230446861C0DF1070015468DF8073070
:1066000000F0EAFEDAF804203A60DAF8083003F520
:1066100080739B1A0AF21C470AF583690AF2144830
:10662000B3421AD30020002D69D004F00F039B0160
:1066300043F0050363F30F00DAF80430DAB20332F3
:1066400033444AF822009DF80700CAF8043000F0ED
:10665000E7FE012007B0BDE8F08F0121384601F0C8
:10666000DEF8484601F0F3F8404601F0F0F8DAF8B9
:1066700008000290C0B203300AEB800002A9FFF7C5
:1066800093FF029B30BBDAB20AEB8202D16803911E
:106690009A1C0133DBB20AEB83030292D3F80CB0ED
:1066A00001F00303012B22D0022B15D08346404674
:1066B00001F0D0F810B1029BCAF8083059463846AC
:1066C00001F0ADF8DAF80830DAF8042003F5807349
:1066D0009B1AA5E7D8B2CEE7BDF80E30C3F38913F5
:1066E00003334FEA1B4B02EB93030293DFE7BDF842
:1066F0000C30C3F383134FEA1B4B1344F5E7A40597
:1067000044F0060098E700BF401A0020064B0748F7
:1067100010B500221A7001F00CFB044610B90448B1
:1067200001F0B4FB204610BD401A00206CA302000B
:1067300054A4020030B50A4C71B10A4A0A49121B2E
:10674000D20800239A4201D1002030BD31F82350F5
:10675000854202D00133F5E7034654F83300F4E7ED
:1067600080A30200F0A30200C8180020094B0139E1
:1067700003EBC000032909D8DFE801F00A02040690
:1067800004207047007970474079704700207047B7
:106790000220704780A30200034BD3E90130C31AE3
:1067A00058425841704700BF401A00202DE9F0417F
:1067B00086B0FFF7F1FF0546002840F0ED80774CEA
:1067C000C4F81804BFF34F8FA3680293DBB20333FE
:1067D00004EB830002A9FFF7E7FE029B18B1D4F88F
:1067E0001824002A5AD0DAB2991C013304EB820231
:1067F000DBB204EB8303D268DB68049302F003038B
:10680000022B0392029154D1BDF80E306448C3F3B9
:106810008917502F3E4628BF502606F1080166F31F
:106820008F13C1F30901ADF80E3001F09AFA054655
:10683000002800F09C8001F0C3FA0023082203A97D
:10684000284601F0CFFA0299CB43DBB20133C9B23B
:106850000331B6EB830F4FEA830204EB810125D9A4
:106860005FFA82F80823A6EB0806284601F0BAFA78
:10687000F6B208F108034B4903F0FC033246284600
:1068800001F0B0FA029B033703EB97070297D4F8A5
:106890001834002B43D1D4F8106453E062689A4254
:1068A00094D8A260284606B0BDE8F081082332469D
:1068B000E5E7012B5BD1BDF80C303948C3F38311F8
:1068C000062928BF062161F38913023101F00F0167
:1068D0008900ADF80C3001F044FA0546002846D096
:1068E00001F06EFA0023082203A9284601F07AFA83
:1068F0000026BDF80C20C2F38312B300964203F1C8
:106900000803C4D202994A1CC9B20331029204EBB3
:1069100081010422284601F065FA0136E9E728469C
:1069200001F052FAFFF738FF80F00100C5B2B9E775
:10693000F3685B7923B1336829461B683046984772
:10694000F3681E68002EF3D1284601F03DFA0DF1E0
:1069500007008DF8076000F03FFDD4F818340BB93C
:10696000029BA3609DF8070000F05AFDDAE7D4F817
:10697000104454B90C4B0D480D49C01AC00800040E
:1069800040F0020000F05CF8CCE7236820469B68EA
:106990009847E3681C68ECE7002583E7401A00206D
:1069A0006CA302004C1A002080A30200A8A30200DE
:1069B0003DA402002DE9F34704460E46924601A984
:1069C000012218469946FFF70DFE1B4F10B3019D9B
:1069D0004FF00008AA1CC84508EB020123D1174854
:1069E000002100F0F9FE80F31000000440EA14409A
:1069F000E4006B1C04F03804DBB2EDB244F0010497
:106A000007EB8303033544EA881444EA8624D860FC
:106A100047F825403B781BB1FFF7C8FE0028FBD1A3
:106A200002B0BDE8F087C9B207EB81015AF82830FF
:106A3000CB6008F10108CEE7401A00205C1E002060
:106A400000231A46FFF7B6BF07B50123019201AA3A
:106A5000FFF7B0FF03B05DF804FB07B5CDE90023F5
:106A600002236A46FFF7A6FF03B05DF804FB0000AF
:106A700030B50F4CD4F8102403460020114631B92C
:106A8000D96808714AB9C4F810340A6030BDC968C1
:106A90000D79854206D00968F1E7D26814680C6068
:106AA0001360F3E701300A28E8D14FF0FF30EDE73B
:106AB000401A002038B5084B0125D3F810441D704A
:106AC00004B938BDE3685D71236820465B68984768
:106AD000E3681C68F4E700BF401A002030B5C388A3
:106AE00085B004460D4633B1144A00921449154A44
:106AF000284600F012FF217A05291DD0637A4BB198
:106B0000A088FFF733FE104B104953F82020284689
:106B100000F003FF227A0E4BA08853F82220039244
:106B20000021FFF707FE039A0A490346284605B0ED
:106B3000BDE8304000F0F1BE05B030BD80A40200D9
:106B400068A4020060A40200ECA4020085A4020074
:106B500010A5020088A4020007B503460846197A6A
:106B6000052911D05B7A2BB1094A0A49019000F03E
:106B7000D4FE01980849019000F0CFFE019803B0BF
:106B80005DF804EB00F0BEBE002AF8D0F2E700BFCB
:106B900080A4020085A402007DA402002DE9F04338
:106BA00085B01F460C9D002395F80C902B7306466C
:106BB0000C46904629463846FFF790FFB8F1060F7D
:106BC00009D8DFE808F00412181F283340003146C6
:106BD000284600F0A2FE002229463846FFF7BCFFF7
:106BE00085F80C9005B0BDE8F08322683146284650
:106BF00000F093FEEFE7D4E900233146284600F089
:106C00008CFEE8E7A36800933146D4E900232846C8
:106C100000F083FEDFE7E3680193A3680093314649
:106C2000D4E90023284600F078FED4E723690293D4
:106C3000E3680193A36800933146D4E90023284612
:106C400000F06BFEC7E76369039323690293E3686F
:106C50000193A36800933146D4E90023284600F04D
:106C60005CFEB8E708292DE9F74F80460E46174627
:106C70001C463DD800251B7B2573214610460193F9
:106C8000FFF72CFFDFF88CA0DFF88CB0AE4232D9D2
:106C900018F805205946204600F03FFE0135082D22
:106CA000F4D11B49DFF874A0DFF874B0204600F07F
:106CB00034FE4FF000094E4524D918F809507E2DB6
:106CC0001ED8284603F0B0FA002814BF2A462E2208
:106CD0005946204600F021FE09F10109B9F1080FDB
:106CE000E9D1012221463846FFF736FF019B237385
:106CF00003B0BDE8F08F5146204600F00EFECDE710
:106D00002E22E5E75146204600F007FEE4E700BFEB
:106D10009CA4020098A4020092A402009AA402007B
:106D20009EA40200C30710B507D4F023054A40080B
:106D3000145C23401943115410BD0901C9B20F233B
:106D4000F4E700BF281F002030B5094B1C78094B21
:106D5000196800239C4202DC0022104630BD11F865
:106D60003350854201EBC302F7D00133F2E700BF95
:106D7000F81E0020381F002013B504460191FFF7CC
:106D8000E3FF38B143682BB10199204602B0BDE85A
:106D90001040184702B010BD034B04481968002288
:106DA000490800F02CBA00BFFC1E0020001F002084
:106DB00010B5C0B2FFF7C8FF0446007801F064FDCB
:106DC00063785A1E53425341834208D1044BD3E99E
:106DD0000023134303D1BDE81040FFF7DDBF10BD12
:106DE000201F002037B54308374AD35CC2074CBF89
:106DF0001B0903F00F0304460D46042B25D8DFE8DA
:106E000003F003262F3C4000F9B10121FFF78AFF70
:106E100000230DF107008DF8073000F0DDFA0120A6
:106E2000A4F12003C4F12001284A20FA01F100FA5C
:106E300003F30B43A040D2E9004120430B43C2E9D6
:106E400000039DF8070000F0EBFA03B030BD002905
:106E500018BF0221204603B0BDE83040FFF762BFF3
:106E600049B10321FFF75EFF0121204603B0BDE8D1
:106E70003040FFF781BF0121ECE70029E5D1042173
:106E8000E8E709B10321E5E7FFF74CFF2946204673
:106E9000FFF772FF0DF107008DF8075000F09CFA24
:106EA0000120A4F12003C4F12001084A20FA01F1D5
:106EB00000FA03F30B43A040D2E9004124EA0000AA
:106EC00021EA0303BBE700BF281F0020201F00208A
:106ED0002DE9F041124E134F00243378A34208DC11
:106EE000114BD3E90023134318D0BDE8F041FFF75D
:106EF00053BF3D6805EBC40815F8340001F0C4FC2D
:106F000098F801305A1E53425341181A41424141E8
:106F100015F83400FFF766FF0134DEE7BDE8F081C5
:106F2000F81E0020381F0020201F0020092AF7B576
:106F300005460C4616463ED901F0DEFBE8B11F4B74
:106F40001F481D601F4B204F1C70204B002110223A
:106F50001E6003F097F91E4B00200021C3E90001D9
:106F6000013CE4B20326FF2C0DD11A4A1A48002135
:106F700003B0BDE8F04000F037B901F085FB002810
:106F8000DDD003B0F0BD9DF8063015F834008DF863
:106F9000046005EBC40223F007038DF8063001A955
:106FA00093788DF805303A4601F0B0FB013CE4B22D
:106FB0000028D8D0E5E70720E3E700BF381F00200E
:106FC000281F0020F81E0020B16D0200FC1E0020CA
:106FD000201F0020D16E020030A5020070B5084DC0
:106FE000084E00242B789C4201D3002070BD3368EA
:106FF000012113F8340001F001FC0134F2E700BF75
:10700000F81E0020381F00201FB50021039001AAA0
:1070100044F20100CDE9011100F004F805B05DF87B
:1070200004FB000038B572B6FFF744FDFFF7BEFB66
:107030000028FBD1104B114C114D1249E41AE40801
:10704000240444F00100FFF7FBFCD5F8F030DB0727
:1070500000D500BE0C4944F00200FFF7F1FCBFF37D
:107060004F8FEA68094B02F4E0621343EB60BFF311
:107070004F8F00BFFDE700BF80A30200A8A302005E
:1070800000ED00E034A5020040A502000400FA056E
:1070900010B5D0E90243D1E90202A04272EB03032A
:1070A0002CBF0120002010BD08B50A4800F0EBFA03
:1070B000094AD2E90031C018084BD3E9002341F155
:1070C0000001904271EB030303D210F1807041F193
:1070D000000108BDE4180020401F0020B81F002058
:1070E00037B505460C460A4801A900F000FB60B11F
:1070F0000570446001A9064800F023FB18B105485B
:1071000000F0C6FA002003B030BD0420FBE700BF4A
:10711000A41F0020E418002038B5184B1B78044643
:1071200013B90025284638BD0028FAD0037F03F0A4
:10713000FF05002BF5D0FFF7B7FFD4E902239042FB
:1071400071EB030314D3236903B92377D4E9053022
:10715000984721690029E4D0237F03F0FF05002B25
:10716000DFD0D4E902325B1842F10002C4E90232F6
:107170000348214600F0A9FED4E700BF481F0020C5
:107180005CA5020013B5114B114918680190082342
:107190001048582200F098FA044698B90E4A0F4851
:1071A00001A900F061F9044660B90C48012100F022
:1071B0004DFA01230A4A0948194600F0AFF9094B74
:1071C00001221A70204602B010BD00BF58A502006F
:1071D0004C1F0020A41F002049720200E418002068
:1071E000FFFF7F00481F00203AB103685A614A1E22
:1071F000514251411961002070470720704738B54E
:10720000037F04460D4683B98261FFF74DFF236972
:10721000281841F10001C4E9020103B125612146AA
:107220000020BDE83840FFF75BBF002038BD0023D9
:10723000014603770120FFF753BF0000014800F02B
:1072400022BA00BFE41800202DE9F347064600F0FB
:1072500005FA40B1584AD2E9003113F1807341F187
:107260000001C2E900310021304600F006FA38B1D1
:10727000524C236823B12068FFF74EFF00232360A0
:107280000121304600F0F9F920B1FFF70DFF4C4B1A
:10729000C3E900014B48494D4B4C4C4F01A900F04C
:1072A00060FA002842D1DFF82081444CDFF82491B5
:1072B000404600F020FE2368002872D07BB123688E
:1072C000D0E90252D3E902138D4272EB03032AD2B2
:1072D00023681B7F1BB12168404600F0F6FD404645
:1072E00000F003FED0E9027A0546FFF7DDFE381A0A
:1072F0006AEB010A01287AF1000345DBB0F5350F8E
:1073000040D3FFF79BFF324A02444FF4960300211B
:10731000484600F023F900283ED1236813B93046CF
:1073200000F0F4F8256002B0BDE8F0870378012B87
:107330001DD0022B09D14FF00008204600F0D5FDEA
:10734000002836D080F81C80F7E73BB941680B7FF6
:1073500023B901230B77204600F0B7FD01A9194896
:1073600000F02AFA01A9174800F0FBF999E74168F3
:107370002B68994202D100232B60EFE7204600F0F2
:10738000BDFDEBE7AA68C0E70021484600F06BF9B5
:107390002846FFF7C1FE01E00D28F9D00023236045
:1073A00086E7002BBFD1304602B0BDE8F04700F0C1
:1073B000B1B801233B70D1E7401F0020C01F00205F
:1073C000B81F0020A41F00205CA50200481F002059
:1073D000FFFFB400E418002070B5EFF3108672B61A
:1073E0000C4A946801239CB993600B4B0B4DD3F866
:1073F000801029401160C3F88050D3F88410516088
:107400004FF0FF32C3F88420047006B962B670BD35
:107410000370FAE7C41F002000E100E0FC06FFBD96
:10742000084B9A6810B55AB150B9EFF3108172B693
:10743000054A1C6814605C685460986001B962B6C3
:1074400010BD00BFC41F002000E100E0435882B01F
:107450003BB10023435043580193019B012002B0EC
:1074600070471846FBE70000F8B5204B4479204EE2
:1074700043F824201F4A204B06EBC4049B1A2279B0
:10748000DB081B0432B143F002001C49FFF7D8FAB5
:107490000820F8BD02680C88C2F8084590F904502D
:1074A0008A7804795201002DD2B219DB14494F19A0
:1074B00087F8002301226D0904F01F0402FA04F486
:1074C00041F82540427906EBC201012446F832001A
:1074D0000C7143F003000B49FFF7B2FA0020D8E724
:1074E000094904F00F040A55ECE700BFD81F00203B
:1074F000D01F002080A30200B8A3020068A50200EC
:1075000000E100E08AA5020014ED00E0036801221A
:107510001A607047036801225A60704773B501F121
:107520005005AD000068ADB24FF480348C400026A9
:10753000C0F80843C0F84843465101F5A8714559C1
:10754000019522F07F42019D40F82120C0F844437C
:107550000BB1C0F8044302B070BD00002DE9F74F35
:107560000D4622F07F4402684FF4803705F1500643
:107570008F408046B60002EB8500C2F84873B6B271
:10758000C2F80873D2F8041599464FF0000BD0F8F2
:107590004035C0F8401542F806B05B1A9259009287
:1075A00023F07F43012B009A4FEA850A0CD1264B2A
:1075B0004FF4806043F001039847D8F8003043F857
:1075C00006B09B590193019BD8F80010D1F80465CF
:1075D000C1F84473A31B23F07F43012B1CD11A4B2A
:1075E00005F5A875013443F0010341F825404FF437
:1075F00080609847D8F80030D3F804359E4209D10E
:10760000D8F800300020C3F84473C3F8047303B003
:10761000BDE8F08F0D20FAE78A44C9F1FF13CAF8DC
:107620004045D1F80405221A013A22F07F4203F5C1
:107630007F439342EED3002AE2D10134CAF8404599
:10764000D1F804359842DAE7A0A5020003680222C7
:10765000C3F8442309B1C3F80423704700684FF40A
:107660008271FFF7F3BE4FF4803303FA01F1036830
:10767000C3F84813C3F808137047503189000068F5
:1076800089B2FFF7E3BE0368D3F804057047000032
:1076900090F90430002B09DB5A09012103F01F0384
:1076A00001FA03F34032024941F82230704700BF2B
:1076B00000E100E0024B034A1B681068184700BF56
:1076C000D81F0020D01F002010B561B1B2FBF3F429
:1076D00003FB1424A4B244B9C0E90014846082817D
:1076E000C381204610BD0E20FCE70920FAE737B51C
:1076F00050E8013F9DB2C48925448489A54228BF32
:107700002D1B0489A54202BFBFF32F8F002207E083
:10771000C5EA030540E80154002CE9D14FF001020D
:107720008DF803200193019A0A609DF8031001F07F
:10773000FF0321B1006810FA82F003B030BD184693
:10774000FBE70A884B889A4209D150E8012FC2EA28
:10775000024240E80123002BF7D1012070470020AE
:10776000704737B550E8023F1FFAA3F5C488A54219
:1077700002BFBFF32F8F00220DE0C4892544848906
:10778000A54228BF2D1BC3EA054540E80254002C42
:10779000E8D14FF001028DF803200193019A0A60AD
:1077A0009DF8031001F0FF0321B1006800EB1240C7
:1077B00003B030BD1846FBE70A884B889A4209D1CE
:1077C00050E8022FC2EA224240E80223002BF7D100
:1077D000012070470020704710B5034653E8000FA2
:1077E0000A4643E8002494F0000FF7D110BD10B50D
:1077F000034653E8002F42EA010043E8000494F0F6
:10780000000FF6D110BD10B5034653E8000F00EA93
:10781000010243E8002494F0000FF6D110BD10B52A
:10782000034653E8002F02EB010043E8000494F004
:10783000000FF6D110BD10B5034653E8002FA2EBA0
:10784000010043E8000494F0000FF6D110BD0121BF
:10785000FFF7CDBF0021FFF7D6BF10B590B1D0E93B
:10786000012301689B1ADBB20A60013BDBB2FF2BEC
:10787000026802D10020107110BD11684C1C146008
:107880000B70F2E70E20F7E737B5054600240DF13F
:1078900007008DF80740FFF79FFD2A686B681168A5
:1078A00099420ED9481E106011F8013CEC68298AF3
:1078B00001FB0344AB6811791B1ADBB2994238BF54
:1078C00013719DF80700FFF7ABFD204603B030BDF4
:1078D00037B5054600230DF107000C468DF807303B
:1078E000FFF77AFD2A681368591C1160E968641A69
:1078F000298AB4FBF1F41C709DF80700FFF790FD96
:1079000003B030BD826810B504462AB143690168EE
:10791000006998470023A36010BD0EB403B5039916
:1079200021B104AB01AA019300F076F802B05DF832
:1079300004EB03B070470A2938B504460D4602D15E
:107940000D21FFF7F8FFA3682268591CA160D554E8
:10795000D4E901329A4204D32046BDE83840FFF70B
:10796000D1BF38BD2DE9F84F9846DDE90A431546E9
:1079700082460F460A464FF00109AA420FD2C1457E
:1079800038BFC14613F0010B01D16CB900240126A8
:10799000B8F1010F1BD908F1FF386E43F8E709F180
:1079A0000109B2FBF5F2E8E79B070ED5B8F1000F2D
:1079B0000CBF30262026A145E9D2013C3146504675
:1079C000FFF7B9FF002CF6D1E0E72026F3E7B7FB7D
:1079D000F6F39D42E1D9DFF83C80B7FBF6F3504661
:1079E00018F8031006FB1377FFF7A5FF3346AB42E9
:1079F000B6FBF5F6F1D2BBF1000F02D00CB1A145F8
:107A000001D3BDE8F88F20215046013CFFF793FFDA
:107A1000F4E700BFA6A502002DE9F74F054617467B
:107A20008846002900F03E8118F8011B49B92B7BDC
:107A3000002B00F03781284603B0BDE8F04FFFF778
:107A400061BF252940F0B780002698F800302D2B23
:107A5000424608F1010823D0302B24D02B2B25D00F
:107A600000242A2B02F1010123D13B681A1D1B6857
:107A70003A601C440A4613782E2B26D101324FF06F
:107A8000000A104610F8011BA1F1300CBCF1090FDF
:107A90001DD80A2303FB0A13A3F1300A0246F0E7BC
:107AA00046F00106D1E746F00206CEE746F00406AE
:107AB000CBE711F8013CA3F130000928DBD80A22FA
:107AC00002FB0434303C0A46CBE74FF0000A12F8C0
:107AD000011B01F0FB0068289046F8D0782909D8EE
:107AE0006F290CD8632962D022D8252963D0582960
:107AF00000F0888098F80030002B95D197E7703916
:107B00000829F7D801A353F821F000BF7F7C0200B9
:107B1000F57A0200F57A0200157C0200F57A02007F
:107B2000F37B0200F57A0200F57A0200057C020080
:107B3000642901D06929DDD13A68D2F80090111D7D
:107B400089EAE9723960A2EBE9724FF0010B092A68
:107B500035DCD34538BFD3462CB1B9F1000F01DB7A
:107B6000720700D5013CB30702D5BAF1000F03D06C
:107B7000F00701D44CBB0024B9F1000F2DDAC9F194
:107B800000092D212846FFF7D6FE06F00302022A3F
:107B900004D1BAF1000F01D11CBB0024CDE900468D
:107BA00053460A2249462846FFF7DCFEA2E73B6817
:107BB0001A1D19783A602846FFF7BDFE9AE70A2396
:107BC0000BF1010BB2FBF3F2C1E7A345D4D22021A4
:107BD0002846013CFFF7AFFECCE77107D5D52B2136
:107BE000D0E7A345DAD230212846013CFFF7A3FEB7
:107BF000D2E73968CDE900460A1D3A6053460A22A9
:107C00000968D0E739680A1D3A60CDE90046534655
:107C10001022F5E73B681A1D3A6016F00106D3F80A
:107C2000009024D1B9F1000F03D0484602F05DFB6B
:107C30000646B4421DD809F1FF3919F8011F002981
:107C40003FF458AF2846FFF776FEF6E728460136A0
:107C5000FFF771FE19F806100029F7D1A642BFF40C
:107C600049AF20212846013CFFF765FEF6E70026D4
:107C7000F0E720212846013CFFF75DFED9E73B688D
:107C80001A1D3A60302128461C68FFF754FE7821FF
:107C90002846FFF750FE00220823CDE90032214696
:107CA000102280E703B0BDE8F08F00BF2DE9F84F48
:107CB000B0F806A04579D2F800B09DF828900AFBEC
:107CC00005F5043D88460BEB0301A94203F10404CA
:107CD00088BFA5EB030BB4FBFAF607460AFB164474
:107CE000C2F800B04EB9AAEB04055D4528BF5D4659
:107CF000BBF1000F04D1BDE8F88F3F68013EF1E70A
:107D0000043408EB06003C442A46B9F1000F0DD0BC
:107D10002146ABEB050B02F08CFADA452E443F68A6
:107D200055464FF0000428BF5D46E1E70146204676
:107D3000EFE7FFF792BDF8B546790146721E05469A
:107D4000002393422D6803D30024A64202D8F8BD35
:107D50000133F6E70F682846FFF7BAFD01343946CC
:107D6000F3E72DE9F843068ACD1C0746FFF78CFDA3
:107D7000043E35440446B5FBF6F5F0B14FF480738C
:107D8000EDB28380C680013D076081464FF0000858
:107D9000A84512D23846FFF777FD064648B1637909
:107DA0000133637108F10108C9F8000007608146DA
:107DB000EEE72046FFF7BFFF34462046BDE8F883D4
:107DC00001210430FFF72BBD10B50121044604301A
:107DD000FFF731FDC0B220B92046BDE81040FFF7E3
:107DE000AABF10BD1FB503920022009203AAFFF79D
:107DF0005DFF05B05DF804FB1FB503920122009200
:107E000003AAFFF753FF05B05DF804FB41DF70479D
:107E1000064B10B500241C70054B1C60BFF35F8F30
:107E20000449054800F03BF8204610BDE41F00203F
:107E3000E81F0020C0A50200DC1F002007B50023BA
:107E40000DF107008DF80730FFF7C6FAF1EE103A92
:107E500023F09F03E1EE103ABFF35F8F0A4B4022FD
:107E6000C3F884219DF80700FFF7DAFA01F0C6FF96
:107E700020B103B05DF804EBFFF7C8BF20BF40BFDF
:107E800020BF03B05DF804FB00E100E0836800223E
:107E90005A60C3E904229A60DA601A6070470B687E
:107EA0004A684360934208BF0023016008BF4360F3
:107EB0007047436843B10268916852680B4493422B
:107EC000436004BF00234360704770B544680646B2
:107ED0000D46206818B1B3682946984718B9236839
:107EE0002B60256070BD2468F3E74368186808B10B
:107EF00002681A60704743681868704743681868DA
:107F000000B97047884203D102681A6001207047A7
:107F100003460068F4E7000010B50D49A1F594721E
:107F2000914201D800200FE08C1AE30F03EBE40329
:107F30005B1002EBC30452F83330834205D802D2FF
:107F400004F10802ECE7606810BD2146E8E700BFD5
:107F5000CCAA020008B5FFF7DFFF024B002808BFDC
:107F6000184608BD8FA902004FF08052D2F8303178
:107F7000591C09BF4FF07042D2F83401D2F8E80F13
:107F800092F8E03F08BFC0F30310062B05D1033879
:107F900003288CBF0020012070470020704700009C
:107FA0004FF0704393F8E02F062A09D1D3F8E83F49
:107FB000C3F30313033B032B02D8024AD05C704780
:107FC00000207047D4AA020008B5FFF7CDFF40B1EA
:107FD0004FF080538F4AD3F82433C3F30423C2F8FD
:107FE0004035FFF7DDFF10B18B4B8C4A5A67FFF726
:107FF000BBFF48B14FF080534FF08042D3F844327A
:10800000C3F34233C2F83C35FFF7CAFF30B1844AAC
:10801000D2F8FC3023F08073C2F8FC30FFF7A4FFE5
:1080200040B14FF080430022C3F80C21C3F8102167
:10803000C3F83825FFF7B4FF20B14FF08043032287
:10804000C3F8A025FFF7ACFF60B1764B0522C3F85B
:1080500010260122C3F888260022C3F818263F22E2
:10806000C3F814264FF08053D3F83021511C09BFB8
:108070004FF07043D3F8343193F8E02FD3F8E83F52
:1080800008BFC3F30313062A4DD1033B032B4AD881
:10809000654AD35C002B46D04FF08052634BD2F838
:1080A0000414C3F82015D2F80814C3F82415D2F824
:1080B0000C14C3F82815D2F81014C3F82C15D2F8F4
:1080C0001414C3F83015D2F81814C3F83415D2F8C4
:1080D0001C14C3F84015D2F82014C3F84415D2F884
:1080E0002414C3F84815D2F82814C3F84C15D2F854
:1080F0002C14C3F85015D2F83014C3F85415D2F824
:108100003414C3F86015D2F83814C3F86415D2F8E3
:108110003C14C3F86815D2F84014C3F86C15D2F8B3
:108120004424C3F87025FFF71FFF48B14FF0805378
:108130004FF08042D3F8583203F04F03C2F8E43EC8
:10814000FFF712FF48B14FF08043D3F80024D20765
:1081500044BF6FF00102C3F800244FF08053D3F8FE
:108160003021062A0ED1D3F83431033B032B09D832
:108170002F4AD35C33B12F4AD2F83C3743F48063A3
:10818000C2F83C37264AD2F8883043F47003C2F86C
:108190008830BFF34F8FBFF36F8F4FF01023D3F8AA
:1081A0000022002A03DBD3F80432002B2EDA224B04
:1081B0000122C3F80425D3F80024002AFBD04FF095
:1081C00010221521C2F80012D3F80024002AFBD097
:1081D0004FF010231522C3F80422174BD3F80024C4
:1081E000002AFBD00022C3F80425D3F80024002A7B
:1081F000FBD0BFF34F8F0A49104BCA6802F4E0620C
:108200001343CB60BFF34F8F00BFFDE70C4B0D4A0C
:108210001A6008BD0030014000C007400DF0ADBA43
:1082200000ED00E000500040CCAA020000C0004079
:10823000D0AA02000010004000E001400400FA054E
:10824000EC1800200090D003054A4FF0A043105CCA
:10825000D3F8043523FA00F0C04300F00100704762
:10826000D8AA0200044B1A5C012393404FF0A042AD
:10827000C2F80C35704700BFD8AA0200044B1A5C44
:10828000012393404FF0A042C2F80835704700BF69
:10829000D8AA020008B50020FFF7F0FF0120FFF781
:1082A000EDFF0220FFF7EAFFBDE808400320FFF7DB
:1082B000E5BF08B50020FFF7D5FF0120FFF7D2FF8B
:1082C0000220FFF7CFFFBDE808400320FFF7CABF39
:1082D000074A4FF0A041105CD1F8043501228240DA
:1082E00022EA03001340C1F80805C1F80C357047B5
:1082F000D8AA02000D2809D00E2809D00F2809D0CD
:1083000010280CBF03204FF0FF307047002070474B
:10831000012070470220704708B5830715D54FF03C
:10832000A0410323C1F84437C1F84837C1F84C379E
:10833000C1F85037FFF7AEFF0C23C1F83437C1F84E
:108340003837C1F83C37C1F8403708BD38B5074C5D
:10835000051E04F1080318BF1C4623682BB11A68D8
:1083600022605B6828469847F7E738BDF41F002075
:1083700020B9054B01225A70FFF7E8BF012802D14E
:10838000014A9070F8E77047EC1F002020B9034BBA
:1083900001225A70FFF7DABF704700BFEC1F0020C0
:1083A00038B50E4C2378B3B90D486360A3602361E0
:1083B000E36000F0E7F8054601F020FD08B900F0A1
:1083C000EDF801232370074BD3F800340BB10123E0
:1083D000A370284638BD8525F5E700BFEC1F0020B7
:1083E000718302000000014037B50D4C00230DF1F0
:1083F00007008DF80730FEF7EFFFE368013BE3600D
:10840000E36833B9074BD3F8005415B900F0D8F836
:10841000A5709DF80700FFF703F803B030BD00BF5B
:10842000EC1F002000000140012813B50CD00328E8
:1084300020D038B9134B0122C3F88020BFF34F8FEF
:10844000BFF36F8F02B010BD0F4C00230DF107007A
:108450008DF80730FEF7C0FF23780BB9FFF7A0FFB8
:10846000E3689DF807000133E3600123A370FEF782
:10847000D7FFE7E700F092F802B0BDE81040FFF741
:10848000B3BF00BF00E100E0EC1F00201FB5037880
:108490008DF800304368019383688DF80830C36815
:1084A000054A0393054B684653F8213052F82110D2
:1084B000984705B05DF804FB002000200420002050
:1084C0001FB503788DF800304368019383688DF8F9
:1084D0000830C368054A0393054B684653F82130BA
:1084E00052F82110984705B05DF804FB00200020E9
:1084F00004200020F0B5194B90F800C091F81DE061
:1085000043F82C20164B16460A6943F82C20154BCD
:1085100003F80CE00C4607460FCC89B06D460FC53A
:1085200094E80F0085E80F00CDF810C0BEF1000FF1
:1085300009D0002E0C4A694608BF3246381D00F0AB
:1085400083FD09B0F0BD002E084A694608BF3246D7
:1085500007F10C0000F05AFBF3E700BF04200020F5
:1085600000200020082000208D840200C184020029
:1085700000F18040002382B0036003680193019BF7
:1085800002B07047044A137923B901211060918029
:1085900018467047852070470C200020074B1A684A
:1085A000D20704D4C02283F8002301221A604FF0BE
:1085B00080430122C3F81825704700BF00E100E0A6
:1085C0004FF0804208B50223C2F808334FF482709E
:1085D000FFF7CEFF0123D360D2F81834DB03FBD4BE
:1085E00008BD00004FF0804110B5D1F8003163B1F3
:1085F0004FF48070FFF7BCFF0D4B58790122C1F892
:10860000082310B95A711B6898474FF08042D2F87E
:10861000043163B14FF48270FFF7AAFF0223C2F85E
:108620000833034BBDE810401B680120184710BDFC
:108630000C20002000F1804000F5C040002382B0F3
:10864000036003680193019B02B07047800000F152
:10865000A040D0F8002722F44032C0F80027D0F81C
:10866000003743EA0141C0F800177047054B4FF04F
:10867000FF32072843F8202084BFC01880F8482024
:10868000704700BF1420002010B5184991F85830E9
:1086900053BB4FF0FF3222FA03F0C00748BFC8189F
:1086A00003F1010348BF80F83020202BF3D10024D0
:1086B000E0B20134FFF7DAFF0C2CF9D10C4B0022A9
:1086C000C0204A6583F80603402018604FF4BE704E
:1086D000FFF7B0FF074B4FF00040C3F8040301233E
:1086E00081F85830104610BD0820FCE71420002007
:1086F00000E100E000600040034B93F858000038B0
:1087000018BF0120704700BF14200020F0B5394E7B
:10871000331893F93030002B69DA8D78C5F34005B2
:10872000002D0BBF082300230C240824A34201D1F1
:108730000420F0BD56F82370013743D137185CB2DE
:1087400046F8232087F8304015B9F21882F848001F
:108750008A78550716D4D70736D5820002F1A04291
:10876000D2F8005725F00205C2F80057224FC5087D
:1087700000F0070C012202FA0CF217F805C042EAD9
:108780000C027A558A780D7812F0020225D09B00EF
:1087900003F1804303F5C0430002D3F8102522F40F
:1087A000473222F44072C3F810252D04D3F8102567
:1087B00000F4F85005F4403528431043C3F8100581
:1087C0000020B6E70133B1E74D7800F5E0724FF0D5
:1087D000A047AD0047F82250C8E7083C46FA84F4A9
:1087E00094F8500040EA851584F85050E8E70820D6
:1087F0009FE700BF142000206820002038B5204CDF
:10880000251895F93020072A18DD083A44FA82F431
:1088100094F850309B09032B0BD14FF0A043D3F8B1
:108820001015C14001F001010231BDE83840FFF7E9
:108830000DBF012B0CBF02210321F6E7D3B2072B9A
:108840001DD8930003F1804303F5C043D3F810050E
:1088500040F00100C3F8100502F1400040B2800072
:1088600080B2FFF7E7FE51B195F9303054F823306C
:108870002BB1012303FA02F2024BC3F8042338BDE3
:1088800014200020006000404FF0A043D3F81035C2
:1088900023FA00F000F00100704700002DE9F74FC7
:1088A00000244E4D01944FF48072012102F1804367
:1088B00003F5C04390B21B68012B06D1D5F80433F1
:1088C0000B4202D0FFF7B6FE0C430432B2F5907FA4
:1088D0004FEA4101EAD1414BD3F87C31012B0CD155
:1088E0004FF4BE70FFF7A6FE4FF0A04344F00044E3
:1088F000D3F820250192C3F82025E3B2D3B1384F35
:1089000000250126344210D0AB0003F1804303F56B
:10891000C043D3F81005D3F8101557F8253023B10C
:10892000C1F30141C0F3042098470135082D4FEAF7
:108930004606E7D1002C48DA294D4FF0A048294ED1
:108940004FF00009012716F9013B5A1C31D0C3F33F
:10895000C20202A90A44DCB212F8042C03F03F0A56
:1089600003F0070307FA03F31A4222D00AF5E07373
:10897000504658F82330C3F3014BBBF1020F0CBF34
:1089800003210221FFF762FE07FA0AF3C8F8203537
:1089900005EB0A0393F9303055F823304BB1A109A8
:1089A000032904D0BBF1020F12D1012901D1504695
:1089B000984709F10109B9F1040FC4D1D8F820355D
:1089C0000193C8F82035002BB9D103B0BDE8F08F72
:1089D000BBF1030FEDD10229E8E700BF00600040C2
:1089E0001420002064200020014B1B68184700BFA2
:1089F000702000200E4B984237B50C4602D0002064
:108A000003B030BD00230DF107008DF80730FEF7ED
:108A1000E3FC084B1D7915B901221C601A719DF801
:108A20000700FEF7FDFC002DE9D01120E8E700BFAC
:108A30000020004070200020034B984201BF034BF0
:108A400000221A601A717047002000407020002038
:108A50000023435082B043580193019B02B07047FA
:108A60000A4610B54FF48E71FFF7F2FF136A916852
:108A7000C95C136A01331362C0F81C1510BD8B6901
:108A80000A4610B54FF4847123B9FFF7E1FFD0F81F
:108A9000183510BDFFF7DCFF536AD168D0F8180510
:108AA000C854536A01335362F3E700001FB5012332
:108AB0008DF80030044BCDE90110D3E9001268466F
:108AC000904705B05DF804FB7820002030B54D4D8F
:108AD000D5F804339A0585B051D5D5F82431002B4B
:108AE0004DD04FF492712846FFF7B2FF4FF4017357
:108AF000C5F80833444B93F829200AB901226A606B
:108B0000404902228DF80020D1F88024C1F8802449
:108B100003929A690292DA6801920022C3E906225E
:108B20006846D3E9001290473648D0F81C315BB153
:108B3000354A5169136A99424DD992F82830002B71
:108B400049D11146FFF78CFF2E48D0F84431002B55
:108B500056D04FF4A271FFF77BFF2B4B93F82920DF
:108B60000AB1012202609A69002A49D0586AD9687C
:108B700000229A6105B0BDE83040FFF797BFD5F8F5
:108B800004335B07D0D5D5F80831002BCCD01E4C70
:108B90001C482146FFF773FF636AA2699A42C3D15A
:108BA000E369E1684BB1A3612369E3600023606A74
:108BB000E3616362FFF77AFFB6E794F829300BB9F7
:108BC00001236B600F4B4FF40172C3F8082300239D
:108BD000606AA361EEE70B484FF48E71FFF738FF30
:108BE0005369002BB0D051690291002391688DF830
:108BF0000030019153616846D2E900139847A3E71A
:108C000005B030BD00200040782000202DE9F84359
:108C1000534D90F804802C2303FB0853064693F829
:108C20002A300C469146002B40F096804D49006852
:108C3000FFF7E0FE0746002840F090802268306889
:108C4000511C0BD04FF0A04101239340C1F80835CF
:108C500002F5E0734FF0030C41F823C061684B1C30
:108C60001FBF01F5E0734FF0A04C4FF0000E4CF821
:108C700023E0A369C0F8243594F814C0637DBCF1E7
:108C8000010F4CEA0303C0F86C35C0F81415C0F8A6
:108C90000C251DD1A268531C1FBF02F5E0734FF0D5
:108CA000A0414FF0000C41F823C0E368591C0BD0E1
:108CB0004FF0A04C01219940CCF8081503F5E07164
:108CC0004FF0030E4CF821E0C0F80835C0F810252D
:108CD0002C2202FB08F2AB18C3F804902369AB50B6
:108CE000B9F1000F20D04FF48E71247FFFF7B0FE52
:108CF0004FF4A2713068FFF7ABFE32681A4BC2F82E
:108D00000433130B42F307326101002AC9B21EDBA0
:108D10001648841884F800130121520903F01F0338
:108D200001FA03F340F8223033680422C3F8002527
:108D30002C2303FB08530022C3E9062283F82920D1
:108D40005A61012283F82A203846BDE8F883084A90
:108D500003F00F03D154E7E70827F5E71127F3E7FE
:108D600078200020CD8A02008000020000E100E0AF
:108D700014ED00E0F8B503680579304C0022C3F823
:108D800000252C2202FB05425268A2B12C4AC3F8EE
:108D900008231A0B43F30733002B0CDB02F01F01EF
:108DA0005B0901228A402033264941F82320BFF382
:108DB0004F8FBFF36F8F0068D0F80C65D0F8141593
:108DC000D0F80835D0F810254FF0FF37BE42C0F874
:108DD000147518BF06F5E076C0F80C75C0F8087574
:108DE000C0F810751EBF4FF0A0474FF0020C47F8B7
:108DF00026C04E1C1FBF4FF0A04601F5E0710227B0
:108E000046F82170511C1FBF4FF0A04102F5E072DF
:108E1000022641F822605A1C1FBF03F5E0734FF091
:108E2000A042022142F82310FFF706FE2C2303FB89
:108E30000544002384F82A306360F8BD78200020C0
:108E40008402020000E100E00279044B2C2101FBC6
:108E500002335869003818BF01207047782000207D
:108E60002DE9F84F064690F8048089469246FFF7B0
:108E7000EBFF044600283CD1204F2C2508FB057B46
:108E80004FF48E71CBF814A0CBF80890CBF82000EB
:108E90008BF828003068FFF7DBFD30680123836022
:108EA0005946FFF7DDFDDBF804305D461BBB30683B
:108EB000DBF814402B6A9C4211D83368D3F81C218C
:108EC000002AFBD00122DA6000202C2303FB087764
:108ED00000237B61BDE8F88F95F828303BB9D0F8C6
:108EE0001C31002BF8D05946FFF7BAFDE2E70F20FE
:108EF000EBE71120EEE72046ECE700BF78200020EA
:108F00000023435082B043580193019B02B0704745
:108F10001FB501238DF80030044BCDE90110D3E9D2
:108F200000126846904705B05DF804FBA4200020BD
:108F30007FB5434AD2F82461002E60D010464FF42A
:108F40009271FFF7DDFF02238DF80030D2F88034F4
:108F5000C2F880340393D2F83C350293394BDA6877
:108F600001920022C3E906226846D3E90012904725
:108F70003348D0F8443173B14FF4A271FFF7C0FF0A
:108F8000304B9A693AB10022C3E90622D968D0F879
:108F90003C05FFF7BDFF2A48D0F82031ABB14FF4B4
:108FA0009071FFF7ADFF0123C360264B5A6962B190
:108FB000D0F84C150291002299688DF8002001919B
:108FC0005A616846D3E9001290471D48D0F85831DD
:108FD0009BB14FF4AC71FFF793FF1A4B5A6962B122
:108FE000D0F84C150291002299688DF8002001916B
:108FF0005A616846D3E90012904704B070BDD2F8B8
:109000001031002BB4D04FF488711046FFF778FF71
:109010000C4BD2F83C0599698842A9D1DC69D96822
:1090200064B1D2F8005225F02005C2F800521A6946
:109030009C61DA60DE61FFF76BFF99E79C61FAE7FC
:1090400000200040A42000202DE9F8435A4E90F85B
:109050000480242303FB0863044693F820300D4664
:109060009146002B40F0A38054490068FFF7C2FCF2
:109070000746002840F09D802A682068511C0BD0CC
:109080004FF0A04101239340C1F8083502F5E07389
:109090004FF0030C41F823C069684B1C1FBF01F55A
:1090A000E0734FF0A04C4FF0000E4CF823E0AB699A
:1090B000C0F8243595F814C06B7DBCF1010F4CEA63
:1090C0000303C0F86C35C0F80C25C0F814151DD189
:1090D000AA68531C1FBF02F5E0734FF0A0414FF088
:1090E000000C41F823C0EB68591C0BD04FF0A04C8A
:1090F00001219940CCF8081503F5E0714FF0030EFB
:109100004CF821E0C0F80835C0F81025242202FBF5
:1091100008F2B318C3F804902B69B350B9F1000FEB
:109120002FD04FF488712A7FFFF7EAFE20684FF4B2
:109130009071FFF7E5FE20684FF49271FFF7E0FEB3
:1091400020684FF4A271FFF7DBFE4FF4AC7120688A
:10915000FFF7D6FE23681A49C3F80413190B43F32B
:1091600007335201002BD2B21CDB1648C51885F814
:10917000002301225B0901F01F0102FA01F140F80E
:10918000231023680822C3F80025242303FB086664
:109190000023C6E906337361012386F82030384680
:1091A000BDE8F883084B01F00F015A54E9E708279E
:1091B000F5E71127F3E700BFA4200020318F02005C
:1091C0001003420000E100E014ED00E0F8B5444C6B
:1091D0000579242303FB054302465B680068ABB1B5
:1091E000404BC0F8083340F30733002B4FEA1031EF
:1091F0000CDB01F01F065B090121B14020333A4E20
:1092000046F82310BFF34F8FBFF36F8FD0F80032B3
:1092100023F02003C0F80032242303FB05439B699D
:109220002BB14FF4A271FFF76BFE012343604FF4A3
:10923000AC71FFF765FE0123C360242303FB0543E4
:10924000D0F858110029FBD0996919B1D0F8441110
:109250000029F5D00023C0F800351368D3F80C7549
:10926000D3F81465D3F80825D3F810154FF0FF3C58
:109270006745C3F80CC518BF07F5E077C3F814C5F8
:10928000C3F808C5C3F810C51EBF4FF0A0434FF088
:10929000020C43F827C0771C1FBF4FF0A04306F510
:1092A000E076022743F826704E1C1FBF01F5E071DF
:1092B0004FF0A043022643F82160531C1FBF4FF01C
:1092C000A04302F5E072022143F82210FFF7B4FB3D
:1092D000242303FB0544002384F820306360F8BD99
:1092E000A42000201003420000E100E00279044BBA
:1092F000242101FB02335869003818BF0120704750
:10930000A420002001F06043B3F1005F2DE9F04795
:109310000646884692463BD190F80490FFF7E6FF58
:109320000446002836D11D4F3068242505FB0975F9
:109330004FF49071C5F814A0C5F80880FFF7E0FD60
:109340004FF4AC713068FFF7DBFD33686A69A968D8
:10935000C3F84415C3F8482501229A606A68DAB94F
:10936000D3F82021D3F858011AB90028F8D00F20DB
:1093700007E00028FBD10122DA60D3F85821002A47
:10938000FBD0242303FB097700237B61BDE8F08732
:109390001020FBE71120F9E72046F7E7A420002082
:1093A0000220FEF795BF00002DE9F04780460D46EC
:1093B000FEF7A0FF0328044610D8012D10D0022D7F
:1093C00030D05DB91A48FDF732FF1A4B04EB440266
:1093D00013449D78184B1B5DAB4219D0BDE8F08754
:1093E000144E00EB4003F218F55C5378470053B17C
:1093F000DFF84C900E484A464FF48041FDF7FFFEDF
:1094000008B989F8008027443E440B4BB2781A55BE
:10941000002DE3D0094B1B68002BDFD02846BDE8A8
:10942000F047184700EB4004024804446578EFE732
:10943000F02000203021002049210020442100207C
:10944000C820002000780221FFF7AEBF08B5094B05
:109450001B7853B10020FEF711FF0120FEF70EFF2D
:10946000BDE808400320FEF709BFBDE80840FEF74D
:1094700011BF00BFC9200020F8B57A4C23780546FB
:109480001BB100232370FFF7E1FF172D00F2878047
:10949000DFE805F00C1717425364757F878C878CC3
:1094A000949999999999C3C8D0D8E3E3FFF7CEFF6F
:1094B0006D48FDF7BCFE6D4B002204461A70204635
:1094C000F8BD0020FEF7C0FEF0B10020FEF7D6FE8A
:1094D000022D0CBF4FF4E1644FF47A64634B1D70AE
:1094E00000254FF400464FF47A7029464FF4FA6293
:1094F0000023E4FB060100F0D7FD2A460146BDE843
:10950000F8405948FDF77BBEFEF7ACFE022D0CBFBC
:10951000C8244FF4C874E1E70020FEF795FE40B17F
:109520000020FEF7ABFE4FF44874504B03221A7034
:10953000D6E7FEF797FEC824F7E70020FEF784FE83
:1095400038B10020FEF79AFE4FF47A64474B0422AC
:10955000EDE7FEF787FE4FF4C874F7E70020FEF74B
:1095600073FE48B10020FEF789FE404B05221A70B9
:1095700040F6CD410022C2E7FEF774FEF5E7002079
:10958000FEF7A6FE394B06221A70002240F26661F1
:10959000B5E70020FEF766FE344B07221A70002460
:1095A0008DE701202070FEF793FEEEE7012020708A
:1095B000FEF78EFE00224FF40051A0E7FEF779FE81
:1095C0002A4B0C22EAE72A482A4EFDF730FED5F155
:1095D000110504461CD0D8B9012D13D0C82045432D
:1095E00021464FF400474FF47A704FF4FA6200239B
:1095F000C5FB070100F058FD224601461C48FDF757
:10960000FEFD04460220FEF72DFE0123337056E7CF
:109610000220FEF733FE0023F8E7FFF717FF134B96
:109620001222BBE7FFF712FF0020FEF71BFE0F4BD5
:109630001322B3E7FFF70AFF0120FEF713FE0B4BDF
:109640001422ABE7FFF702FF0020FEF70BFE01201C
:10965000FEF708FE054B1522A0E7FEF72AFE034B96
:109660001D709CE74021002010210020482100208F
:10967000D0200020C9200020044B1B689B0703D585
:10968000034B1878FFF7F8BE704700BF3C2100205D
:1096900048210020044B1B6813F0020301D0FFF7A0
:1096A000EBBE1846704700BF3C2100201B4B10B595
:1096B00018601B4B10F0020419601ED0194B1A4899
:1096C0000E221A700F22DA7010229A7111225A7229
:1096D000042140F23332FDF729FC044648B9FDF776
:1096E0007DFC044628B90146104A1148FDF77CFD6F
:1096F00004460220FEF710FE0CB1204610BD2146A4
:109700000C4A0D48FDF770FD04460028F5D1BDE870
:1097100010400A4A0A480121FDF766BD3C2100209D
:10972000442100203021002000AB020045940200BB
:1097300024AB02007996020028AB0200A19302003C
:1097400020AB020072DF704773DF704700B54FF443
:10975000804193B00020FCF7D9FF08B1FDF754FC1D
:10976000FCF712FFFDF70EFD08B1FDF74DFC0021DF
:109770000220FFF79BFF08B1FDF746FCFEF748FB10
:1097800008B1FDF741FC00F0FBFA08B1FDF73CFC25
:10979000002303A90120039300F07EFB08B1FDF72D
:1097A00033FC03A800F012FC08B1FDF72DFC40F6D5
:1097B0006323ADF80030244B02933C221723002191
:1097C00003A8ADF8043000F05DFD04238DF80F30E0
:1097D0001E4BCDF830D018220021184600F052FD63
:1097E00005220270A0228260194A03A852F8041BC5
:1097F00000F0B2F808B1FDF707FC144A1449154807
:10980000FFF7A0FF08B1FDF7FFFB134B1348144906
:10981000C01AC008000440F00300FDF711F90D4B19
:1098200001211878FFF790FF08B1FDF7EDFB02204A
:10983000FFF730FF08B1FDF7E7FBFCF7B7FF0028A3
:10984000FBD1FEF7FBFAF8E70119002050210020B8
:10985000F01800200019002080A30200A8A3020035
:109860002CAB02006DDF704779DF70477DDF7047FA
:1098700064DF70472DE9F04F85B000250E9CBDF8E0
:109880003CB0B4F800A00191074690461E46A94698
:109890003A884A450DDC45B12388013BA3EB0A0316
:1098A0009BB2FF2B3AD806F80A30002005B0BDE87D
:1098B000F08F7A6852F82900039000220DF10B0115
:1098C00003A8FFF7D5FF0028F0D19DF80B204245F3
:1098D00021D12288002D14BF0020022002EB0801B4
:1098E000014459451ADC3DB9013292B2019B2280F4
:1098F000B35422880132228022880DF10B013244B8
:1099000003A8FFF7B5FF0028D0D121889DF80B20D0
:109910000A442280012509F10109B9E70C20C5E7B5
:109920002DE9F341089FBDF824801546CDE9007864
:10993000022204461E46FFF79DFF50B9334610220F
:1099400029462046CDE9087802B0BDE8F041FFF78E
:1099500091BF02B0BDE8F0812DE9F04F00231788D8
:10996000138090F82D3085B006460D4614465BB343
:10997000082F01D80C2028E102A8FFF773FF002868
:1099800040F023812388DDF809100822EA54238857
:1099900001339BB21B222380EA54238801339BB2FC
:1099A000EA182380E950BDF80D30938023889DF894
:1099B000082006339BB212F0FE0218BF012223805A
:1099C000EA54238801332380B378FBB1238804331E
:1099D000BB42CFD802A8FFF747FF002840F0F58030
:1099E00023880322EA54238801339BB2192223805F
:1099F000EA542388BDF8082001339BB2E91823807C
:109A0000EA54120A4A70238802332380F2789AB10A
:109A10002388D91CB942ADD80221E95423880133E7
:109A20009BB201212380E95423880B449BB22380FD
:109A3000EA5423880B4423807268AAB12388D91C76
:109A4000B94297D8022192F90020E95423880133C2
:109A50009BB20A212380E954238801339BB22380DF
:109A6000EA542388013323803389002B40F0A180FE
:109A7000338A5BB1CDE900472B460722032106F16B
:109A80001000FFF74DFF002840F09F80338B5BB143
:109A9000CDE900472B461522142106F11800FFF7E7
:109AA0003FFF002840F09180326A002A40F0908009
:109AB000D6F82480B8F1000F30D0B8F804302188EF
:109AC000981C8A1C0244BA423FF654AFFE283FF667
:109AD00051AF03336B54238801339BB2FF222380A1
:109AE000EA54238801339BB22380B8F80020EA545B
:109AF000E918120A4A702088023080B22080B8F833
:109B000004205AB1D8F8081000296BD0284400F07E
:109B100090FB2388B8F804201344238096F82C3057
:109B2000002B40F09880307800284ED03388012BED
:109B300058D0228802F1020CBC453FF61BAF012829
:109B400005D17378023313449F42FFF413AF023FF1
:109B5000BF1ABFB202A905EB0C00ADF80870FFF701
:109B600085FE90BB3178BDF80830022900F0B9803D
:109B700072789A4202D39F4280F0B180012940F06E
:109B8000B280974293B2C0F0AE80ADF808300821A1
:109B9000BDF80830FE2B3FF6EDAE22880133AB5402
:109BA0002288013292B22280A95422881344238051
:109BB0000BE0CDE900472B460622022106F1080002
:109BC000FFF7AEFE00283FF453AF05B0BDE8F08FBD
:109BD000B4F800C00CF10603BB423FF6CBAE1188CF
:109BE000052901D80720F0E76FF4486E01EB0E035A
:109BF0009BB24FF27D3E7345F4D95388052BF1D9C2
:109C00006FF44860181880B27045EBD94FF6FF70BA
:109C1000814201D09942E5D8052305F80C3023880C
:109C200001339BB212212380E954238801339BB274
:109C300023801188E954E818090A41702388023307
:109C40009BB223805288EA54E918120A4A7023888A
:109C5000023323802CE7B36A002BC3D04FF00008F7
:109C60004FF00C0A4FF0160BB16A5FFA88F20AFB4C
:109C700002F201EB0209B9F80430981CFE283FF605
:109C800079AE208803332B54238801339BB2238081
:109C900005F803B0238801339BB223808A5AEA5423
:109CA000E918120A4A702088023080B22080B9F880
:109CB00004205AB1D9F80810002993D0284400F0A4
:109CC000B8FA2388B9F804201344238096F82C208E
:109CD00008F101085FFA88F39A42C5D823E7092101
:109CE00056E79F42FBD2ADF8087050E710DF70478F
:109CF00013B5044609496846FEF7D1F8019808B93A
:109D000002B010BDD0E900212046904718B1684646
:109D1000FEF7CFF8F2E71120F2E700BF50AB0200E8
:109D200013B5044607496846FEF7B9F8019B0BB91D
:109D300002B010BD2046D3E9002190476846FEF7E7
:109D4000B8F8F3E768AB02000B4991F816335A09EB
:109D5000EC231341DB0706D5084B9A683AB94FF458
:109D600080030B60704742F20200FDF74DB91A689C
:109D700042F480021A60704700E100E0C41F002036
:109D8000F7B5194F3C7864BB184E01252046357055
:109D9000FFF7AEFF112821D02046FFF7C1FF144B7B
:109DA0008DF80340186801900DF10300FDF714FBD6
:109DB000104901A8FFF79AFF0446B0FA80F0400965
:109DC00038709DF80300FDF72BFB3CB90A4B34704B
:109DD0001C70FFF7B9FF2846FFF7A2FF204603B02B
:109DE000F0BD0824FAE700BF882100208721002069
:109DF0004CAB02002570020089210020014B18782D
:109E0000704700BF8821002007B508496846FEF763
:109E100046F8019B13B903B05DF804FBD3E90020B9
:109E200090476846FEF745F8F3E700BF5CAB0200D9
:109E3000FFF7EABF60DF704769DF704761DF704797
:109E400030B5134B1B7891B0FBB1124D34240DF19A
:109E5000020103A8ADF80240FFF7F0FF70B92946F0
:109E600001A8FEF71CF8029B002BF0D003A8D3E951
:109E70000021904701A8FEF71CF8F4E7052804D05C
:109E800011B0BDE83040FDF7BFB811B030BD00BF24
:109E90008A210020ACAD020030B50C4685B0002907
:109EA00000F082800023CDE90133404A039301236F
:109EB0000A608DF804008DF8063001A906232020E1
:109EC000ADF80830FFF7B8FF60B1FEF743F8384B44
:109ED0003849024638481B1ADB081B0443F00100CE
:109EE000FCF7B2FD00232268039301A94020CDE9CD
:109EF0000133FFF7A1FF60B1FEF72CF82C4B2F497F
:109F000002462D481B1ADB081B0443F00100FCF736
:109F10009BFD00232268039301A90120CDE90133B1
:109F2000FFF78AFF60B1FEF715F8214B244902467E
:109F300021481B1ADB081B0443F00100FCF784FDD9
:109F40000023CDE902332268F82301A9A12001935F
:109F5000FFF772FF60B1FDF7FDFF154B194902468F
:109F600015481B1ADB081B0443F00100FCF76CFDCD
:109F700000252268039501A9A020CDE90155FFF72E
:109F80005BFF034668B1FDF7E5FF094B0E4902464A
:109F900009481B1ADB081B0443F00100FCF754FDC1
:109FA0002B46184605B030BD0E23FAE7C81800202E
:109FB000D0A3020074AB020080A30200BAAB02007F
:109FC00006AC020052AC0200A3AC020073B5054619
:109FD0000668FFF72FFF2B68B34204461DD91A48C5
:109FE0001A4B1B491B1ADB081B0443F002000190AB
:109FF000FCF726FD2B68174901983246FCF72DFD2A
:10A000004FF080532A68D3F80C31134901989B0212
:10A0100003F100539A1AFCF717FD2CB90F4B0122DC
:10A020001A70204602B070BD2046FDF793FF074B23
:10A030000B49024604481B1ADB081B0443F00100CD
:10A04000FCF702FDEDE700BF80A30200D0A30200F1
:10A05000F6AC020025AD020056AD02008A210020B8
:10A0600080AD02004BDF70471FB50E4C01A8FFF713
:10A07000F9FF70B9214602A8FDF711FF039B002BE1
:10A08000F4D00198D3E90021904702A8FDF711FF11
:10A09000F4E7052804D004B0BDE81040FCF7B4BFD5
:10A0A00004B010BDC4AD020053EA020C61D02DE92A
:10A0B000F04BB3FA83F51E0007BFB2FA82F502FA3D
:10A0C00005F403FA05F41646C5F120051EBF22FA71
:10A0D00005F73C43203556EA044C4FEA144418BFB8
:10A0E0000134A3464FF00009C846904271EB030CBF
:10A0F00039D3094207BFB0FA80F700FA07F6B1FA80
:10A1000081F701FA07F6C7F120071EBF20FA07FC06
:10A1100046EA0C062037B6FBFBFC7F1B103F07F01E
:10A120001F04C4F120060CFA04F42CFA06F644BF0E
:10A1300034460026202FA4BF2646002454EA060CED
:10A1400008BF012418EB040849EB0609A4FB027CB4
:10A15000C01B06FB02CC04FB03CC71EB0C0190424C
:10A1600071EB030CC5D20B46024649464046BDE89A
:10A17000F08BB2FBF3F200007F2805D8034B185C8C
:10A18000034B5B5C1840704700207047DCAD020059
:10A190005CAE0200A0F16103192B98BF2038704714
:10A1A000A0F14103192B98BF203070477F2805D8B4
:10A1B000034B185C034B5B5C1840704700207047F2
:10A1C000DCAD02005CAE0200A0F16103192B98BF68
:10A1D00020387047A0F14103192B98BF20307047F9
:10A1E0007F299ABF017001206FF02E0070475AB18D
:10A1F0000A787F2A0AD800B10260002119605960EC
:10A20000501A18BF01207047002070476FF02E00D1
:10A210007047000008B5034B5B689B681B68984754
:10A2200008BD00BF1819002008B50921FFF7F2FF8B
:10A2300008BD844640EA010313F0030F18D1844699
:10A24000202A0BD32DE9F007B1E8F807A0E8F807BA
:10A25000A2F12002202AF7D2BDE8F007042A07D392
:10A2600051F8043B40F8043BA2F10402042AF7D25F
:10A27000002A05D011F8013B00F8013B013AF9D161
:10A28000604670478446002A2DD010F0030F04D09A
:10A2900000F8011B013A26D0F7E7C9B241EA0121D3
:10A2A00041EA0141202A12D3A2F120022DE9F00354
:10A2B0000B460C460D460E460F4688468946A0E8DA
:10A2C000FA03203AFBD2BDE8F00320320BD0042A77
:10A2D00005D340F8041B043A05D0042AF9D200F84B
:10A2E000011B013AFBD16046704700F1010110F0FB
:10A2F000030F11D010F8012B002A23D010F0030F08
:10A300000AD010F8012B002A1CD010F0030F03D044
:10A3100010F8012B002A15D02DE970004FF0013202
:10A320004FF0803350F8044BA4EB020525EA0405F6
:10A330001D4000D1F6E7A0F1040070BC10F8012B1D
:0AA34000002AFBD1A0EB01007047DA
:08A34C008D83020000000000F7
:08A35400298402000000000052
:10A35C00419E02000000000069A002000000000005
:10A36C0070190020381A0020401A0020781900209B
:04A37C0018000000C5
:10A38000E2AA020000000000E8AA020000000000AB
:10A39000EFAA020000000000F3AA02000000000083
:10A3A000F8AA0200000000004EA40200000003030F
:10A3B00024A50200000000004DA5020000000000DE
:10A3C000DCAA02000000000044AB0200000003030E
:10A3D0009DAD020000000303B8AD020000000303BE
:10A3E000B6A5020000000000CCA50200000000009D
:10A3F00020A40200000000002CA40200DC180020B1
:10A40000FFFFFFFFFFFFFFFFFFFFFFFFFFFFFFFF5C
:10A4100000000000000000000000D601060100005E
:10A42000F164020055650200A16402007561727456
:10A430005F6C6F675F6261636B656E64004261634E
:10A440006B656E647320666C75736865640061701B
:10A4500070000000601E00207F000000E01E002051
:10A460001B5B313B33316D0025734C6F6773206488
:10A47000726F70706564202825642925730D0A00A9
:10A480001B5B306D002573003C25733E2025733A1D
:10A490002000202530327800202020007C00256319
:10A4A000001B5B313B33306D001B5B313B33326D46
:10A4B000001B5B313B33336D001B5B313B33346D31
:10A4C000001B5B313B33356D001B5B313B33366D1D
:10A4D000001B5B313B33376D007761726E696E67CD
:10A4E00000696E666F0064656275670080A4020093
:10A4F000A1A4020060A40200A9A40200B1A4020069
:10A50000B9A40200C1A40200C9A40200D1A402009F
:10A51000000000003AA50200D9A40200E1A4020054
:10A52000E6A402006170705F627574746F6E000063
:10A53000001F0020466174616C206572726F7200AA
:10A5400053797374656D2072657365740061707002
:10A550005F74696D65720000010006000000000074
:10A560003C1F00209170020052544320696E7374A6
:10A57000616E636520616C726561647920696E69E2
:10A580007469616C697A65642E005254433A20699B
:10A590006E697469616C697A65642E000000000060
:10A5A0000338FDD8704730313233343536373839D7
:10A5B0004142434445467077725F6D676D74000099
:10A5C00054A3020054A3020004000000736F7274CD
:10A5D0006C697374004E52465F5355434345535361
:10A5E000004E52465F4552524F525F5356435F48AA
:10A5F000414E444C45525F4D495353494E47004EDE
:10A6000052465F4552524F525F534F46544445564F
:10A610004943455F4E4F545F454E41424C454400CF
:10A620004E52465F4552524F525F494E5445524E2C
:10A63000414C004E52465F4552524F525F4E4F5F63
:10A640004D454D004E52465F4552524F525F4E4F60
:10A65000545F464F554E44004E52465F4552524F4E
:10A66000525F4E4F545F535550504F525445440023
:10A670004E52465F4552524F525F494E56414C49E9
:10A68000445F504152414D004E52465F4552524F39
:10A69000525F494E56414C49445F53544154450022
:10A6A0004E52465F4552524F525F494E56414C49B9
:10A6B000445F4C454E475448004E52465F45525207
:10A6C0004F525F494E56414C49445F464C414753B7
:10A6D000004E52465F4552524F525F494E56414CD2
:10A6E00049445F44415441004E52465F4552524FE7
:10A6F000525F444154415F53495A45004E52465FB0
:10A700004552524F525F54494D454F5554004E5299
:10A71000465F4552524F525F4E554C4C004E52468A
:10A720005F4552524F525F464F5242494444454E54
:10A73000004E52465F4552524F525F494E56414C71
:10A7400049445F41444452004E52465F4552524F85
:10A75000525F42555359004E52465F4552524F5236
:10A760005F434F4E4E5F434F554E54004E52465F2F
:10A770004552524F525F5245534F55524345530035
:10A780004E52465F4552524F525F4D4F44554C45D5
:10A790005F4E4F545F494E495449414C495A4544D4
:10A7A000004E52465F4552524F525F4D55544558E8
:10A7B0005F494E49545F4641494C4544004E52461C
:10A7C0005F4552524F525F4D555445585F4C4F4371
:10A7D0004B5F4641494C4544004E52465F455252FC
:10A7E0004F525F4D555445585F554E4C4F434B5F4C
:10A7F0004641494C4544004E52465F4552524F52E5
:10A800005F4D555445585F434F4E445F494E495440
:10A810005F4641494C4544004E52465F4552524FB7
:10A82000525F4D4F44554C455F414C524541445950
:10A830005F494E495449414C495A4544004E52469D
:10A840005F4552524F525F53544F524147455F4606
:10A85000554C4C004E52465F4552524F525F41504C
:10A86000495F4E4F545F494D504C454D454E544500
:10A8700044004E52465F4552524F525F4645415446
:10A880005552455F4E4F545F454E41424C45440042
:10A890004E52465F4552524F525F494F5F50454EB0
:10A8A00044494E47004E52465F4552524F525F4414
:10A8B00052565F5457495F4552525F4F5645525268
:10A8C000554E004E52465F4552524F525F445256CB
:10A8D0005F5457495F4552525F414E41434B004ED2
:10A8E00052465F4552524F525F4452565F54574949
:10A8F0005F4552525F444E41434B004E52465F45C6
:10A9000052524F525F424C455F495053505F52582C
:10A910005F504B545F5452554E4341544544004E92
:10A9200052465F4552524F525F424C455F49505329
:10A93000505F4348414E4E454C5F414C5245414467
:10A94000595F455849535453004E52465F45525241
:10A950004F525F424C455F495053505F4C494E4BFC
:10A960005F444953434F4E4E4543544544004E5275
:10A97000465F4552524F525F424C455F49505350DB
:10A980005F504545525F52454A4543544544005542
:10A990006E6B6E6F776E206572726F7220636F647C
:10A9A0006500000000000000D5A5020001000000C5
:10A9B000E1A5020002000000FFA502000300000064
:10A9C00020A602000400000033A6020005000000DB
:10A9D00044A602000600000058A60200070000007E
:10A9E00070A602000800000088A60200090000000E
:10A9F000A0A602000A000000B9A602000B00000099
:10AA0000D1A602000C000000E8A602000D00000024
:10AA1000FCA602000E0000000EA702000F000000BE
:10AA20001DA702001000000031A702001100000065
:10AA300048A702001200000057A702001300000000
:10AA40006CA702008000000080A7020081000000C7
:10AA5000A1A7020082000000BDA702008300000041
:10AA6000D9A7020084000000F7A7020085000000BB
:10AA700018A80200860000003DA802009000000017
:10AA800054A802009100000072A802009200000089
:10AA900090A8020000820000A5A802000182000028
:10AAA000C3A8020002820000DFA8020000840000A8
:10AAB000FBA80200018400001FA90200028400001C
:10AAC00049A90200038400006EA9020000000101F0
:10AAD000000000010100000011121314636C6F6389
:10AAE0006B00434C4F434B004750494F5445005077
:10AAF00052530055415254005541525445000000F4
:10AB00000D000300A99302000E000300A9930200A8
:10AB10000F000300A993020010000300A993020094
:10AB2000D0200020F0200020102100204265616329
:10AB30006F6E206578616D706C65207374617274DE
:10AB400065642E006E72665F736468000100000722
:10AB500054A3020054A30200080000005CA30200FA
:10AB60006CA302000800000054A302005CA30200D2
:10AB70000800000073645F626C655F6366675F7303
:10AB8000657428292072657475726E65642025735A
:10AB9000207768656E20617474656D7074696E6786
:10ABA00020746F2073657420424C455F434F4E4EB6
:10ABB0005F4346475F4741502E0073645F626C6598
:10ABC0005F6366675F7365742829207265747572A8
:10ABD0006E6564202573207768656E2061747465E6
:10ABE0006D7074696E6720746F2073657420424CB9
:10ABF000455F4741505F4346475F524F4C455F4377
:10AC00004F554E542E0073645F626C655F636667D8
:10AC10005F73657428292072657475726E6564208F
:10AC20002573207768656E20617474656D70746932
:10AC30006E6720746F2073657420424C455F434FEC
:10AC40004D4D4F4E5F4346475F56535F5555494400
:10AC50002E0073645F626C655F6366675F73657423
:10AC600028292072657475726E65642025732077BB
:10AC700068656E20617474656D7074696E672074A8
:10AC80006F2073657420424C455F47415454535FB5
:10AC90004346475F415454525F5441425F53495ABF
:10ACA000452E0073645F626C655F6366675F736502
:10ACB0007428292072657475726E6564202573206E
:10ACC0007768656E20617474656D7074696E672055
:10ACD000746F2073657420424C455F474154545350
:10ACE0005F4346475F534552564943455F4348419A
:10ACF0004E4745442E00496E737566666963696503
:10AD00006E742052414D20616C6C6F636174656498
:10AD100020666F722074686520536F667444657690
:10AD20006963652E004368616E67652074686520FD
:10AD300052414D207374617274206C6F6361746949
:10AD40006F6E2066726F6D203078257820746F20CA
:10AD5000307825782E004D6178696D756D205241EF
:10AD60004D2073697A6520666F72206170706C691E
:10AD7000636174696F6E20697320307825782E00C6
:10AD800073645F626C655F656E61626C6528292023
:10AD900072657475726E65642025732E006E72661E
:10ADA0005F7364685F626C650000000054A302007A
:10ADB00054A30200080000006E72665F7364685F4F
:10ADC000736F63004CA3020054A30200080000004C
:10ADD00043000000504F534958000000202020201D
:10ADE00020202020206828282828202020202020FB
:10ADF000202020202020202020202020481010105B
:10AE00001010101010101010101010108484848472
:10AE10008484848484841010101010101081818127
:10AE20008181810101010101010101010101010192
:10AE30000101010101010110101010101082828225
:10AE40008282820202020202020202020202020262
:10AE5000020202020202021010101020000703205A
:10AE6000041702010857104080000000D0AD020016
:10AE7000D4AE0200E8AF020053756E004D6F6E0055
:10AE80005475650057656400546875004672690022
:10AE900053617400000000004A616E004665620064
:10AEA0004D617200417072004D6179004A756E000B
:10AEB0004A756C0041756700536570004F637400FC
:10AEC0004E6F76004465630000000000414D005065
:10AED0004D0000000CB0020008B0020008B00200F3
:10AEE00008B0020008B0020008B0020008B002007A
:10AEF00008B0020008B0020008B00200FFFFFFFF28
:10AF0000FFFFFFFFFFFFFFFFFFFF000048AF020052
:10AF100078AE020084AF020098AE0200CCAE020010
:10AF20002CAF0200DCAF020038AF0200256D2F25E8
:10AF3000642F257900000000256120256220256509
:10AF4000202554202559000053756E646179004D09
:10AF50006F6E64617900547565736461790057653B
:10AF6000646E6573646179005468757273646179A5
:10AF70000046726964617900536174757264617925
:10AF8000000000004A616E75617279004665627268
:10AF900075617279004D6172636800417072696C0D
:10AFA000004D6179004A756E65004A756C79004103
:10AFB00075677573740053657074656D62657200B2
:10AFC0004F63746F626572004E6F76656D62657275
:10AFD00000446563656D62657200000025483A258E
:10AFE0004D3A25530000000079A1020095A102000E
:10AFF000A1A10200ADA10200C9A10200D5A10200D9
:0EB00000E1A10200EFA10200000000002E00FE
:10B010000000000000200040000000000020004070
:10B020000000000000000000FF00000000100140D0
:10B03000110004000090D003682100201F000000D0
:10B040000000000000000000FF021501122334453B
:10B05000566778899AABBCCDDEEFF001020304C3DA
:10B060006CAE02006CAE02006CAE02006CAE020070
:04B070006CAE0200C0
:040000032000637501
:00000001FF
