:020000040002F8
:1060000070790020196202002162020023620200FE
:1060100025620200276202002962020000000000DF
:106020000000000000000000000000002B620200E1
:106030002D620200000000002F62020031620200A7
:1060400033620200336202003362020033620200F4
:1060500033620200336202003362020033620200E4
:1060600033620200336202003362020033620200D4
:1060700033620200336202003362020033620200C4
:1060800033620200336202003362020033620200B4
:106090003362020033620200616202003362020076
:1060A0003362020033620200336202003362020094
:1060B00033620200336202000000000000000000B2
:1060C0003362020033620200336202003362020074
:1060D00033620200336202003362020000000000FB
:1060E00000000000000000000000000000000000B0
:1060F00000000000000000000000000000000000A0
:10610000000000000000000000000000000000008F
:10611000000000000000000000000000000000007F
:10612000000000000000000000000000000000006F
:10613000000000000000000000000000000000005F
:10614000000000000000000000000000000000004F
:10615000000000000000000000000000000000003F
:10616000000000000000000000000000000000002F
:10617000000000000000000000000000000000001F
:10618000000000000000000000000000000000000F
:1061900000000000000000000000000000000000FF
:1061A00000000000000000000000000000000000EF
:1061B00000000000000000000000000000000000DF
:1061C00000000000000000000000000000000000CF
:1061D00000000000000000000000000000000000BF
:1061E00000000000000000000000000000000000AF
:1061F000000000000000000000000000000000009F
:10620000DFF810D000F01AF80048004705670200D8
:10621000AFF30080707900200648804706480047A9
:10622000FEE7FEE7FEE7FEE7FEE7FEE7FEE7FEE746
:10623000FEE7FEE76562020001620200064C074DC0
:1062400006E0E06840F0010394E807009847103446
:10625000AC42F6D3FFF7D8FFA4680200C46802007E
:1062600000F086BAF0B5D34AD3494FF08054136892
:10627000D4F830010978D4F83421451CC1F3031156
:1062800007D08446164601270025BCF1060F04D02E
:1062900013E003F0FF0C0E46F5E7032E05D0042EA5
:1062A00003D0052E01D0062E07D1B4F82463DFF801
:1062B0000CC3C6F30426CCF80060DEB2062E06D16D
:1062C000032904D1DFF8FCC2BD4ECCF87460461C33
:1062D00006D084464FEA0206BCF1060F04D013E054
:1062E00003F0FF0C0E46F7E7032E05D0042E03D073
:1062F000052E01D0062E07D1D4F84462DFF8C8C2BB
:10630000C6F34236CCF80060DEB2062E08D103296F
:1063100006D1AE4ED6F800C02CF0807CC6F800C086
:10632000461C05D084461646BCF1060F04D014E086
:1063300003F0FF0C0E46F7E7032E05D0042E03D022
:10634000052E01D0062E08D14FF08046C6F80C511C
:10635000C6F810519C4E361F3560DEB2062E08D1AD
:10636000032906D1DFF860C203260CF1640CCCF8D7
:106370000060DEB2062E11D103290FD1DFF850C222
:106380000526CCF80060924E78363760904E08367D
:1063900035600CF1040C3F26CCF80060461C05D09B
:1063A00084461646BCF1060F04D087E003F0FF0CCC
:1063B0000E46F7E7032E7CD0042E7FD0052E01D0A9
:1063C000062E7BD1834E3668DFF80CC2CCF8006015
:1063D000804E361D36680CF1040CCCF800607D4E02
:1063E000083636680CF1040CCCF80060794E0C3697
:1063F00036680CF1040CCCF80060764E1036366826
:106400000CF1040CCCF80060724E143636680CF1B6
:10641000040CCCF800606F4E18363668DFF8B8C14F
:106420000CF1200CCCF800606A4E1C3636680CF17A
:10643000040CCCF80060674E203636680CF1040C72
:10644000CCF80060634E243636680CF1040CCCF8AE
:106450000060604E283636680CF1040CCCF8006001
:106460005C4E2C3636680CF1040CCCF80060594EAA
:1064700030363668DFF860C10CF1400CCCF80060B3
:10648000544E343636680CF1040CCCF80060514E92
:10649000383636680CF1040CCCF800604D4E3C36B2
:1064A00036680CF1040CCCF800604A4E4036366871
:1064B00000E003E00CF1040CCCF80060461C05D0B1
:1064C00084461646BCF1060F04D011E003F0FF0C21
:1064D0000E46F7E7032E05D0042E03D0052E01D07B
:1064E000062E05D1D4F858423C4E04F04F043460D7
:1064F000441C04D003461146062B02D010E0DBB248
:10650000FAE7032905D0042903D0052901D006297B
:1065100006D133490B68DB0702D06FF001030B6033
:1065200006280CD1032A0AD0042A08D0052A06D04E
:10653000062A04D12B48016841F480610160234898
:106540007438016841F470010160BFF34F8FBFF3ED
:106550006F8F4FF01021D1F80002002803DBD1F833
:106560000402002822DA204A176020480368002B22
:10657000FCD01523C1F800320468002CFCD0C1F80F
:10658000043201680029FCD0156001680029FCD0A4
:10659000BFF34F8F0D48F0380168154A01F4E061F0
:1065A00011430160BFF34F8F00BFFDE7124911484F
:1065B0000860F0BDE00F00F0E80F00F0403501404A
:1065C0000DF0ADBA00C007403C050040FCED00E016
:1065D000105600400404001020C50040E40E0040A6
:1065E000000400403C17004004E5014000E4014085
:1065F0000400FA050090D0036859002002E008C8A2
:10660000121F08C1002AFAD170477047002001E02C
:1066100001C1121F002AFBD17047000072B6094861
:106620000068C00700D000BEBFF34F8F0548E438B4
:106630000168054A01F4E06111430160BFF34F8F27
:1066400000BFFDE7F0ED00E00400FA050EB5002103
:106650000091CDE901106A4644F20100FFF7DEFF28
:106660000EBD00002DE9FC41064610F0110F4FF061
:1066700000050ED0104F00240122385D0095002344
:106680001146019500F056F8641C042CF4D300F078
:106690002FF8B0070DD5084E0024361D0022305DBE
:1066A000032300951146019500F044F8641C042C66
:1066B000F4D3BDE8FC8100002668020007490B5CAA
:1066C0004FF0A041D1F804250120984020EA0203B0
:1066D000C1F808351040C1F80C0570472668020063
:1066E0000249085C012100F037B80000266802006A
:1066F00010B500242046FFF7F3FF641C042CF9D3E7
:1067000010BD00001120FFF7ADFF094C4FF4FA78DF
:106710004FF47A4700263046FFF7D0FF4546611C0C
:10672000384688476D1EFAD1761C042EF3DBF1E75C
:106730002068020070B541EA4201DDE904564FF0DD
:10674000A04441EA830141EA052104EB800041EACB
:106750000641C0F8001770BD01224FF0A0438240EF
:1067600011B1C3F808257047C3F80C257047000025
:106770000EB50749684600F02BF805E0D0E9001097
:106780008847684600F03BF802980028F6D10EBD15
:106790005C6802001FB568464BDF30B1052814D095
:1067A00004B0BDE81040FFF751BF084901A800F050
:1067B0000FF806E0D0E900210098904701A800F00A
:1067C0001EF803980028E6D0F4E71FBD9868020081
:1067D000016009684160AFF3008010B5D0E9002185
:1067E0005368994201D1002104E0D1E90034A34269
:1067F00002D01946816010BD08314160F0E7816820
:1068000000290BD0026892680A44826041684B6894
:106810009A4203D108314160FFF7DFBF70470000A3
:106820000338FDD87047111213140D0E0F1000001D
:106830000000000000000000000000000000000058
:1068400001000007306802004068020008000000F4
:10685000686802007868020008000000786802009A
:10686000886802000800000000000000000000002E
:106870000000000000000000C4680200CC680200B4
:106880000000000000000000000000000000000008
:106890000000000000000000886802009868020004
:1068A00008000000CC6802006859002004000000C5
:1068B000FC650200D06802006C5900200420000032
:1068C0000C66020095670200000000000090D003F3
:040000050002620192
:00000001FF
