:020000040002F8
:10600000704C0020C5630200CD630200CF63020024
:10601000D1630200D3630200D563020000000000D8
:10602000000000000000000000000000D763020034
:10603000D963020000000000DB630200DD630200A0
:1060400031650200DF63020035690200DF63020090
:10605000DF630200DF6302008D640200DF63020081
:10606000DF630200DF630200DF630200DF63020020
:10607000DF630200DF630200DF630200DF63020010
:10608000DF63020089650200DF630200DF63020054
:10609000DF630200DF63020099650200DF63020034
:1060A000DF630200DF630200DF630200DF630200E0
:1060B000DF630200DF630200000000000000000058
:1060C000DF630200DF630200DF630200DF630200C0
:1060D000DF630200DF630200DF63020000000000F4
:1060E00000000000000000000000000000000000B0
:1060F00000000000000000000000000000000000A0
:10610000000000000000000000000000000000008F
:10611000000000000000000000000000000000007F
:10612000000000000000000000000000000000006F
:10613000000000000000000000000000000000005F
:10614000000000000000000000000000000000004F
:10615000000000000000000000000000000000003F
:10616000000000000000000000000000000000002F
:10617000000000000000000000000000000000001F
:10618000000000000000000000000000000000000F
:1061900000000000000000000000000000000000FF
:1061A00000000000000000000000000000000000EF
:1061B00000000000000000000000000000000000DF
:1061C00000000000000000000000000000000000CF
:1061D00000000000000000000000000000000000BF
:1061E00000000000000000000000000000000000AF
:1061F000000000000000000000000000000000009F
:10620000DFF810D000F030F900480047F9810200B3
:10621000AFF30080704C002030B450E8012F93B2EF
:10622000C48923448489A34228BF1B1B0489A34239
:1062300002BFBFF32F8F002007E0C3EA020340E84C
:106240000134002CE9D14FF001000A6030BC7047E6
:1062500050E8012FC2EA024240E801210029F7D1AB
:10626000704730B450E8022F1FFAA2F3C488A3424B
:1062700002BFBFF32F8F00200DE0C489234484891F
:10628000A34228BF1B1BC2EA034340E80234002C90
:10629000E8D14FF001000A6030BC704750E8022F8F
:1062A000C2EA224240E802210029F7D170470346A2
:1062B00053E8022FD988B2EB324F4FF0000017BFDE
:1062C00092B241EA014142EA014104E05A68B2EB6C
:1062D000324F08BF012043E80212002AE8D170477C
:1062E00030B4044654E8000F0D4644E80053002B38
:1062F000F8D1156030BC704730B4044654E8000F44
:1063000040EA010544E80053002BF7D1156030BC8A
:10631000704730B4044654E8000F00EA010544E831
:106320000053002BF7D1156030BC704730B40446E1
:1063300054E8000F80EA010544E80053002BF7D130
:10634000156030BC704730B4044654E8000F00EBD1
:10635000010544E80053002BF7D1156030BC7047AD
:1063600030B4044654E8000FA0EB010544E80053A4
:10637000002BF7D1156030BC704770B404464FF065
:10638000000054E8006F0D68AE4207BF44E80023E8
:10639000012044E800630E60002B1CBF0020F0E7E2
:1063A00070BC704730B4044654E8000F88422CBFDC
:1063B000451A054644E80053002BF5D1156030BC62
:1063C000704700000648804706480047FEE7FEE7A2
:1063D000FEE7FEE7FEE7FEE7FEE7FEE7FEE7FEE795
:1063E0009D65020001620200202A04DB203A00FAC7
:1063F00002F1002070479140C2F1200320FA03F31C
:1064000019439040704700000048704718B40200DC
:1064100040EA01039B0703D009E008C9121F08C026
:10642000042AFAD203E011F8013B00F8013B521EA6
:10643000F9D27047D2B201E000F8012B491EFBD21D
:1064400070470022F6E710B513460A46044619467F
:10645000FFF7F0FF204610BD421C10F8011B002979
:10646000FBD1801A70470000064C074D06E0E0683B
:1064700040F0010394E8070098471034AC42F6D38B
:10648000FFF7C2FE40BB020060BB02002DE9F843EB
:106490000025DFF894804FF4807601242F46009584
:1064A000304602F0B3FC38B1D8F80403204203D0E0
:1064B000304602F0A1FC2543361D64007F1CB6B2B5
:1064C000082FEDD34FF4BE74204602F09FFC48B174
:1064D000204602F091FC45F000456A46012100206B
:1064E00002F05AFC15F0FF0F16D0012600242E42B0
:1064F0000ED008EB8401D1F81005D1F81015C0F3C7
:1065000004200A4AC1F3014152F8242002B1904705
:106510007600641C082CEAD3002D02DA684603F0EA
:1065200067FFBDE8F88300000060004058250020A8
:1065300070B54FF48076304602F018FA114CB5056C
:1065400060B1304602F019FA0120C5F808036079FD
:1065500020B9012060712168002088474FF48276BD
:10656000304602F003FA00280AD0304602F005FA5D
:106570000220C5F808032168BDE8704001200847E3
:1065800070BD00002023002002490248091F09684D
:10659000006808477023002003F082B9F0B5D34AA1
:1065A000D3494FF080541368D4F830010978D4F8F7
:1065B0003421451CC1F3031107D084461646012738
:1065C0000025BCF1060F04D013E003F0FF0C0E46CB
:1065D000F5E7032E05D0042E03D0052E01D0062E9C
:1065E00007D1B4F82463DFF80CC3C6F30426CCF853
:1065F0000060DEB2062E06D1032904D1DFF8FCC20A
:10660000BD4ECCF87460461C06D084464FEA0206A4
:10661000BCF1060F04D013E003F0FF0C0E46F7E7C1
:10662000032E05D0042E03D0052E01D0062E07D14F
:10663000D4F84462DFF8C8C2C6F34236CCF8006032
:10664000DEB2062E08D1032906D1AE4ED6F800C020
:106650002CF0807CC6F800C0461C05D08446164647
:10666000BCF1060F04D014E003F0FF0C0E46F7E770
:10667000032E05D0042E03D0052E01D0062E08D1FE
:106680004FF08046C6F80C51C6F810519C4E361F8C
:106690003560DEB2062E08D1032906D1DFF860C2CC
:1066A00003260CF1640CCCF80060DEB2062E11D18A
:1066B00003290FD1DFF850C20526CCF80060924EB6
:1066C00078363760904E083635600CF1040C3F2662
:1066D000CCF80060461C05D084461646BCF1060F77
:1066E00004D087E003F0FF0C0E46F7E7032E7CD0C2
:1066F000042E7FD0052E01D0062E7BD1834E366826
:10670000DFF80CC2CCF80060804E361D36680CF104
:10671000040CCCF800607D4E083636680CF1040C91
:10672000CCF80060794E0C3636680CF1040CCCF8CD
:106730000060764E103636680CF1040CCCF8006020
:10674000724E143636680CF1040CCCF800606F4EB3
:1067500018363668DFF8B8C10CF1200CCCF80060B0
:106760006A4E1C3636680CF1040CCCF80060674E9B
:10677000203636680CF1040CCCF80060634E2436E9
:1067800036680CF1040CCCF80060604E2836366890
:106790000CF1040CCCF800605C4E2C3636680CF121
:1067A000040CCCF80060594E30363668DFF860C112
:1067B0000CF1400CCCF80060544E343636680CF1C5
:1067C000040CCCF80060514E383636680CF1040CDD
:1067D000CCF800604D4E3C3636680CF1040CCCF819
:1067E00000604A4E4036366800E003E00CF1040CCD
:1067F000CCF80060461C05D084461646BCF1060F56
:1068000004D011E003F0FF0C0E46F7E7032E05D08D
:10681000042E03D0052E01D0062E05D1D4F85842FF
:106820003C4E04F04F043460441C04D0034611462F
:10683000062B02D010E0DBB2FAE7032905D00429C9
:1068400003D0052901D0062906D133490B68DB079F
:1068500002D06FF001030B6006280CD1032A0AD086
:10686000042A08D0052A06D0062A04D12B4801683C
:1068700041F48061016023487438016841F470017B
:106880000160BFF34F8FBFF36F8F4FF01021D1F82E
:106890000002002803DBD1F80402002822DA204A93
:1068A000176020480368002BFCD01523C1F8003284
:1068B0000468002CFCD0C1F8043201680029FCD027
:1068C000156001680029FCD0BFF34F8F0D48F038E8
:1068D0000168154A01F4E06111430160BFF34F8F75
:1068E00000BFFDE7124911480860F0BDE00F00F05D
:1068F000E80F00F0403501400DF0ADBA00C0074090
:106900003C050040FCED00E010560040040400107F
:1069100020C50040E40E0040000400403C17004049
:1069200004E5014000E401400400FA050090D003B2
:10693000F8230020014800680047000028230020B9
:1069400002E008C8121F08C1002AFAD17047704738
:10695000002001E001C1121F002AFBD17047000096
:106960000121202803DA81400548014003E0402846
:1069700002DA2038814009B10120704700207047B9
:10698000FC06FFBD30B52548A5B03C210068249029
:106990002348807C8DF892006846FFF752FD022064
:1069A0008DF8000001248DF8024006208DF80300C8
:1069B0003C210FA8FFF745FD24A81A4D1490ADF80F
:1069C0004C402A1D6846296800F026FA08B100F0FC
:1069D000F3F8144A0FA80C32A96800F01DFA08B1A8
:1069E00000F0EAF818211EA8FFF72BFD00208DF813
:1069F0008D408DF87840ADF884001F908DF88C00A4
:106A00004020084920901EAAA1F10C0072DF002846
:106A100001D000F0D1F825B030BD0000D8B00200A0
:106A2000FC230020FC220020064810B5012100783C
:106A300073DF08B100F0C0F8BDE81040002000F09E
:106A40005FBD0000F022002038B500240E4D05E0A7
:106A5000686810F8340003F03BF8641C287884421E
:106A6000F6D300208DF80000684600F00FF90020F2
:106A7000C5E904009DF8000000F02CF903484068C7
:106A8000BDE8384000F0FCB83023002018B1020007
:106A900070B50024064D06E06868012110F8340046
:106AA00003F03AF8641C28788442F5D3002070BDC6
:106AB00030230020F8B516460C4605460A2A01D2B6
:106AC0000720F8BD03F022F918B903F0E5F8002813
:106AD000F7D1134F102113487D603C70BE60FFF763
:106AE000B0FC0020C7E904000F4E0DE005EBC40028
:106AF0003168009181788DF8011000780B4A694661
:106B000003F05AF80028DCD1641EE4B2EED2BDE8EE
:106B1000F84005480021064A001D00F05FB800005B
:106B2000302300202826002018B10200E97E020050
:106B3000D57A020010B572B602F0FEFB02F04AFAF6
:106B40000028FBD111481249401AC408012000EB6B
:106B5000044010A102F058FB11480068C00700D0A3
:106B600000BE022000EB04400EA102F04DFBBFF37B
:106B70004F8F0B48E43801680E4A01F4E06111437D
:106B80000160BFF34F8F00BFFDE70000C8BB0200EC
:106B900070BB0200466174616C206572726F720096
:106BA000F0ED00E053797374656D20726573657460
:106BB000000000000400FA050EB500210091CDE9A7
:106BC00001106A4644F20100FFF7B4FF0EBD000059
:106BD000014800F0E6BF0000502300203AB10068F1
:106BE0000129426100D00021016100207047072087
:106BF0007047000038B511480823582241680091B9
:106C00000F49006801F09FFC002815D10D4A694624
:106C10000D4800F0CBFF04000ED101210A4801F01D
:106C200040F80123094A1946074800F092FF064937
:106C3000012008390870204638BD000020B102004C
:106C400048260020A1A5020050230020FFFF7F005E
:106C500070B50446007F0D4608B1002070BDA261EA
:106C600001F028F9401941F10001C4E9020120694D
:106C700000B125612146BDE87040002003F040BF0F
:106C8000014600200877012003F03ABF30B5EFF34A
:106C9000108172B60D4A9468012324B10370002953
:106CA00000D162B630BD93604FF0E023D3F880513D
:106CB000074C25401560C3F88041D3F884415460E7
:106CC0005A17C3F8842100220270E8E7A0260020AA
:106CD000FC06FFBD0B498A68002A11D000280FD19D
:106CE000EFF3108072B60B684FF0E022C2F800316B
:106CF0004B68C2F8043100228A60002800D162B6D5
:106D000070470000A02600202DE9F04106460868E3
:106D10000C46411C4FF0A0474FF0010506D005FA84
:106D200000F1C7F80815206802F010F86068411CEF
:106D300002D0002101F0F8FF3168A069C1F82405F4
:106D4000607D227D31681043C1F86C05D4E90012E2
:106D50003068C0F81425C0F80C15207D012815D125
:106D6000A068411C02D0002101F0DEFFE068411C58
:106D700005D08540C7F80855E06801F0E7FFD4E981
:106D800002123068C0F80825C0F81015BDE8F0817F
:106D90002DE9F041064608680C46411C4FF0A0471B
:106DA0004FF0010506D005FA00F1C7F80815206874
:106DB00001F0D6FF6068411C02D0002101F0BDFF48
:106DC0003168A069C1F82405607D217D32680843DF
:106DD000C2F86C05D4E900123068C0F80C15C0F890
:106DE0001425207D012815D1A068411C02D0002166
:106DF00001F0A3FFE068411C05D08540C7F80855A5
:106E0000E06801F0ADFFD4E902123068C0F808254F
:106E1000C0F81015BDE8F0812DE9FC470025178862
:106E20000646158090F82D001446894630B13A4642
:106E30002146484600F0E6F8051E09D1B0784FF02B
:106E40000C0A18B32088C846001DB84202D9504623
:106E5000BDE8FC87684679DF0028F9D12088032146
:106E600008F8001020881921401C80B2208008F802
:106E700000102088401C80B2208000EB0801BDF883
:106E8000000004F00CF8218808442080F0780222E9
:106E9000C8B1218896F9033001F1030C4846BC457E
:106EA000D5D8425421884FF0010C491C89B2218069
:106EB00000F801C02188491C89B2218009F80130FD
:106EC0002088401C20807068B8B1218890F900307B
:106ED00001F1030C4846BC45B9D8425421880A2226
:106EE000491C89B2218042542188491C89B22180E1
:106EF00009F801302088401C2080308950B1CDE94C
:106F000000474B460622022106F1080004F07CF8F7
:106F1000051E9DD1308A50B1CDE900474B4607226E
:106F2000032106F1100004F06FF8051E90D1308B9C
:106F300050B1CDE900474B461522142106F1180047
:106F400004F062F8051E83D1306A30B13B46224618
:106F5000494600F0F4FC051EDBD1706A30B13B46B7
:106F60002246494601F012FA051ED2D196F82C00AD
:106F700038B13B4622464946304603F05DFC051ECB
:106F8000C7D1307838B13B4622464946304601F0F9
:106F900087FA051EBDD128465AE7000070B50400E7
:106FA00012D001461C221448FFF732FA1248134D42
:106FB0000560206850B17ADF002806D1206801689A
:106FC00029604068686005E00E2070BD0B487BDFDB
:106FD0000028FAD108484FF6FF711438084A20F803
:106FE000041B0549343901600021FFF7F7FD002833
:106FF000EBD0032070BD0000AC2400200C23002047
:107000005DAF02007CB5054608880C460930904209
:1070100001D90C207CBD68466DDF0028FAD121889B
:107020000820685420881B21401C80B220802954ED
:107030002088401C80B220802844DDF801100160C7
:10704000BDF8051081802088801D80B220809DF8C9
:107050000010490800D0012129542088401C2080BC
:1070600000207CBDF8B5334D018804466E88212987
:107070004BD015DC3048314A1029A0EB02004FEA12
:10708000D0004FF0030202EB004013D011292AD0A8
:10709000132943D100231A46852130467FDF1CE0A7
:1070A0003B2942D052293AD0562937D18088132122
:1070B00076DF12E022A102F0A7F8012000F020FA0A
:1070C000002000F015FAA1886980204801F0D6FB65
:1070D00008B1FFF771FDFFF7DBFC00281ED0BDE80B
:1070E000F840FFF769BD1AA102F08EF8012000F008
:1070F000FFF94FF6FF706880FFF7A6FC08B1FFF7B5
:107100005BFDBDE8F840FFF78FBC00200090A08831
:1071100069468FDF002801D0FFF74EFDF8BD002340
:107120001A4619463046B1DFD7E78088132176DF4B
:10713000D3E70000F0220020C8BB020070BB0200B1
:10714000436F6E6E65637465640000002824002040
:10715000446973636F6E6E6563746564000000005C
:107160002DE9F04701883B4E40F2F3194FF6FF75C9
:1071700010291BD011293ED0122954D0502946D1B4
:10718000C188F289841D914241D1618902293ED191
:107190008688304600F0C6FE050038D004F10C00A9
:1071A00000F078F9A8B3294630464EE0C17B8788C5
:1071B000044601292BD1A846284600F0B3FE05005D
:1071C00017D02F8000202872234843464A46016882
:1071D000C5F80A104068C5F80E0004F1100105F169
:1071E0000A0000F05BFF6872F08900280FD1294681
:1071F0002AE0042013E0808800F094FE040006D00A
:107200006068FFF73DFD08B103F0EEFA2580BDE8A8
:10721000F087FFE76868FFF733FD0028F7D0BDE887
:10722000F04703F0E1BA87880646384600F07AFE58
:107230000400ECD02B464A4606F1080104F10A008E
:1072400000F02CFF607221463846BDE8F04700F0A0
:10725000BDBB0000AC2400200C2300202DE9F04F22
:10726000044686880188424897B0834610290CD08E
:10727000112950D0103019296AD01A2974D1217AD5
:107280000C09042C4DD301224CE0394D083DA8686F
:10729000C0430B9069680BA801F0C0F90B990CA8CA
:1072A00000F02EFB2C220CA96846FFF7B1F800274E
:1072B000E946A84610E000BF09EB47005FF0000573
:1072C000B0F804A008EB85005146001D01F07AF9E2
:1072D0006D1C1E2DF6D37F1C0098B842ECD8142EDE
:1072E00005D317B00420BDE8F04FFFF765BC314669
:1072F000584601F07DF9314608F1040001F078F9B3
:10730000E07B022830D117B03146BDE8F04F184875
:10731000001D01F06DB917B03146BDE8F04F01F026
:1073200051B90022314600F0BFFD032C01D30122E8
:1073300000E000220E4831460C3000F0B5FD022C72
:1073400001D3012200E0002209483146083006E05E
:10735000217A002908D1617AC1F3C002314617B001
:10736000BDE8F04F00F0A0BD17B0BDE8F08F000001
:10737000D024002030B58DB004462E4B08686061E3
:107380000FCB08AD85E80F0004F1120108A862DFF9
:1073900000284CD1A07C8DF8320041F22350ADF88A
:1073A000300022460CA90120A8DF00283FD120216F
:1073B0006846FFF746F841F22450ADF80000A07C83
:1073C0008DF8020001259DF80D00ADF8065040F043
:1073D00012008DF81150ADF804508DF80D008DF8A5
:1073E0001350208804F10A02694600F093F900283E
:1073F0001DD120216846FFF724F841F22550ADF851
:107400000000A07C8DF802009DF80D00ADF806503C
:1074100040F00A008DF81150ADF804508DF80D00C1
:107420008DF812502088A21C694600F073F90DB047
:1074300030BD0000FCB0020030B40288502A10D1E8
:10744000034630F8062F4C88A2420AD14289012A0D
:1074500007D14C69002C04D0027B9888A44630BC2C
:10746000604730BC704707B586B001220023009307
:10747000ADF810200193029303938DF802204989FF
:10748000ADF8001008A9039104A902916946AEDF86
:1074900009B000BD007800F0010070472DE9FC4103
:1074A000064680071FD50025104F2C460122785D27
:1074B000009400231146019401F0DCFB6D1C042DA7
:1074C000F4D300F025F8B0070DD5084E0025361D81
:1074D0000022705D032300941146019401F0CAFB61
:1074E0006D1C042DF4D3BDE8FC810000DCB002006B
:1074F0000249085C012101F074BC0000DCB002000C
:107500000249085C002101F06CBC0000DCB0020004
:1075100010B500242046FFF7EBFF641C042CF9D3C0
:1075200010BD00002DE9F84F0546861C00208DF89F
:10753000000091460F464FF0010A6846FFF7A6FB90
:107540001B4C04F21C4860683860D4E90101194FF3
:10755000401A3968081A0EE00121404601F058F837
:1075600000F0F8FD0146404601F052F8D4E901016F
:10757000401A3968081A401C8642EDD8B9F1000F4C
:1075800003D0052065F3891002E0062065F39F50C3
:1075900061683A68114004EB8101C860606830445A
:1075A00060609DF80000FFF795FB5046BDE8F88F3E
:1075B00050280020A023002070B50D4604460A295B
:1075C00002D10D21FFF7F8FFA0682268411CA160DD
:1075D0001554D4E90101814204D32046BDE870402E
:1075E00001F04FBA70BD00000448816840688142D4
:1075F00001D1012070470020704700005028002072
:1076000010B50C460D281BD110481149401AC0086E
:10761000032101EB00400FA101F0F6FD15482246C1
:1076200013494088FFF71FFF00280DD0A0F54051F7
:10763000023909D0082807D043F20141884203D01B
:10764000BDE81040FFF7B8BA10BD0000C8BB02008B
:1076500070BB020053656E6420627574746F6E2097
:107660007374617465206368616E67652E00000045
:10767000FC230020F0220020034630B507480021FB
:107680000478426806E000BF02EBC10005789D4225
:1076900003D0491CA142F7DB002030BD302300207D
:1076A00005494FF0FF32082841F8202002D3084452
:1076B00080F848207047000058250020F0B54FF0B2
:1076C000FF3512B10023082601E008230C260C4CDC
:1076D00005E000BF54F823707F1C04D05B1CB3424C
:1076E000F8D32846F0BD26185DB286F8305044F82D
:1076F0002310002AF5D1E11881F84800F1E70000D5
:10770000582500200249084490F9300070470000D5
:10771000582500202DE9F0438146887891B09046A5
:107720000C4600B901208DF83E002088ADF83C00E1
:1077300000250095607C694603F0C2F86E46A07C87
:10774000711C03F0BDF8E07B00289DF8020002D018
:1077500040F0080001E020F008008DF80200217CD4
:1077600011B140F0100001E020F010008DF802008F
:10777000217B11B140F0010001E020F001008DF803
:107780000200217D09B1022100E0012161F34200E4
:107790008DF802001C2102A8FEF753FE607BC10693
:1077A00001D4800617D50E950EAFE07C791C03F04E
:1077B00087F89DF83800079720F00F00401C20F054
:1077C000F00010308DF838009DF83A0020F00600E7
:1077D000801C8DF83A00607B8DF80800A07B8DF846
:1077E0000900142109A8FEF72CFE0FA8CDE909060F
:1077F000A088ADF83000A06820B1E088ADF82C007A
:10780000A0680D90A06998B301950088ADF81000AC
:10781000A06901AD01A94088ADF81200A0694068D7
:1078200006950390A069007B03F04AF8A069691CE3
:10783000407B03F045F8A069807A00289DF8060097
:1078400002D040F0080001E020F008008DF80600AA
:10785000A169C97A11B140F0100001E020F01000D8
:107860008DF80600A169097A19B140F0010002E023
:107870000DE020F001008DF80600A169897B09B1B7
:10788000022100E0012161F342008DF80600E06969
:1078900000B10590434609AA02A94846AADF11B0E3
:1078A000BDE8F08370B5084C050009D0103421689C
:1078B000002907D008682060496828468847F6E70D
:1078C0000834F4E770BD000044250020054A01217A
:1078D00020B1012805D19170FFF7E4BF517000205D
:1078E000FAE770474425002010B5D0E90234D1E909
:1078F0000220D11AA04101D3012010BD002010BDEB
:1079000073B58CB00646002000900D9880B100241D
:107910006D4621460DA800F060FE30B1009805EBE1
:10792000400084800098401C0090641C142CF0D30C
:107930002C2269463046FEF76BFD0EB070BD2DE976
:10794000F04117880646B81D14460D46984202D9E4
:107950000C20BDE8F0813188072206290AD34FF4B4
:10796000486C4FF6FF73614501D9994202D1708886
:10797000062801D21046ECE7604501D99842F9D1BA
:10798000994203D0984201D08142F3D80520E855AE
:1079900020881221401C80B2208029542088401C5D
:1079A00080B220804119308803F079FA2188084498
:1079B00080B220804119708803F071FA2188084450
:1079C00020800020C5E7FFF7F7B8000038B54A7AF5
:1079D0000F4B62B100220A725969002906D00122B8
:1079E0008DF80020ADF802006846884738BD0A7A55
:1079F00062B19B684C68024619462046FFF728F999
:107A00000028F3D0BDE8384002F0EEBE5B68F1E735
:107A1000AC24002070B588B0064600200590069082
:107A2000ADF81410ADF816100190029001AA05A946
:107A3000304690DF050021D001F0D6FF0346114803
:107A400011493246401AC108012000EB01400446AA
:107A50000E4901F0E4FBBDF8042012B9BDF80600A0
:107A600028B1BDF80630204609A101F0D8FBBDF8C9
:107A700008201AB12046164901F0CAFB08B0284672
:107A800070BD000070BB020070BB02001CB402009D
:107A90005468652072657175657374656420545807
:107AA0002F5258207061636B6574206C656E67742B
:107AB0006820697320746F6F206C6F6E6720627925
:107AC0002025752F2575206F63746574732E000053
:107AD00068B4020070B500240F4D10E0686800EB38
:107AE000C406307802F0CEF87178012901D0012166
:107AF00000E000214140307800F05CF9641C2878F7
:107B00008442EBDBD5E90401084303D0BDE87040B3
:107B100003F012B870BD00003023002010B5002122
:107B2000024800F086FD80F3100010BD6C2C002090
:107B30004FF480328A400168C1F848230068C0F8D9
:107B4000082370474FF4A07202EB810189B200F064
:107B5000A1B92DE9F04105460E464FF4A07000EBA7
:107B6000860081B228684FF48034B440984622F0F1
:107B70007F47C0F808432868C0F84843286801F0E8
:107B8000FFFC286800EB8600C0F840752868C0F844
:107B90004443B8F1000F02D02868C0F80443BDE8A0
:107BA000F0810068D0F804057047000070B5437993
:107BB000234C44F823204279231D03EBC202224CBC
:107BC0001579204A121BD4082DB10825022000EB9C
:107BD00004401EA130E005680A88C5F8082590F920
:107BE00004208978002A4FEA411104DB02F1E022E7
:107BF00082F8001405E002F00F0202F1E02282F8A0
:107C0000141D90F904100122002909DB01F01F0561
:107C100002FA05F54909890001F1E021C1F8005196
:107C20004179002503EBC1010A71417943F8310024
:107C3000032000EB04400EA101F0E6FA284670BDD7
:107C40006C230020B0BB020070BB020052544320E2
:107C5000696E7374616E636520616C7265616479CD
:107C600020696E697469616C697A65642E00000030
:107C70005254433A20696E697469616C697A65642B
:107C80002E00000090F90400002809DB00F01F021C
:107C9000012191404009800000F1E020C0F800126D
:107CA00070470A46022100F07BB84FF4827100F061
:107CB000F1B800680121016070470068012141604E
:107CC00070472DE9F05F07460C464FF4A07000EBBB
:107CD00084001FFA80FA38684FF48036A6409B462D
:107CE00022F07F45C0F848633868C0F808633868F8
:107CF000D0F8048500EB8402D2F84095C2F84085A4
:107D00005146386801F03CFCA9EB080020F07F40A8
:107D1000012806D1102001F0D3FE5146386801F049
:107D20002FFC3868D0F80485C0F84463A5EB08013F
:107D300021F07F413868012900EB840010D0C0F8A1
:107D400040553868D0F804156FF07F4C6A1A521EFF
:107D500022F07F42ACEB0B03934217D362B118E0E1
:107D60006D1CC0F84055102001F0AAFE3868D0F80C
:107D7000040540450AD10CE000EB84006D1CC0F8FE
:107D800040553868D0F80405884202D00D20BDE87F
:107D9000F09F01223146384600F002F80020F6E755
:107DA0000368C3F84413002A02D00068C0F8041323
:107DB000704700002DE9F84F0E463449804601EB2C
:107DC0005001C007097801D00F0901E001F00F0749
:107DD0004FF00009424601204946FEF705FBDFF857
:107DE000B0A004460D46052F4ED2DFE807F003167B
:107DF0001B282C00002E47D00121404602F0B6FD82
:107E00008DF800906846FEF741FF5046D0E9041215
:107E10000C431543CAE9044532E00EB1022114E0D7
:107E2000002112E04EB10321404602F09FFD404682
:107E3000BDE8F84F012103F0D7B8012105E0002E7D
:107E400022D1042101E02EB103214046BDE8F84FC4
:107E500002F08CBD0021404602F088FD0021404622
:107E600003F0C2F88DF800906846FEF70FFF504609
:107E7000E243D0E904341A4024EA0501CAE90421A6
:107E80009DF80000FEF726FFBDE8F88F28260020A9
:107E90003023002010B5006842581AB101F070FB81
:107EA000012010BD002010BD0AB100F0A1BB00F000
:107EB00089BB000010B50B48FFF773FE094A083A6A
:107EC000D2E90434C018D2E9063244F10001C31AE1
:107ED00071EB020204D24FF08072801841F1000170
:107EE00010BD00005023002010B5C0B2FFF7C4FB46
:107EF0000446007801F0C6FE01466078012801D0F2
:107F0000012000E0002090EA010F08D00449D1E9E7
:107F10000401084303D1BDE8104002F00DBE10BDBE
:107F2000302300200146034802888A4200D0002006
:107F300070470000982400202DE9FC5F0E00834666
:107F4000DDE90C47C6F1000098469246814600D410
:107F50000846012503E000BF90FBFAF06D1C504578
:107F6000FADAA84500D9454624B1002E01DB78078E
:107F700000D5641EB80702D5B8F1000F0AD0F80783
:107F800008D13CB1A54205D220215846641EFFF716
:107F900013FBF6E7002E02DA4E462D2102E07807A9
:107FA00003D52B215846FFF707FB07F003000228F3
:107FB0000BD1B8F1000F08D13CB1A54205D2302158
:107FC0005846641EFFF7F8FAF6E7CDE90047434646
:107FD00052463146584602F067FFBDE8FC9F00005C
:107FE00070B50D46044600684FF4887101F01CFD21
:107FF0004FF49071206801F017FD4FF492712068E2
:1080000001F012FD4FF4A271206801F00DFD4FF454
:10801000AC71206801F008FD20681249C0F8041313
:108020002068690740F30730090E002804DB00F1DF
:10803000E02080F8001405E000F00F0000F1E020DF
:1080400080F8141D206840F30730002809DB00F099
:108050001F02012191404009800000F1E020C0F89A
:10806000001170BD10034200024600201268530741
:1080700013D502F00300012802D002280CD105E03C
:10808000C2F383100B68801C184404E002230868C4
:1080900003EB92521044086001207047F0B58488C9
:1080A000A518944200D82246A41AC288D6189A422B
:1080B00000D81346D21A4B880788BB420CD340889D
:1080C000834209D88888A04206D3A84204D8C88829
:1080D000904201D3B04201D90020F0BD0120F0BD93
:1080E0000B480C4910B5401AC008032101EB0044AD
:1080F0004FF0020022B1FFF703FA204606A103E089
:10810000FFF7F6F9204609A1BDE8104001F07CB860
:10811000C8BB020070BB0200526563656976656486
:10812000204C4544204F4E210000000052656365FD
:1081300069766564204C4544204F46462100000086
:108140001721018041800021017141711B21817142
:10815000C17170472DE9FF410026244800F055FA0F
:108160002248001F074600F050FA214C2149A06820
:1081700000900D6800E000986946284004EB8000FC
:108180000C30FFF771FF0028F5D101AA009901EA30
:10819000050304EB8303491CDB6842F82030401CD4
:1081A00000910228F2D3019800F0030001280BD0BF
:1081B000022810D10198032101EB90500099BDF8DD
:1081C0000A6001EB900005E00198BDF80A60C0F379
:1081D000831008440090384600F014FA08B1009863
:1081E000A06004B03046BDE8F0810000682C00209B
:1081F00050280020A023002088B04FF480410020A8
:1082000001F06EF808B1FEF7D7FC00F0D5FE0220B1
:10821000FFF744F9FEF7EEFC08B1FEF7CDFC40F2A3
:10822000333201214748FEF745FC08B1FEF7C4FC94
:1082300001F060F908B1FEF7BFFC01F0F7FA08B1F0
:10824000FEF7BAFC002469460120009401F0A8F969
:1082500008B1FEF7B1FC684601F022FA08B1FEF75A
:10826000ABFC9DF8080038A120F00F00401C20F066
:10827000F00010308DF808000D2202A87CDF08B154
:10828000FEF79AFC00945020ADF80000A020019465
:10829000ADF80200ADF804404FF4C870ADF8060028
:1082A00068467ADF08B1FEF787FC00212A4800F013
:1082B0002BFA08B1FEF780FC284801A9CDE900405F
:1082C0002548143000F0E5FA08B1FEF775FC2448A3
:1082D0000090214869461838FFF74CF808B1FEF7BE
:1082E0006BFCFEF74FFB1C216846FEF7AAF84FF423
:1082F000A020CDE90040801002901A480590032587
:1083000019488DF80C500690ADF80E408DF81040CD
:108310006846FEF743FE08B1FEF74EFC13481449C9
:10832000401AC00805EB004012A100F06DFFFEF7F7
:108330007BFB00BF00F04EFE0028FBD101F0EEF801
:10834000F8E70000F42200204E6F726469635F4218
:108350006C696E6B790000001424002061950200A6
:10836000E180020035A20200C7790200C8BB02000A
:1083700070BB0200426C696E6B79206578616D702C
:108380006C6520737461727465642E0070B5144658
:1083900082880E4605462088111D0144921C994290
:1083A00001D8FE2A01D90C2070BD521C32542088FD
:1083B000FF21401C80B2208031542088401C80B2B4
:1083C00020808119288802F06AFD2188084480B243
:1083D0002080AA8842B1A96841B13044FEF718F85C
:1083E0002088A98808442080002070BD072070BD27
:1083F0002DE9F047C5881E1DB6FBF5F78946B6FB8B
:10840000F5F1044605FB176C407916686843DDF802
:1084100020A0F718001F874200D9C61A166001E095
:108420002468491E0029FBD1A5EB0C078846B742FA
:1084300016D818E004EB0C00001D09EB0803BAF194
:10844000000F3A4602D00146184600E01946FDF7F3
:10845000DFFF2468F61B4FF0000CB844B54201D989
:10846000374600E02F46002EE4D1BDE8F08700003B
:1084700030B5024651B100F047FF0021074C08E03B
:1084800034F821301568AB4202D11160002030BDB4
:10849000491C8142F4D3052030BD000000000000DB
:1084A000F8B50F46017814460546012901D16878D0
:1084B00030B12088821C9A4232D8012902D006E0CD
:1084C0000720F8BD69780144891C994228D8181AF8
:1084D000801E86B2ADF800602188B81C0844694649
:1084E0007DDF0028EDD12978022904D06878BDF815
:1084F0000020904205D3BDF80000B04201D8092009
:108500000AE00820012905D16978B14202D8ADF806
:10851000001001E0ADF80060BDF80010FE2901D99F
:108520000C20F8BD2288491CB9542188491C89B205
:10853000218078542088401C2080BDF80010084419
:1085400020800020F8BD10B531B1B2FBF3F403FB7D
:1085500014241CB1092010BD0E2010BD01600021A3
:10856000416081608281C381084610BD70B50C46B0
:108570000546FDF751FE002802D0218828680844EE
:1085800070BD10B50A8849888A4203D1FDF786FE7E
:10859000012010BD002010BD70B50C460546FDF74A
:1085A00060FE002802D061882868084470BD10B5BC
:1085B0000A8849888A4203D1FDF74AFE012010BD8E
:1085C000002010BD01F01F0301229A40D243490947
:1085D00000EB8100114600F021B84A0950F8220052
:1085E00001F01F0201219140084000D00120704796
:1085F00001F01F0301229A40490900EB8100114656
:1086000000F01CB8002100F00FB8012100F016B8EE
:1086100008B56A46FDF797FE009808BD08B56A469A
:10862000FDF777FE009808BD08B56A46FDF771FEB4
:1086300008BD08B56A46FDF753FE08BD08B56A4691
:10864000FDF75AFE009808BD08B56A46FDF788FE9A
:10865000009808BD38B5044600258DF800506846DE
:10866000FEF714FB21686268086890420ED9401E2C
:1086700008600178238AE26801FB0325227A2168D9
:10868000101AC0B20A79824200D208719DF8000027
:10869000FEF720FB284638BD38B5054600208DF88A
:1086A00000000C466846FEF7F1FAE868298A201AAD
:1086B000B0FBF1F12A681068431C136001709DF84B
:1086C0000000FEF707FB38BD10B530B1017A4268F3
:1086D0000368891AC9B21A6006E00E2010BD03684B
:1086E0001A68541C1C601170491EC9B2F7D2006888
:1086F00000210171084610BDC20800F007030120E7
:10870000895C98400840704710B560B1016117213D
:1087100020F8021B20F8021B1B2100F8021BFFF7A8
:108720000FFD002010BD0E2010BD0000F0B58588A3
:1087300093B00C46002D39D1018800263F4F2429E3
:108740003BD006DC102909D011290CD0232958D19F
:108750004FE03A290BD0552953D129E00146204654
:1087600001F076FD4DE0A01DFFF7EAFC49E022464E
:10877000408934F8061F814200D8084660801728D7
:1087800000D217206080106970B1607960B1D7E9BC
:108790000001CDE90301ADF80E506088ADF810007E
:1087A000136903A9104698476671267113B0F0BD8E
:1087B0000146204601F0A0FD23E0011D2C2206A861
:1087C000FDF726FEBDF81800BDF81C2004EBC00123
:1087D0004A732269AAB1D7E90423CDE90423ADF88D
:1087E0001200487B8DF814002269204604A99047A6
:1087F00007E0017A207B884200D201462846FFF735
:1088000009F9A07A0028D1D0E1882846A5DF012502
:1088100080B11128CAD001F0E7F80246084809499A
:1088200013B0401AC00805EB0040BDE8F04006A1B7
:1088300000F0EEBCA672E572B8E70000E4B00200FA
:1088400070BB020070BB020073645F626C655F679F
:10885000617474635F65786368616E67655F6D748A
:10886000755F7265717565737428292072657475FA
:10887000726E65642025732E0000000020B102781E
:10888000DE2A03D0082070470E2070474180002068
:10889000704760B159B10278DE2A0AD00968416098
:1088A000DE2101704FF6FF714180002070470E20DD
:1088B0007047082070477FB5054600294DD0002D30
:1088C0004BD008780C46DE2847D1A88861888842BA
:1088D00002D1204602F076FB2888012825D0022804
:1088E0003BD011283AD0512837D135F8040F618890
:1088F000884232D1A978A81C02292ED1017A0429F4
:1089000003D0062901D0052927D100210091022298
:108910008DF8002001914FF4C07202910391ADF8DF
:108920000420007A05280FD010E0297A204601297A
:1089300013D1A988428891420FD10121017204B05C
:10894000BDE8704002F03EBBADF8041028886946CF
:10895000B0DF002801D0616888477FBDA8886188A2
:108960008842FAD14FF6FF7060807FBD00F18040F1
:108970000068002800D00120704708B500F1804051
:10898000002101600068009008BD000070B50D4C2A
:108990000125207808B185260EE00020A0606060E7
:1089A0002061E060084801F063F8064600F08AFFA5
:1089B00008B901F047F8257001F03CF800B1A57046
:1089C000304670BD44250020CD78020038B5002522
:1089D0008DF800506846FEF759F9084CE068401ED3
:1089E000E060E06828B901F025F810B901F050F80E
:1089F000A5709DF80000FEF76DF938BD44250020F4
:108A0000F0B505460478154889B0164640F824208C
:108A1000124A0869121DA2F1080742F82400487F93
:108A2000385520226846FDF7F3FC04942878385C1A
:108A300048B10EB10A4A00E000226946281D01F043
:108A4000DBFA09B0F0BD0EB1064A00E0002269462B
:108A500005F10C0001F09AF9F3E70000182300205B
:108A60005DAD0200A5AB02000FB408B50399002963
:108A700004D004AA00926A4600F00FF801B05DF835
:108A800014FB10B582680446002A05D0D4E904031B
:108A9000216898470020A06010BD2DE9FC47914651
:108AA0000C00804676D014F8011B39B125290ED070
:108AB0004046FEF781FD20780028F4D198F80C009C
:108AC000002867D04046BDE8FC47FFF7DABF00202A
:108AD000012221782B291BD02D2902D0302908D141
:108AE00002E040F0010001E040F00200641C002AB6
:108AF000EFD100252A290ED02178A1F130020A2ACF
:108B000011D205EB850201EB4205641C303DF1E713
:108B100040F00400EAE7D9F800100B1DC9F8003056
:108B20000968641C0D44217800232E290BD114F808
:108B3000011FA1F130020A2A05D203EB830201EBE7
:108B40004203303BF3E76C290DD068290BD069292B
:108B500021D00BDC252918D0582931D063290ED01B
:108B6000642915D117E014F8011FECE7702969D0CA
:108B7000732932D075291BD0782909D120E0D9F882
:108B80000000011DC9F8001001784046FEF714FDF1
:108B9000641C90E76CE0D9F800100A1DC9F80020A9
:108BA0000968CDE900500A224046FFF7C5F9EFE712
:108BB000D9F800100A1DC9F8002009680A2206E049
:108BC000D9F800100A1DC9F8002009681022CDE963
:108BD0000050404602F068F9DAE7D9F800100027A3
:108BE0000A1DC9F800200E68C00705D112E04046F2
:108BF000761C7F1CFEF7E0FC31780029F7D104E0F9
:108C0000202140466D1EFEF7D7FCBD42C0D9002D85
:108C1000F6D1BDE74EB13046FDF71EFC074604E035
:108C2000202140466D1EFEF7C7FCBD4206D9002D2F
:108C3000F6D103E04046761CFEF7BEFC31780029F1
:108C4000F8D1A5E7D9F80000011DC9F800100568A2
:108C500030214046FEF7B0FC78214046FEF7ACFCE0
:108C600008200021CDE90001034610222946B0E783
:108C7000BDE8FC8770B541EA4201DDE904564FF0DA
:108C8000A04441EA830141EA052104EB800041EA66
:108C90000641C0F8001770BD70B541EA4201DDE938
:108CA00004564FF0A04441EA830141EA052104EB58
:108CB000800041EA0641C0F8001770BD70B541EA76
:108CC0004201DDE904564FF0A04441EA830141EA44
:108CD000052104EB800041EA0641C0F8001770BD91
:108CE00070B541EA4201DDE904564FF0A04441EA83
:108CF000830141EA052104EB800041EA0641C0F806
:108D0000001770BD1CB5002100910B460122019196
:108D1000FFF7D4FF1CBD1CB5002100910B460122BA
:108D20000191FFF7DDFF1CBD1CB500220B46009230
:108D300011460192FFF7C2FF1CBD1CB500220B4675
:108D4000009211460192FFF7CBFF1CBD1CB500211C
:108D500000910B46012201911146FFF7AFFF1CBDA8
:108D60001CB5002100910B46012201911146FFF72D
:108D7000B7FF1CBD4FF0A04202EB8000D0F80027E7
:108D800022F44032C0F80027D0F8002742EA01411F
:108D9000C0F800177047000038B5094B44181B682D
:108DA00000936B4608E000BF53F82010D1F820551F
:108DB00020C2C1F82055401C8442F5D838BD0000BF
:108DC0000CB1020042094FF0000100D1491E00F031
:108DD0001F00012282400A4201D00120704700207A
:108DE000704701224FF0A043824011B1C3F808251B
:108DF0007047C3F80C257047034908B508440021A3
:108E000001600068009008BD0060004002494058C1
:108E1000012800D0002070470060004030B5154A9E
:108E200001460020D2F8104423460AE0DB681D7991
:108E3000854205D1401C0A28F6DB4FF0FF3030BDDB
:108E40001B68002BF2D1431CF9D0CB681871D2F803
:108E5000103443B1DB68CC681B682360D2F810245F
:108E6000D268116030BDC2F81014C96800220A60CF
:108E700030BD000050280020F0B595B01C461546C6
:108E80000E4608461A9F00F00FFB182109A8FDF7AF
:108E9000D8FA0E97CDE909540023082203A93046D9
:108EA00000F017FB05980690BDF81000ADF81C0007
:108EB000BDF81200ADF81E0000208DF821000399C6
:108EC000082501F00300012802D0022816D02FE067
:108ED000C1F3C200C1F383178C0A8DF82000BA00D9
:108EE0002B460FA9304600F0F4FA09A8009006AB13
:108EF0003A460FA9204600F033FA19E0C1F3C20048
:108F00008C0D8DF82000082C01D2274600E00827A0
:108F10002B463A460FA9304600F0DBFA3D44E41BED
:108F200009AB06AA39460FA800F082F9002CEAD155
:108F3000304600F0BFFA15B0F0BD7047012001F0D7
:108F40004FBE0000084810B50178084A515C19B1BD
:108F5000001D01F0EBF802E00C3000F0E5FFBDE889
:108F60001040002001F03CBE842300201423002088
:108F700008B5034A00924023024AFFF77DFF08BD6F
:108F8000F9A70200B82600200A4A012902EBC00016
:108F900007D0022907D0032907D0042907D00020D1
:108FA000704702207047042070470079704740796D
:108FB0007047000070BB020010B5FFF7BFFF04212F
:108FC0000348FFF72BFF02490120C968487110BD13
:108FD00060BB02002DE9F04F8DB0FEF705FB18B124
:108FE00000200DB0BDE8F08F7D4C4FF0000BC4F8B1
:108FF00018B4BFF34F8F7B49A06802900D68D84624
:10900000284004EB80000BE0D4F8180470B96168C4
:109010000298814201D8A160E2E7284004EB800079
:109020000C3002A9FFF720F80028EDD1002009AA92
:10903000029901EA050304EB8303491CDB6842F84B
:109040002030401C02910228F2D3099800F003015D
:10905000022902D001294DD0A8E0810D5022894675
:10906000B2EB905F00D850210E4666F39F500990F6
:1090700008315D4800F0CFF9070077D000F014FA0E
:109080004346082209A9384600F02BFA029908F154
:10909000080A2940681A8000001D864223D9504DD5
:1090A0000C3530B1C2B204EB8101301A90460C315C
:1090B00004E02946F2B2002590462846C6B253463F
:1090C000384600F00EFA0AEB08032DB13246294665
:1090D0004FEA070000F005FA029909F1030001EBDD
:1090E0009000029039E004EB810153463246384645
:1090F0000C31EFE7C0F38311062900D3062161F399
:1091000089100990C0F38310801C8100364800F05C
:1091100082F907004AD000F0C7F94346082209A99E
:10912000384600F0DEF908F1080800260FE0029842
:10913000434600EA0501401C04EB81010290042231
:1091400038460C3100F0CDF908F10408761C099876
:10915000C0F38310B042EAD847B1D4F81054D4F821
:10916000180478B1384600F0A5F934E01EE0E8684C
:109170004079012804D12A68284639461268904768
:10918000E8680568002DF2D1384600F093F98DF8B3
:1091900000B06846FDF77AFDD4F8180408B90298C3
:1091A000A0609DF80000FDF795FD14E0D4F8104490
:1091B00005E02168204689688847E0680468002C3B
:1091C000F7D10A480A49401AC008022101EB0040C1
:1091D00008A100F019F8FEF707FA80F0010000E797
:1091E00050280020A0230020E8BB0200C8BB0200DA
:1091F00070BB02004261636B656E647320666C75C0
:10920000736865640000000000231A4601F0C6BBC5
:1092100008B5012300926A4601F0C0FB08BD1CB5E9
:10922000CDE9002302236A4601F0B8FB1CBD000013
:109230002DE9F0470E4680461C469246082940D844
:1092400094F80C90002020731946104601F050F954
:109250000025B54206D218F805201BA12046FFF7CD
:1092600003FC03E01AA12046FFF7FEFB6D1C082D4E
:10927000EFD318A12046FFF7F7FB0025B54212D225
:1092800018F805707E2F08D8FDF7BEF80068C05D9D
:1092900010F03E0F01D03A4600E02E220EA12046EB
:1092A000FFF7E2FB03E00DA12046FFF7DDFB6D1C9D
:1092B000082DE3D301222146504601F0FBF884F843
:1092C0000C90BDE8F08700002025303278000000C7
:1092D000202020007C00000025630000200000000A
:1092E000064910B500200870054800F0E1F8002894
:1092F00003D1044800F036F9002010BD50280020AA
:10930000E8BB0200E4B2020002480349401AC00868
:1093100070470000E8BB020070BB020013B568464E
:10932000FFF7A6F808B100201CBD0248009950F8CC
:1093300031001CBD70BB020070B508480125D0F893
:109340001044057007E0E0684571216820464968CF
:109350008847E0680468002CF5D170BD50280020D3
:109360002DE9FF4781460C9D00200C462F7B28737A
:10937000984616462946184601F0BAF8072E42D2FA
:10938000DFE806F004090F161F2A36004946284672
:10939000FFF76AFB37E0494628462268FFF764FB7F
:1093A00031E0D4E9002349462846FFF75DFB2AE077
:1093B000A0680090D4E9002349462846FFF754FBF3
:1093C00021E0D4E90201CDE90001D4E900234946B6
:1093D0002846FFF749FB16E004F1080007C88DE8AE
:1093E0000700D4E9002349462846FFF73DFB0AE081
:1093F00004F108000FC88DE80F00D4E900234946A6
:109400002846FFF731FB00222946404601F052F87A
:109410002F73BDE8FF872DE9F041058A80462D1F97
:109420004819C01CB0FBF5F0C6B24046FFF712F970
:10943000041E19D00020207101206071E5800027F2
:109440002546761EC4F800800BE04046FFF702F97F
:1094500060B16179491C6171286005467F1CC0F8C4
:109460000080B742F1D32046BDE8F081204600F0ED
:1094700002F80020F8E72DE9F041457901466B1E1E
:10948000002201E00968521C9A42FBD30F68014692
:10949000002605E038460C68FFF7FEF82146761CEA
:1094A000AE42F7D3BDE8F0810121001DFFF7B0B84F
:1094B000FFF70AB910B504460121001DFFF7C4F8F3
:1094C00010F0FF0F04D12046BDE81040FFF7D3BFD6
:1094D00010BD1CB501920122009201AAFEF788FF7F
:1094E0001CBD1CB501920022009201AAFEF780FF6C
:1094F0001CBD0000064910B500204870091D086019
:10950000BFF35F8F0349044800F000FA002010BD4C
:109510007823002070B10200AC26002008B500209E
:109520008DF800006846FDF7B1FBF1EE100A20F05F
:109530009F00E1EE100ABFF35F8F08494020C1F899
:1095400080029DF80000FDF7C5FB00F0BBF908B1F3
:1095500041DF08BD20BF40BF20BF08BD04E000E0E0
:10956000FDF72ABB826800219160826811618268E0
:1095700051618268D1608268516080680160704783
:1095800008B5002242504058009008BD20B1034960
:1095900009680160002070470E20704768B3020020
:1095A000FEB502460E460846FFF7F0FF002868D1D8
:1095B000002400940194012706208DF80020ADF8C6
:1095C000040002948DF8027069462020326869DF39
:1095D0002C492D4A891AC908012202EB014530B1F4
:1095E00000F002FA024628462849FFF711FE0094CF
:1095F0008DF801708DF80240019402948DF80340BB
:1096000069464020326869DF30B100F0EDF902466A
:1096100028461F49FFF7FCFD00940A208DF8000042
:109620000194029469460120326869DF30B100F08C
:10963000DBF9024628461749FFF7EAFD4FF4B06010
:109640000090019402946946A120326869DF30B12C
:1096500000F0CAF9024628460F49FFF7D9FD0094E9
:10966000019402948DF800406946A020326869DFB9
:1096700030B100F0B9F9024628460849FFF7C8FDA5
:109680000020FEBDD8BB020070BB020008BA020079
:1096900050BA020068B90200B4B9020014B902005D
:1096A0002DE9F0410546076860DF804619491A48F0
:1096B0002A68081AC608BA4219D9022000EB0644E3
:1096C00016A12046FFF7A0FD20463A461FA12B68B1
:1096D000FFF7A5FD4FF08050D0F80C0129688002FB
:1096E00000F10050421A204625A1FFF791FDB8F184
:1096F00000004FF001040AD000F076F9024604EBB6
:1097000006402AA1FFF784FD4046BDE8F0812F48BE
:109710000470F9E7D8BB020070BB0200496E737594
:109720006666696369656E742052414D20616C6C98
:109730006F636174656420666F722074686520537E
:109740006F66744465766963652E00004368616ED8
:109750006765207468652052414D2073746172748E
:10976000206C6F636174696F6E2066726F6D20305C
:1097700078257820746F20307825782E000000003E
:109780004D6178696D756D2052414D2073697A6520
:1097900020666F72206170706C69636174696F6EAE
:1097A00020697320307825782E00000073645F6292
:1097B0006C655F656E61626C6528292072657475E1
:1097C000726E65642025732E00000000F7230020D0
:1097D00030B5144891B00078002820D05FF03405EF
:1097E000ADF8405010A903A861DF30B1052816D0AC
:1097F00011B0BDE83040FDF7DFB903AC0A49684657
:1098000000F084F807E000BFD0E90021204690472F
:10981000684600F092F802980028E1D0F4E711B011
:1098200030BD0000F72300206CB302007CB5194C5A
:10983000207808B108207CBD0120A070002000F035
:10984000A5FF112819D0002000F0B8FF124800260B
:10985000006801908DF800606846FDF717FA0F491F
:1098600001A810DF05000AD0002020709DF800003C
:10987000FDF730FA2DB128467CBD00207CBD0120CB
:10988000F3E7A670667001F03FF8012000F096FF44
:10989000F3E70000F423002000B30200356B020060
:1098A0000EB50749684600F031F805E0D0E9001030
:1098B0008847684600F041F802980028F6D10EBDAE
:1098C0001CB302000148007870470000F423002018
:1098D0001FB568464BDF30B1052814D004B0BDE891
:1098E0001040FDF769B9084901A800F00FF806E03B
:1098F000D0E900210098904701A800F01EF80398D5
:109900000028E6D0F4E71FBD88B3020001600968B3
:109910004160AFF3008010B5D0E90021536899424F
:1099200001D1002104E0D1E90034A34202D019465C
:10993000816010BD08314160F0E7816800290BD0DB
:10994000026892680A44826041684B689A4203D177
:1099500008314160FFF7DFBF704770B50D4606461E
:10996000446804E0B2682946904718B1246820682A
:109970000028F7D120682860256070BD4068006825
:10998000704741680868002801D002680A60704783
:1099900002460020526806E08B4203D1086810603E
:1099A000012070471A461368002BF5D1704700005C
:1099B0000C4A10B502F594730EE0991AC91001EB28
:1099C000D171491002EBC1010C68844201D90B46E8
:1099D00002E005D201F108029A42EED3002010BD48
:1099E000486810BD90B1020000B5FFF7E1FF002804
:1099F00000D1014800BD00007CB1020040580028A1
:109A000000D00120704708B5002242504058009015
:109A100008BDD0F80403084000D00120704740582A
:109A2000002800D00120704708B50022425040585D
:109A3000009008BD02480068002800D0012070474F
:109A40000004014008480068012110F0010F06D110
:109A50004FF0E020C02280F800248430C167034921
:109A6000012008607047000000E100E01805004098
:109A70000649024600200B790BB1852070470A6029
:109A800001220A7100224A71704700002023002041
:109A9000022010B54107C1F808034FF48270FEF7A9
:109AA0006CFF05490120086004480168C1F30041CA
:109AB0000029FAD110BD00000C000040180400403D
:109AC000002802D0014980010847704741B10200D7
:109AD00010B5044600F074FC28B12046BDE81040E3
:109AE0000021FFF747B9204600F076FC00280FD090
:109AF0002046FDF707FE074A02EB8001D1F810353A
:109B000023F00103C1F8103501218140C2F8081388
:109B100010BD0000006000402DE9F0410E460546F2
:109B200000F04EFC0028284619D0FDF7EBFD083860
:109B300000F0B8FC032802D001280ED007E04FF057
:109B4000A040D0F81005E84010F0010F05D0032127
:109B50002846BDE8F041FFF70DB90221F8E700F013
:109B60003BFC002822D02846FDF7CCFD04464FF4EC
:109B7000807000EB84000E4F81B207EB8400D0F8B8
:109B8000102542F00102C0F810250846FFF734F90D
:109B9000002E0BD02846FDF7B5FD064951F82000F0
:109BA000002803D00120A040C7F80403BDE8F081DD
:109BB00000600040582500202DE9FC41DFF8B88006
:109BC000044608EB0400002790F930001346C01744
:109BD0000E46401C01D008274AE0B0781946C0F371
:109BE00040022046FDF76AFD0546401C3FD0B07894
:109BF000410717D4C0070AD04FF0A04000EB840003
:109C0000D0F8001721F00201C0F8001707E000218A
:109C10007378204600910A460191FFF73DF82046EF
:109C200000F0C0FBB078800718D51448317800EBFD
:109C30008500D0F81025124B1A40C0F810254FF4BB
:109C4000F8524FF4403302EA042203EA01410A4386
:109C5000D0F810150A43C0F8102509E008EB0500FC
:109C6000327810F8481F41EA8211017000E00427A1
:109C70003846BDE8FC810000582500200060004007
:109C8000FFE0FCFF4FF0A041D1F81015C14011F0EA
:109C9000010000D00120704770B5194D95F85800AB
:109CA00008B1082070BD0024661E2046FFF78AF820
:109CB00010B1281980F83060641CE4B2202CF4D371
:109CC00000242046FDF7ECFC641CE4B20C2CF8D315
:109CD00000200D4968650B4CC02081F80004012666
:109CE0004020891FC1F800014FF4BE70FFF784F8CF
:109CF000A004C4F8040385F85860002070BD00007B
:109D0000582500200060004006E000E0034890F87D
:109D10005800002800D0012070470000582500207E
:109D20000121B1EB507F01D1012070470020704725
:109D300038B50D4600F028FC040014D000208DF842
:109D400000006846FCF7A2FF207928B19DF80000CA
:109D5000FCF7C0FF112038BD0120256020719DF85F
:109D60000000FCF7B7FF002038BD10B500F00CFC78
:109D7000002802D000210160017110BD0149024894
:109D800000F056BFB4250020002000402DE9F0412E
:109D90000546007916460F4600EB40012D4A01EBBF
:109DA000C00102EB810494F82A1011B10820BDE82B
:109DB000F081294951F820102868FFF7B9FF08B150
:109DC0001120F4E739462846FCF79EFF66603869A3
:109DD000206030004FF001062FD03F7F4FF48E718E
:109DE0002868FFF710FE4FF4A2712868FFF70BFEFA
:109DF00028681A49C0F8041328684FEA471140F34D
:109E00000730002804DB00F1E02080F8001405E0B2
:109E100000F00F0000F1E02080F8141D286840F3E6
:109E20000730002809DB00F01F0106FA01F14009A4
:109E3000800000F1E020C0F8001128680421C0F87B
:109E400000150020A061E06184F8290044F8140F97
:109E5000A675ACE7B425002010B102008000020016
:109E60002DE9F05F054600790B4600EB400101EB60
:109E7000C000244901EB8004284600F045F810B1E9
:109E80001120BDE8F09F62614FF00009C4F82090F6
:109E9000A36084F828904FF48E784E464146286897
:109EA000FFF7B1FD28684FF0010AC0F808A021466D
:109EB000286800F04DFE606808BBD5F800B06769FF
:109EC0000FE000BF94F8280008B10F2615E04146C6
:109ED0005846FFF793FD0028F4D02146584600F07D
:109EE00037FE206AB842F2D3574641462868FFF74A
:109EF00085FD0028F9D02868C760C4F81490304662
:109F0000BFE70000B4250020007900EB400101EB21
:109F1000C000044901EB80004069002800D0012006
:109F200070470000B42500202DE9F0470446007971
:109F30004FF0000900EB400101EBC000284901EBA4
:109F400080072068C0F800957868B0B1206825497E
:109F5000C0F80813206840F3073000280DDB00F03C
:109F60001F02012191404009800000F1E020C0F86B
:109F70008011BFF34F8FBFF36F8F2068D0F80C258F
:109F8000D0F81485D0F80865D0F810554FF0FF319F
:109F9000C0F81415C0F80C152068C0F80815C0F8F2
:109FA0001015501C02D01046FEF7ACFEB8F1FF3F72
:109FB00002D04046FEF7A6FE681C02D02846FEF7F7
:109FC000A1FE701C02D03046FEF79CFE2068FFF711
:109FD000CCFE87F82A90C7F80490BDE8F08700000F
:109FE000B4250020840202000149024800F0CEBEE0
:109FF000E0250020002000402DE9F04105461646EE
:10A0000000790F46154A00EBC00102EB810494F879
:10A01000201011B10820BDE8F081114951F820103D
:10A020002868FFF785FE08B11120F4E73946284675
:10A03000FCF7AEFE6660386920601EB1397F2846A5
:10A04000FDF7CEFF28680821C0F800150020A061A8
:10A05000E0616061012184F82010DCE7E025002048
:10A0600014B102002DE9F04704460E460079274955
:10A0700000EBC00001EB800517463046FFF750FEAD
:10A0800030B1204600F044F820B11120BDE8F0873F
:10A090001020FBE76F61AE604FF490774FF000083F
:10A0A00039462068FFF7C0FC4FF4AC763146206893
:10A0B000FFF7BAFC2068AA686969C0F84425C0F8AF
:10A0C000481520684FF00109C0F808906868D0B9B9
:10A0D000BA4651462068FFF7A2FC07463146206881
:10A0E000FFF79DFC0743F4D010B14FF00F0808E0D4
:10A0F0002068C0F80C9031462068FFF790FC0028DB
:10A10000F9D0002068614046C0E70000E02500204B
:10A110000079054900EBC00001EB80004069002890
:10A1200000D0012070470000E02500202DE9F04715
:10A13000064600793D4900EBC00001EB800534681C
:10A1400068680127A8B13A49C4F80813306840F399
:10A15000073000280DDB00F01F0107FA01F140096C
:10A16000800000F1E020C0F88011BFF34F8FBFF3F3
:10A170006F8FD4F8000220F02000C4F80002A86914
:10A180004FF4A27820B141462046FFF74DFC6760AE
:10A190004FF4AC7949462046FFF746FCE760474656
:10A1A00049462046FFF73BFC0028F9D0A86928B1B2
:10A1B00039462046FFF733FC0028F1D04FF0000A63
:10A1C000C4F800A53068D0F80C25D0F81495D0F864
:10A1D0000885D0F810754FF0FF31C0F80C15C0F8A5
:10A1E00014153068C0F80815C0F81015501C02D0BE
:10A1F0001046FEF790FDB9F1FF3F02D04846FEF74A
:10A200008AFD781C02D03846FEF785FDB8F1FF3F85
:10A2100002D04046FEF77FFD2046FFF7A6FD85F8F9
:10A2200020A0C5F804A0BDE8F0870000E0250020CC
:10A23000100342000078002807D104483B214088E1
:10A2400076DF002801D0FCF7B7BC7047F022002071
:10A2500070B58D88027900EBC5042273C97BA41DFB
:10A26000012902D0022904D101E0008800E04088E1
:10A27000208021886088814211D92846A5DF0126E7
:10A28000B0B1112816D0FFF7AFFB02460B480C49BE
:10A29000401AC00806EB00400AA1FEF7B9FFA179F9
:10A2A000E079814208D92846BDE87040FDF7B2BB8D
:10A2B0006671F4E72671F2E770BD000070BB020022
:10A2C00070BB020073645F626C655F676174746386
:10A2D0005F65786368616E67655F6D74755F7265F1
:10A2E000717565737428292072657475726E656462
:10A2F0002025732E000000007CB506468D88C88896
:10A3000006EBC504A41D172800D21720218881421E
:10A3100000D8084660800020207121882846B5DFDB
:10A3200060B1FFF761FB02460F481049401AC008B0
:10A33000012101EB00400EA1FEF76AFF60790028C1
:10A3400010D1306900280DD01549D1E90201CDE9BD
:10A350000001ADF802506088ADF80400326969462A
:10A36000304690477CBD000070BB020070BB02000D
:10A3700073645F626C655F67617474735F65786353
:10A3800068616E67655F6D74755F7265706C792862
:10A39000292072657475726E65642025732E000025
:10A3A000E4B0020010B50549C20800F00703885C5C
:10A3B00001249C402043885410BD0000AC2500209F
:10A3C0000449084490F93000082801DB0120704757
:10A3D00000207047582500200449084490F93000B7
:10A3E000082801D20120704700207047582500201E
:10A3F0002DE9F05F2A4F06464FF0A04A4FF0010BBF
:10A400000024381990F95010491C3CD090F85000A5
:10A41000314620F0C0052846FEF76EF920B32046ED
:10A4200000F040F881460AEB8500D0F80007C0F341
:10A430000148B8F1020F18D002212846FEF79AFC15
:10A440000BFA05F1CAF820152846FDF75BF957F815
:10A4500020204AB14846B9F1030F11D0B8F1020FDC
:10A4600005D0B8F1030F07D00DE00321E5E748461A
:10A47000B9F1010F04D006E04846B9F1020F02D14C
:10A48000014628469047641C042CBAD33246012169
:10A490000020FEF781FC30680028B1D1BDE8F09FB4
:10A4A000582500200249084490F850008009704760
:10A4B0005825002010B50C46017A052908D0407AAD
:10A4C00038B1084808A102682046FEF7CDFA00E03E
:10A4D0001AB106A12046FEF7C7FA2046BDE8104093
:10A4E000FEF7CFBAD0230020257300000D0A00002C
:10A4F00038B5C3880D46044633B114A0009015A2A8
:10A5000016A12846FEF7B0FA217A05291CD0607AF8
:10A5100048B1A088FEF738FD164951F8202016A151
:10A520002846FEF7A1FAA0880021FEF7F7FE0346B1
:10A530001049207A143951F8202001B02846BDE88E
:10A5400030400EA1FEF790BA38BD00001B5B306DA5
:10A55000000000001B5B313B33316D0025734C6FF5
:10A5600067732064726F70706564202825642925E4
:10A57000730D0A00D0230020257300003C25733E94
:10A580002025733A200000000349884201D1034886
:10A590007047002070470000002000402823002062
:10A5A00070B50546FDF781FB134C40B1D4E90402B8
:10A5B0004FF08071411842F10000C4E904100021FD
:10A5C0002846FDF7BFFA30B1606820B1606800F03E
:10A5D0002FFA0020606001212846FDF7B3FA18B178
:10A5E000FDF768FCC4E90601284600F04DFA28464C
:10A5F000BDE8704000F034B84823002070B505462F
:10A6000000200C460870FDF755FCD5E90223101A0E
:10A6100063EB010300263146361A994112DAB0F590
:10A62000350F03D3FCF7D4FA0B4942184FF49603C5
:10A6300000210A48FDF745FB10B10D2806D009E0BE
:10A64000012070BD00210548FDF772FA284600F090
:10A65000EFF92070002070BDFFFFB40050230020F0
:10A66000F8B51A4C074600261948FFF787F9D0B10C
:10A67000616871B1D0E902106268D2E90232C91A88
:10A68000904120D26068007F18B161681048FFF7E0
:10A6900064F900F065F905466946FFF7AFFF98B128
:10A6A000606840B10AE0606800280CD13846BDE817
:10A6B000F840FDF702BB3846FDF7FBFA65609DF8F0
:10A6C00000000028D0D1F8BD6660CDE74823002007
:10A6D00028B1020070B5054688690C4600284FF481
:10A6E000847128460AD0FFF78EF9D5F81805626AFA
:10A6F000E1688854606A401C606270BDFFF783F9AE
:10A70000D5F8180570BD1FB501238DF80030CDE9CF
:10A710000121D0E90012684690471FBD1FB50123F3
:10A720008DF80030CDE90121D0E90012684690474C
:10A730001FBD000038B50021012548B1012810D007
:10A7400003280DD1FFF77EF9BDE83840FEF73EB98A
:10A750004FF0E020C0F88051BFF34F8FBFF36F8FF1
:10A7600038BD8DF800106846FCF790FA064C20784A
:10A7700008B9FEF70BF9E068401CE060A5709DF891
:10A780000000FCF7A7FA38BD442500203EB504467A
:10A7900009496846FFF7BAF808E000BFD0E9002190
:10A7A0002046904730B16846FFF7C7F80298002866
:10A7B000F4D13EBD11203EBD04B302003EB50446B7
:10A7C00008496846FFF7A2F807E000BFD0E900217A
:10A7D000204690476846FFF7B0F802980028F5D168
:10A7E0003EBD000010B3020002498969002900D073
:10A7F00008477047AC24002070B50D4C0020D2B241
:10A800002070201D0B4D0378EB5C1BB1001DFFF782
:10A8100029FC02E00C30FFF723FB08B1FCF7CCF970
:10A820006078002802D021780029FAD070BD00009D
:10A8300080230020142300202DE9F0410746806A80
:10A8400014468846C8B3002531E000BFB96A05EB5D
:10A85000450001EB8006B088801CFE2802D90C2040
:10A86000BDE8F0812288401C08F8020020881622EA
:10A87000401C80B2208008F800202088401C80B254
:10A88000208000EB0801308800F009FB2188084493
:10A8900080B22080B28842B1B16871B14044FBF708
:10A8A000B7FD2088B188084420806D1CEDB297F870
:10A8B0002C00A842CAD80020D2E7FFE70720CFE744
:10A8C0000A78062822F0FF020A7010D2DFE800F0B2
:10A8D000030507090B0D002008E0112006E02120E8
:10A8E00004E0312002E0122000E0222008707047CE
:10A8F000002805D10349012048700020FCF7D2BF91
:10A90000704700004425002010B51620FCF728F8F9
:10A91000A0B1114890F800044009082811D2012183
:10A92000814011F0EC0F0CD00C4882684FF480018C
:10A930006AB1016841F48001016010BD42F201007A
:10A9400001E042F20200BDE81040FCF735B94FF0DB
:10A95000E020C0F8001110BD16E000E0A0260020A5
:10A960000148FFF70EB8000028B10200C207002A14
:10A9700003D000BF4FF00F0201E04FF0F00201D012
:10A980004FEA0111044B03EB5003187800EA020070
:10A9900040EA010018707047282600202DE9F84F82
:10A9A000074621489146884605681E4601226946A9
:10A9B0001846FCF7B7FDDFF874A060B300980021DB
:10A9C0000446801C0AE000BF00EA050259F821C0D5
:10A9D0000AEB8202401C491CC2F80CC0B142F3D3FE
:10A9E0004FEA1749FDF79AF8611C29400AEB8101EB
:10A9F00049EA00422C40CA600AEB8401C86867F348
:10AA0000C50066F3891068F39F2020F00300401C06
:10AA100020F00400C8609AF8000001E0FEF7DAFABE
:10AA20000028FBD1BDE8F88FA0230020502800208B
:10AA300070B50446124800250078F8B1F4B1207FC3
:10AA4000E0B1FDF737FAD4E90223801A994110D317
:10AA50002069002600B92677D4E9051088472069C7
:10AA600060B1217F51B1D4E9022110187141C4E9CC
:10AA7000020121460348FEF770FF0125284670BDFC
:10AA80004823002028B10200F8B51B4C6946206815
:10AA9000FDF782FD00260127184D29E0017821B13C
:10AAA00001290CD002291BD114E041680A7FBAB9F0
:10AAB0000F77416810480830FEF74FFF10E04168FB
:10AAC0006868814201D16E600AE00B480830FEF7E9
:10AAD0005FFF05E0FFF744FF08B10677FAE72F7044
:10AAE00069462068FDF74DFD69462068FDF754FD75
:10AAF0000028D3D1F8BD000020B102004823002077
:10AB0000F8B50B4C0D46064669462068FDF72EFD4C
:10AB100058B10670456069462068FDF748FD10B1E0
:10AB20000448FDF7AFF80020F8BD0420F8BD000090
:10AB300020B10200502300200348806841080348E8
:10AB400000224068FCF784B83023002018B10200CE
:10AB500070B50C4605464FF48E71FEF754FF216A1E
:10AB6000A068415C206A401C2062C5F81C1570BDBD
:10AB70001FB500228DF80020029181680191426189
:10AB8000D0E90012684690471FBD1FB500228DF81E
:10AB900000200291816801914261D0E9001268466B
:10ABA00090471FBD1FB50A4601788DF80010416817
:10ABB0000191017A8DF80810C0680390044850F89C
:10ABC0002210001F50F82220684690471FBD000049
:10ABD0001C230020014901200870704780230020B9
:10ABE00010B588B0044620220E496846FBF710FCD9
:10ABF00006200090C01F0190029003904FF0EB7070
:10AC000006900CB1084A00E0002269460748FDF7AB
:10AC1000F7FE08B1FBF7D0FF0448001F447008B0EE
:10AC200010BD0000C4B20200D5AB02008423002096
:10AC30002DE9FF470C4605464FF40071FEF7E9FE8B
:10AC400001274FF40178002618B34FF49279494652
:10AC50002846FEF7D3FEE0B149462846FEF7D3FE6C
:10AC6000C5F8088394F8290000B96F6002208DF8B8
:10AC70000000D5F88004C5F880040390A069029014
:10AC8000E0680190A661E661D4E900126846904749
:10AC900028E004212846FEF7BCFE18B34FF4847167
:10ACA0002846FEF7ABFEE8B121462846FFF712FD25
:10ACB000616AA069884215D1E06938B1E268616AC9
:10ACC000A0612069E6616662E06008E094F829000E
:10ACD00000B96F60C5F80883A661E268616A204622
:10ACE000FFF711FD4FF48E7841462846FEF786FEA9
:10ACF00080B16069216A814202D294F8280028B3A9
:10AD000041462846FEF77FFE606918B1616920461A
:10AD1000FFF72EFF4FF4A27841462846FEF76EFE5D
:10AD2000002818D041462846FEF76DFE94F8290009
:10AD300000B12F60A06900280DD0A661E268616AA9
:10AD400004B02046BDE8F047FFF7DDBC21462846A9
:10AD5000FFF7FEFEDEE7BDE8FF8700001FB50A46ED
:10AD600001788DF8001041680191017A8DF8081082
:10AD7000C0680390044850F82210001F50F82220A9
:10AD8000684690471FBD00001C2300202DE9FF41AD
:10AD90000C464FF4927705463946FEF740FE0026F2
:10ADA000B8B139462846FEF73FFE02208DF8000074
:10ADB000D5F88004C5F880040390D5F83C050290CE
:10ADC000E0680190A661E661D4E900126846904708
:10ADD00023E04FF4887739462846FEF720FEE0B19D
:10ADE00039462846FEF720FED5F83C15A069884272
:10ADF00013D1E06960B1E268D5F8000220F02000CC
:10AE0000C5F80002E069A0612069E661E06001E048
:10AE1000A661E2682046FFF781FC4FF4A27739462D
:10AE20002846FEF7FCFD68B139462846FEF7FCFDD2
:10AE3000A06938B1A661E661D5F83C152046E26804
:10AE4000FFF76CFC4FF4907631462846FEF7E7FD9D
:10AE500060B131462846FEF7E7FD0120E8606069F1
:10AE600020B1D5F84C152046FFF78FFE4FF4AC7695
:10AE700031462846FEF7D3FD00280ED0314628463D
:10AE8000FEF7D2FD6069002807D0D5F84C1504B054
:10AE90002046BDE8F041FFF778BEBDE8FF810870AD
:10AEA000000A4870022070472DE9F05F8346DDE913
:10AEB0000A4A994690460D460846012703E000BF1E
:10AEC000B0FBF8F07F1C4045FAD2B94500D94F4697
:10AED0005FEACA7012D18CB15FEA8A7002D5B9F10B
:10AEE000000F01D0202607E0302605E03146584605
:10AEF000641EFCF761FB0CB1A742F7D35FF00106BB
:10AF0000B9F1010F02D9A9F1010903E0B5FBF6F08F
:10AF1000404502D306FB08F6F2E7DFF83C9000BF9D
:10AF2000B5FBF6F000FB165519F800105846FCF773
:10AF300043FBB6FBF8F6002EF2D15FEACA7009D0E7
:10AF4000002C07D0A74205D220215846641EFCF7EA
:10AF500033FBF5E7BDE8F09F46B10200F8B50546C2
:10AF600080B2FCF7DFFF040013D0154E207A0027D3
:10AF7000317B88420ED2A8B204F10A0175DF28B1F4
:10AF8000112806D0BDE8F840FFF72EBC207A401CFF
:10AF90002072F8BD2772307C38B1A8B23B2176DF31
:10AFA00018B1082801D0FFF71FFC71690029F0D003
:10AFB0008DF80070ADF8025068468847F8BD000073
:10AFC000AC24002030B40446007A00280AD06088FF
:10AFD000002166DF28B1112802D0616830BC084723
:10AFE0000120207230BC704770B50C460546FCF756
:10AFF00043FB002807D04268002A04D02146284697
:10B00000BDE87040104770BD2DE9FC411646DDE9F2
:10B010000854CDE900541F468046022200F00CF887
:10B02000002807D1CDE900543B4610223146404666
:10B0300000F002F8BDE8FC812DE9FC5F0026DDE9A7
:10B040000C4B994692468E4680462788354630E01E
:10B05000D8F80400002200EB8500694600680190E2
:10B0600001A864DF002830D19DF8000050451FD1B1
:10B070000EB1002100E00221228808441118594530
:10B0800022D846B9521C90B2208009F800E02088EE
:10B09000401C20800126218801A801EB0902694695
:10B0A00064DF002811D120889DF80010084420801A
:10B0B0006D1CB8F80000A842CADC56B12088C01B3D
:10B0C000401E80B2FF2802D90C20BDE8FC9F09F881
:10B0D00007000020F9E700002315000011121314E7
:10B0E0000D0E0F10770A000000000000770A000024
:10B0F000000000007ADA00000000000023D1BCEA62
:10B100005F782315DEEF12120000000000000050EF
:10B110007D9D0200E99F0200030000000826002038
:10B1200038260020010006000000000068230020EF
:10B13000E9780200000000000000000000000000AC
:10B140000338FDD87047303132333435363738392B
:10B15000414243444546000000000000000000005A
:10B1600000000000000000000000000000000000DF
:10B1700058B1020070B1020004000000556E6B6E01
:10B180006F776E206572726F7220636F6465000066
:10B190000000000038B8020001000000E4B6020020
:10B1A00002000000D8B402000300000058B70200FB
:10B1B00004000000ACB70200050000008CB60200DD
:10B1C0000600000028B602000700000094B7020045
:10B1D00008000000A0B602000900000004B7020049
:10B1E0000A00000020B802000B000000C0B40200FA
:10B1F0000C000000B8B602000D00000088B8020084
:10B200000E00000084B702000F000000C0B702006B
:10B2100010000000F4B70200110000009CB802000A
:10B220001200000070B80200130000000CB8020009
:10B230008000000040B60200810000007CB50200E2
:10B24000820000003CB50200830000001CB5020033
:10B250008400000058B502008500000064B60200BA
:10B26000860000006CB702009000000008B60200E3
:10B2700091000000FCB4020092000000CCB6020075
:10B2800000820000D4B702000182000020B7020053
:10B29000028200003CB702000084000098B5020062
:10B2A0000184000044B8020002840000E0B50200FE
:10B2B00003840000BCB50200718F0200458F0200BC
:10B2C0003B8F0200FFFFFFFFFFFFFFFFFFFFFFFFBE
:10B2D000FFFFFFFF00000000000000000000D6019B
:10B2E00006010000B82700207F0000003828002059
:10B2F000000000000000000000000000000000004E
:10B3000001000007F0B2020000B3020008000000D4
:10B3100028B3020038B302000800000038B302006E
:10B3200048B302000800000044BC02004CBC02000C
:10B33000000000000000000034BC020044BC020019
:10B340000000000000000000FCBB020004BC020082
:10B3500004BC020014BC020014BC020024BC0200A5
:10B3600024BC02002CBC0200F022002048B30200E2
:10B3700068B30200080000002CBC020034BC0200CC
:10B38000000000000000000078B3020088B3020053
:10B3900008000000004040404040404040404141E3
:10B3A000414141404040404040404040404040409A
:10B3B0004040404040050202020202020202020234
:10B3C0000202020202202020202020202020200231
:10B3D00002020202020290909090909010101010C1
:10B3E000101010101010101010101010101010105D
:10B3F00002020202020288888888888808080808F1
:10B4000008080808080808080808080808080808BC
:10B41000020202024000000095B3020073645F6202
:10B420006C655F6761705F646174615F6C656E67B6
:10B4300074685F757064617465282920287265716D
:10B440007565737429206F6E20636F6E6E6563740B
:10B45000696F6E20307825782072657475726E651C
:10B46000642025732E000000546865207265717594
:10B47000657374656420636F6D62696E6174696F72
:10B480006E206F6620545820616E642052582070E0
:10B4900061636B6574206C656E6774687320697393
:10B4A00020746F6F206C6F6E672062792025752085
:10B4B0006D6963726F7365636F6E64732E00000055
:10B4C0004E52465F4552524F525F494E56414C498B
:10B4D000445F4441544100004E52465F4552524F32
:10B4E000525F534F46544445564943455F4E4F546F
:10B4F0005F454E41424C4544000000004E52465FBD
:10B500004552524F525F464541545552455F4E4F4A
:10B51000545F454E41424C45440000004E52465F48
:10B520004552524F525F4D555445585F554E4C4F02
:10B53000434B5F4641494C45440000004E52465F34
:10B540004552524F525F4D555445585F4C4F434BF7
:10B550005F4641494C4544004E52465F4552524F6A
:10B56000525F4D555445585F434F4E445F494E49D5
:10B57000545F4641494C4544000000004E52465F2E
:10B580004552524F525F4D555445585F494E4954AC
:10B590005F4641494C4544004E52465F4552524F2A
:10B5A000525F424C455F495053505F52585F504B79
:10B5B000545F5452554E4341544544004E52465FE9
:10B5C0004552524F525F424C455F495053505F5075
:10B5D0004545525F52454A454354454400000000EA
:10B5E0004E52465F4552524F525F424C455F495062
:10B5F00053505F4C494E4B5F444953434F4E4E4569
:10B6000043544544000000004E52465F4552524F9D
:10B61000525F4150495F4E4F545F494D504C454D2C
:10B62000454E5445440000004E52465F4552524F2D
:10B63000525F4E4F545F535550504F525445440043
:10B640004E52465F4552524F525F4D4F44554C4506
:10B650005F4E4F545F494E495449414C495A454405
:10B66000000000004E52465F4552524F525F4D4F10
:10B6700044554C455F414C52454144595F494E4900
:10B680005449414C495A4544000000004E52465F1F
:10B690004552524F525F4E4F545F464F554E4400F5
:10B6A0004E52465F4552524F525F494E56414C49A9
:10B6B000445F5354415445004E52465F4552524FE9
:10B6C000525F444154415F53495A45004E52465FD0
:10B6D0004552524F525F494F5F50454E44494E4785
:10B6E000000000004E52465F4552524F525F535683
:10B6F000435F48414E444C45525F4D495353494E78
:10B70000470000004E52465F4552524F525F494E2D
:10B7100056414C49445F4C454E4754480000000098
:10B720004E52465F4552524F525F4452565F5457F5
:10B73000495F4552525F414E41434B004E52465F76
:10B740004552524F525F4452565F5457495F4552DB
:10B75000525F444E41434B004E52465F4552524F5A
:10B76000525F494E5445524E414C00004E52465F86
:10B770004552524F525F53544F524147455F4655D1
:10B780004C4C00004E52465F4552524F525F4E5550
:10B790004C4C00004E52465F4552524F525F494E4C
:10B7A00056414C49445F504152414D004E52465F14
:10B7B0004552524F525F4E4F5F4D454D00000000C5
:10B7C0004E52465F4552524F525F464F5242494495
:10B7D00044454E004E52465F4552524F525F4452CE
:10B7E000565F5457495F4552525F4F564552525526
:10B7F0004E0000004E52465F4552524F525F494E36
:10B8000056414C49445F4144445200004E52465F09
:10B810004552524F525F5245534F55524345530084
:10B820004E52465F4552524F525F494E56414C4927
:10B83000445F464C414753004E52465F5355434385
:10B84000455353004E52465F4552524F525F424C51
:10B85000455F495053505F4348414E4E454C5F4110
:10B860004C52454144595F455849535453000000D8
:10B870004E52465F4552524F525F434F4E4E5F43CA
:10B880004F554E54000000004E52465F4552524FF5
:10B89000525F54494D454F55540000004E52465F8B
:10B8A0004552524F525F4255535900007761726EB4
:10B8B000696E670064656275670000001B5B313B61
:10B8C00033306D001B5B306D000000001B5B313BB3
:10B8D00033316D001B5B313B33326D001B5B313B01
:10B8E00033336D001B5B313B33346D001B5B313BED
:10B8F00033356D001B5B313B33366D001B5B313BD9
:10B9000033376D00696E666F000000006572726FFC
:10B910007200000073645F626C655F6366675F73EB
:10B92000657428292072657475726E6564202573AC
:10B93000207768656E20617474656D7074696E67D8
:10B9400020746F2073657420424C455F4741545406
:10B95000535F4346475F534552564943455F43480B
:10B96000414E4745442E000073645F626C655F631F
:10B9700066675F73657428292072657475726E65D9
:10B9800064202573207768656E20617474656D701E
:10B9900074696E6720746F2073657420424C455F34
:10B9A000434F4D4D4F4E5F4346475F56535F55558E
:10B9B00049442E0073645F626C655F6366675F7302
:10B9C000657428292072657475726E65642025730C
:10B9D000207768656E20617474656D7074696E6738
:10B9E00020746F2073657420424C455F4741545466
:10B9F000535F4346475F415454525F5441425F5343
:10BA0000495A452E0000000073645F626C655F63F5
:10BA100066675F73657428292072657475726E6538
:10BA200064202573207768656E20617474656D707D
:10BA300074696E6720746F2073657420424C455F93
:10BA4000434F4E4E5F4346475F4741502E00000034
:10BA500073645F626C655F6366675F7365742829F2
:10BA60002072657475726E65642025732077686531
:10BA70006E20617474656D7074696E6720746F20D8
:10BA800073657420424C455F4741505F4346475FB2
:10BA9000524F4C455F434F554E542E006E72665FB9
:10BAA000626C655F6761747400000000636C6F63B3
:10BAB0006B000000434C4F434B0000004750494F80
:10BAC00054450000505253005541525400000000AC
:10BAD00055415254450000006170705F6275747486
