:020000040002F8
:10600000904E0020C1630200C9630200CB6302000E
:10601000CD630200CF630200D163020000000000E4
:10602000000000000000000000000000D363020038
:10603000D563020000000000D7630200D9630200AC
:10604000B9650200DB630200BD690200DB63020088
:10605000DB630200DB63020015650200DB63020004
:10606000DB630200DB630200DB630200DB63020030
:10607000DB630200DB630200DB630200DB63020020
:10608000DB63020011660200DB630200DB630200D7
:10609000DB630200DB63020021660200DB630200B7
:1060A000DB630200DB630200DB630200DB630200F0
:1060B000DB630200DB630200000000000000000060
:1060C000DB630200DB630200DB630200DB630200D0
:1060D000DB630200DB630200DB6302000000000000
:1060E00000000000000000000000000000000000B0
:1060F00000000000000000000000000000000000A0
:10610000000000000000000000000000000000008F
:10611000000000000000000000000000000000007F
:10612000000000000000000000000000000000006F
:10613000000000000000000000000000000000005F
:10614000000000000000000000000000000000004F
:10615000000000000000000000000000000000003F
:10616000000000000000000000000000000000002F
:10617000000000000000000000000000000000001F
:10618000000000000000000000000000000000000F
:1061900000000000000000000000000000000000FF
:1061A00000000000000000000000000000000000EF
:1061B00000000000000000000000000000000000DF
:1061C00000000000000000000000000000000000CF
:1061D00000000000000000000000000000000000BF
:1061E00000000000000000000000000000000000AF
:1061F000000000000000000000000000000000009F
:10620000DFF80CD000F048F900480047D5820200C2
:10621000904E002030B450E8012F93B2C48923443B
:106220008489A34228BF1B1B0489A34202BFBFF37A
:106230002F8F002007E0C3EA020340E80134002C5E
:10624000E9D14FF001000A6030BC704750E8012FDF
:10625000C2EA024240E801210029F7D1704730B478
:1062600050E8022F1FFAA2F3C488A34202BFBFF373
:106270002F8F00200DE0C48923448489A34228BFC6
:106280001B1BC2EA034340E80234002CE8D14FF064
:1062900001000A6030BC704750E8022FC2EA224277
:1062A00040E802210029F7D17047034653E8022F46
:1062B000D988B2EB324F4FF0000017BF92B241EADB
:1062C000014142EA014104E05A68B2EB324F08BF93
:1062D000012043E80212002AE8D1704730B4044696
:1062E00054E8000F0D4644E80053002BF8D1156028
:1062F00030BC704730B4044654E8000F40EA010552
:1063000044E80053002BF7D1156030BC704730B41F
:10631000044654E8000F00EA010544E80053002B4E
:10632000F7D1156030BC704730B4044654E8000F14
:1063300080EA010544E80053002BF7D1156030BC1A
:10634000704730B4044654E8000F00EB010544E800
:106350000053002BF7D1156030BC704730B40446B1
:1063600054E8000FA0EB010544E80053002BF7D1DF
:10637000156030BC704770B404464FF0000054E81C
:10638000006F0D68AE4207BF44E80023012044E8D7
:1063900000630E60002B1CBF0020F0E770BC70474C
:1063A00030B4044654E8000F88422CBF451A054615
:1063B00044E80053002BF5D1156030BC7047000055
:1063C0000648804706480047FEE7FEE7FEE7FEE78F
:1063D000FEE7FEE7FEE7FEE7FEE7FEE725660200D2
:1063E00001620200202A04DB203A00FA02F10020B8
:1063F00070479140C2F1200320FA03F31943904003
:106400007047000000487047D8BD020040EA010311
:106410009B0703D009E008C9121F08C0042AFAD25A
:1064200003E011F8013B00F8013B521EF9D270471E
:10643000D2B201E000F8012B491EFBD270470022C6
:10644000F6E710B513460A4604461946FFF7F0FF73
:10645000204610BD421C10F8011B0029FBD1801AF8
:10646000704710B5002200E0521C835C8C5CA34294
:1064700001D1002BF8D1D8B2E1B2401A10BD30B52D
:1064800004460020034600E05B1C934203D2E05C1C
:10649000CD5C401BF8D030BD064C074D06E0E068EF
:1064A00040F0010394E8070098471034AC42F6D35B
:1064B000FFF7AAFE68C6020088C6020070B58C18F5
:1064C00010F8015B15F0070301D110F8013B2A1108
:1064D00006D110F8012B03E010F8016B01F8016BF5
:1064E0005B1EF9D12B0705D40023521E0DD401F8F1
:1064F000013BFAE710F8013BCB1A921C03E013F8BA
:10650000015B01F8015B521EF9D5A142D8D30020EE
:1065100070BD00002DE9F8430025DFF894804FF4AA
:10652000807601242F460095304602F01DFE38B1DA
:10653000D8F80403204203D0304602F00BFE254376
:10654000361D64007F1CB6B2082FEDD34FF4BE7425
:10655000204602F009FE48B1204602F0FBFD45F05E
:1065600000456A460121002002F0C4FD15F0FF0F2E
:1065700016D0012600242E420ED008EB8401D1F85B
:106580001005D1F81015C0F304200A4AC1F30141E7
:1065900052F8242002B190477600641C082CEAD3FC
:1065A000002D02DA684604F021FBBDE8F883000004
:1065B000006000407C27002070B54FF480763046A4
:1065C00002F082FB114CB50560B1304602F083FB4E
:1065D0000120C5F80803607920B9012060712168A5
:1065E000002088474FF48276304602F06DFB002889
:1065F0000AD0304602F06FFB0220C5F8080321687C
:10660000BDE870400120084770BD0000E023002075
:1066100002490248091F0968006808473024002021
:1066200003F0B6BBF0B5D34AD3494FF0805413689A
:10663000D4F830010978D4F83421451CC1F3031192
:1066400007D08446164601270025BCF1060F04D06A
:1066500013E003F0FF0C0E46F5E7032E05D0042EE1
:1066600003D0052E01D0062E07D1B4F82463DFF83D
:106670000CC3C6F30426CCF80060DEB2062E06D1A9
:10668000032904D1DFF8FCC2BD4ECCF87460461C6F
:1066900006D084464FEA0206BCF1060F04D013E090
:1066A00003F0FF0C0E46F7E7032E05D0042E03D0AF
:1066B000052E01D0062E07D1D4F84462DFF8C8C2F7
:1066C000C6F34236CCF80060DEB2062E08D10329AC
:1066D00006D1AE4ED6F800C02CF0807CC6F800C0C3
:1066E000461C05D084461646BCF1060F04D014E0C3
:1066F00003F0FF0C0E46F7E7032E05D0042E03D05F
:10670000052E01D0062E08D14FF08046C6F80C5158
:10671000C6F810519C4E361F3560DEB2062E08D1E9
:10672000032906D1DFF860C203260CF1640CCCF813
:106730000060DEB2062E11D103290FD1DFF850C25E
:106740000526CCF80060924E78363760904E0836B9
:1067500035600CF1040C3F26CCF80060461C05D0D7
:1067600084461646BCF1060F04D087E003F0FF0C08
:106770000E46F7E7032E7CD0042E7FD0052E01D0E5
:10678000062E7BD1834E3668DFF80CC2CCF8006051
:10679000804E361D36680CF1040CCCF800607D4E3E
:1067A000083636680CF1040CCCF80060794E0C36D3
:1067B00036680CF1040CCCF80060764E1036366862
:1067C0000CF1040CCCF80060724E143636680CF1F3
:1067D000040CCCF800606F4E18363668DFF8B8C18C
:1067E0000CF1200CCCF800606A4E1C3636680CF1B7
:1067F000040CCCF80060674E203636680CF1040CAF
:10680000CCF80060634E243636680CF1040CCCF8EA
:106810000060604E283636680CF1040CCCF800603D
:106820005C4E2C3636680CF1040CCCF80060594EE6
:1068300030363668DFF860C10CF1400CCCF80060EF
:10684000544E343636680CF1040CCCF80060514ECE
:10685000383636680CF1040CCCF800604D4E3C36EE
:1068600036680CF1040CCCF800604A4E40363668AD
:1068700000E003E00CF1040CCCF80060461C05D0ED
:1068800084461646BCF1060F04D011E003F0FF0C5D
:106890000E46F7E7032E05D0042E03D0052E01D0B7
:1068A000062E05D1D4F858423C4E04F04F04346013
:1068B000441C04D003461146062B02D010E0DBB284
:1068C000FAE7032905D0042903D0052901D00629B8
:1068D00006D133490B68DB0702D06FF001030B6070
:1068E00006280CD1032A0AD0042A08D0052A06D08B
:1068F000062A04D12B48016841F4806101602348D5
:106900007438016841F470010160BFF34F8FBFF329
:106910006F8F4FF01021D1F80002002803DBD1F86F
:106920000402002822DA204A176020480368002B5E
:10693000FCD01523C1F800320468002CFCD0C1F84B
:10694000043201680029FCD0156001680029FCD0E0
:10695000BFF34F8F0D48F0380168154A01F4E0612C
:1069600011430160BFF34F8F00BFFDE7124911488B
:106970000860F0BDE00F00F0E80F00F04035014086
:106980000DF0ADBA00C007403C050040FCED00E052
:10699000105600400404001020C50040E40E0040E2
:1069A000000400403C17004004E5014000E40140C1
:1069B0000400FA050090D003B824002001480068C4
:1069C00000470000E823002002E008C8121F08C1A9
:1069D000002AFAD170477047002001E001C1121F60
:1069E000002AFBD1704700000121202803DA8140F2
:1069F0000548014003E0402802DA2038814009B10F
:106A00000120704700207047FC06FFBD10B5012231
:106A10000221002000F010FD08B1072810D1072244
:106A20000221012000F008FD08B1072808D100214B
:106A30000A22084600F000FD08B1072800D1002016
:106A400010BD000070B50024064D06E06868012105
:106A500010F8340003F0B4FA641C28788442F5D3AB
:106A6000002070BDF0230020F8B516460C46054600
:106A70000A2A01D20720F8BD03F09CFB18B903F0E5
:106A80005FFB0028F7D1134F102113487D603C7045
:106A9000BE60FFF7D4FC0020C7E904000F4E0DE0F4
:106AA00005EBC4003168009181788DF80110007801
:106AB0000B4A694603F0D4FA0028DCD1641EE4B224
:106AC000EED2BDE8F84005480021064A001D00F05E
:106AD0005FB80000F023002048280020E4BA02003C
:106AE000397F02000179020072B602F0DFFD00BFBB
:106AF00002F020FC0028FBD111481249401AC408BA
:106B0000012000EB044010A102F030FD11480068A4
:106B1000C00700D000BE022000EB04400EA102F02E
:106B200025FDBFF34F8F0B48E43801680E4A01F48E
:106B3000E06111430160BFF34F8F00BFFDE700002C
:106B400010C7020098C60200466174616C2065722D
:106B5000726F7200F0ED00E053797374656D20720E
:106B600065736574000000000400FA050EB500218D
:106B70000091CDE901106A4644F20100FFF7B4FF2D
:106B80000EBD0000014800F0FABF000010240020F4
:106B90003AB100680129426100D000210161002062
:106BA000704707207047000038B511480823582265
:106BB000416800910F49006801F070FC002815D170
:106BC0000D4A69460D4800F0DFFF04000ED1012197
:106BD0000A4801F054F80123094A1946074800F011
:106BE000A6FF0649012008390870204638BD00007C
:106BF000ECBA02006828002059B0020010240020DE
:106C0000FFFF7F0070B50446007F0D4608B10020ED
:106C100070BDA26101F076F9401941F10001C4E9AB
:106C20000201206900B125612146BDE870400020C5
:106C300004F0A4BC30B5EFF3108172B60D4A94682D
:106C4000012324B10370002900D162B630BD9360E6
:106C50004FF0E023D3F88051074C25401560C3F86E
:106C60008041D3F8844154605A17C3F8842100222C
:106C70000270E8E7C0280020FC06FFBD0B498A68C7
:106C8000002A11D000280FD1EFF3108072B60B68E4
:106C90004FF0E022C2F800314B68C2F80431002204
:106CA0008A60002800D162B670470000C02800202A
:106CB0002DE9F041064608680C46411C4FF0A047FC
:106CC0004FF0010506D005FA00F1C7F80815206855
:106CD00002F0EAF96068411C02D0002102F0D2F90A
:106CE0003168A069C1F82405607D227D31681043B8
:106CF000C1F86C05D4E900123068C0F81425C0F85A
:106D00000C15207D012815D1A068411C02D000215E
:106D100002F0B8F9E068411C05D08540C7F8085575
:106D2000E06802F0C1F9D4E902123068C0F8082521
:106D3000C0F81015BDE8F0812DE9F041064608685D
:106D40000C46411C4FF0A0474FF0010506D005FA54
:106D500000F1C7F80815206802F0B0F96068411C1E
:106D600002D0002102F097F93168A069C1F824052A
:106D7000607D217D32680843C2F86C05D4E90012B9
:106D80003068C0F80C15C0F81425207D012815D1F5
:106D9000A068411C02D0002102F07DF9E068411C8E
:106DA00005D08540C7F80855E06802F087F9D4E9B6
:106DB00002123068C0F80825C0F81015BDE8F0814F
:106DC000F8B506464FF000001500ADF8000015D0EC
:106DD00009236A46304600F015F80446BDF8000065
:106DE000064458B154B12846FFF734FBA04205D100
:106DF000224631462846FFF742FB08B10020F8BD85
:106E00000120F8BD70B5E0B1DAB1002402E0045D04
:106E10002C44A4B2651C8D4206D21688A642F6D830
:106E2000061976789E42F2D18C420AD2A31C005DEC
:106E30009BB200B1401E0004000C02D01C188C4212
:106E400001D9002070BD138070BD000070B540B145
:106E50000C4D297839B1044604F064F828B10020BB
:106E600070BD0E2070BD082070BDE868062807D2EE
:106E70000549226801EB8001401C0A60E860EEE7EA
:106E8000042070BDC42300205027002010B558B145
:106E900003684BB142683AB1044900200124C8603C
:106EA0000C70C1E9013210BD0E2010BDC4230020BA
:106EB000002827D0002925D0134A1278002A21D093
:106EC0000A460188112911D0302907D0322909D06A
:106ED000332917D1011D104603F0F0BC011D1046E7
:106EE00003F0B0BD011D104603F0F8BB8088B2F876
:106EF000CA12884206D1002082F8C8024FF6FF70FD
:106F0000A2F8CA0270470000C423002048B1084A12
:106F1000137843B1D26832B190F8C8222AB1112057
:106F200070470E2070470820704700F0A7BD000092
:106F3000C423002038B50188041D1F2939D014DC72
:106F40002748284A1029A0EB02004FEAD0004FF052
:106F5000030202EB004012D0112937D122A102F026
:106F600005FBBDE8384004F075B9212925D03B293F
:106F70002DD056292AD18088132176DF2AE01EA140
:106F800002F0F4FA218800221E4800F02FF908B11F
:106F9000FFF7ECFD21881C48FFF7B8FF08B1FFF7A9
:106FA000E5FD012000F036FABDE83840002000F091
:106FB00029BA2088211D75DF0CE00021009180880E
:106FC00069468FDF002801D0FFF7D0FD38BD8088EB
:106FD000132176DF0028F9D0BDE83840FFF7C6BDA1
:106FE00010C7020098C60200446973636F6E6E6535
:106FF000637465642E000000436F6E6E6563746594
:10700000642E000024250020C01D002010B51A4C5D
:107010000188606810290ED011292BD1401E6060B4
:1070200028D1FFF7F3FC002824D02168002921D0C3
:10703000BDE810400847D0B900210122084600F001
:10704000FBF908B107280FD107220221012000F027
:10705000F3F908B1072807D104220221002000F02B
:10706000EBF920B1072802D0216801B18847606898
:10707000401C606010BD0000BC2300202DE9F04FD3
:10708000044686880188424897B0834610290CD070
:10709000112950D0103019296AD01A2974D1217AB7
:1070A0000C09042C4DD301224CE0394D083DA86851
:1070B000C0430B9069680BA801F05BFA0B990CA810
:1070C00000F03DFB2C220CA96846FFF79FF9002732
:1070D000E946A84610E000BF09EB47005FF0000555
:1070E000B0F804A008EB85005146001D01F015FA28
:1070F0006D1C1E2DF6D37F1C0098B842ECD8142EC0
:1071000005D317B00420BDE8F04FFFF72FBD31467F
:10711000584601F018FA314608F1040001F013FA5C
:10712000E07B022830D117B03146BDE8F04F184857
:10713000001D01F008BA17B03146BDE8F04F01F06C
:10714000ECB90022314600F09DFE032C01D3012250
:1071500000E000220E4831460C3000F093FE022C75
:1071600001D3012200E0002209483146083006E040
:10717000217A002908D1617AC1F3C002314617B0E3
:10718000BDE8F04F00F07EBE17B0BDE8F08F000004
:10719000DC26002000B589B020B30188A1F57F422C
:1071A000FF3A1DD001218DF8201000228DF82120FA
:1071B0000D4BCDE902308DF800104388ADF8123048
:1071C0000223ADF81630ADF8142008AA8DF810107F
:1071D000069202884069694601F032FB09B000BDA1
:1071E0000820FBE70E20F9E78F7E020048B10180FE
:1071F00022B11368C0F802309288C280406901F061
:10720000E7BA0E207047000030B5164D040085B077
:107210002DCD8DE82D0023D011B3086800B3486848
:10722000F0B100206080A080E0804FF6FF702080E9
:107230000868A060486860618868E06004F1100137
:10724000684662DF002809D1207C8DF8120041F2E7
:107250002350ADF8100004A8FFF7F8FD05B030BDCD
:107260000E20FBE7C8BA02000EB500291FD0002887
:107270001DD00288112A1BD0392A18D10A46098844
:107280008388994213D14189938899420FD1C1894A
:1072900001290CD102218DF800101188ADF80210DF
:1072A000007C8DF8040093686946104698470EBD2F
:1072B0000A8880888242FAD14FF6FF700880002049
:1072C00048808880C8800EBD13B588B0040024D0E3
:1072D0002088A0F57F41FF391DD020216846FFF7A7
:1072E000AEF80F49CDE9021401208DF80000E188C5
:1072F000ADF8160009A806900020ADF81210ADF800
:10730000140002208DF8100022886946606901F09F
:1073100097FA0AB010BD0820FBE70E20F9E700003D
:107320008F7E02003EB50A78002A40D18A88A2F5F5
:10733000A853233B3BD18A79037C9A4237D101225F
:107340008DF800204A88ADF80220002218E000BF26
:1073500002EBC20301EB430333F80E4F04F6DC24C7
:10736000B4F5005405D0012C09D11B89ADF80830C3
:1073700005E01C89ADF806405B89ADF80430521C6D
:107380000B7A9342E4D80188A1F57F42FF3A0BD0F3
:10739000C18849B9818839B9418829B90199C0F8AA
:1073A0000210BDF80810C1808268694690473EBD52
:1073B0002DE9FC410646C0074FF000050ED0104FE6
:1073C00000240122385D009500231146019501F04B
:1073D000FFFD641C042CF4D300F024F8B0070DD595
:1073E000074E0024361D0022305D03230095114610
:1073F000019501F0EDFD641C042CF4D3BDE8FC8183
:1074000012BA02000249085C012101F098BE000096
:1074100012BA02000249085C002101F090BE00008F
:1074200012BA020010B500242046FFF7EBFF641CDF
:10743000042CF9D310BD000070B50023042810D22D
:107440000D4D00EB4004012A02D101290CD000228D
:10745000094E00EB4000304461B1012906D00229F9
:1074600006D00723184670BD0E30C2B22A55F9E780
:107470004270F7E78270F5E7C82600202DE9F84F43
:107480000546861C00208DF8000091460F464FF0FF
:10749000010A6846FFF7CEFB1B4C04F21C486068EB
:1074A0003860D4E90101194F401A3968081A0EE012
:1074B0000121404601F057F800F0BAFE014640466F
:1074C00001F051F8D4E90101401A3968081A401C4A
:1074D0008642EDD8B9F1000F03D0052065F389107D
:1074E00002E0062065F39F5061683A68114004EBA2
:1074F0008101C8606068304460609DF80000FFF75B
:10750000BDFB5046BDE8F88F702A002060240020A3
:1075100070B50D4604460A2902D10D21FFF7F8FF88
:10752000A0682268411CA1601554D4E90101814280
:1075300004D32046BDE8704001F051BC70BD00008E
:10754000044881684068814201D1012070470020D1
:1075500070470000702A002010B50C460D2809D194
:107560000D48FFF7B1FE48B1A0F54051023912D0E5
:10757000082810D0BDE81040FFF7F8BA07480849BE
:107580002246401AC008032101EB0040BDE810402C
:1075900004A101F0EFBF10BD2425002010C7020098
:1075A00098C602004C4253207772697465204C459E
:1075B000442073746174652025640000034630B56F
:1075C000074800210478426806E000BF02EBC100D2
:1075D00005789D4203D0491CA142F7DB002030BD55
:1075E000F023002005494FF0FF32082841F8202001
:1075F00002D3084480F84820704700007C27002010
:10760000F0B54FF0FF3512B10023082601E0082342
:107610000C260C4C05E000BF54F823707F1C04D0EE
:107620005B1CB342F8D32846F0BD26185DB286F83D
:10763000305044F82310002AF5D1E11881F84800B1
:10764000F1E700007C2700200249084490F930004F
:10765000704700007C27002030B589B00D460446F5
:1076600020216846FEF7EBFE94F8C602002300EBEB
:107670008001C1EB801094F8C51204EB400041B1C9
:10768000491EC9B201EBC10100EB4101498A491C05
:1076900000E0C188008961F30F0360F31F430320FA
:1076A0008DF800000548CDE90204054804932A46F8
:1076B0006946806801F0C4F809B030BD2D7A020037
:1076C000C423002070B5084C050009D0103421688F
:1076D000002907D008682060496828468847F6E7EF
:1076E0000834F4E770BD000068270020054A012136
:1076F00020B1012805D19170FFF7E4BF517000203F
:10770000FAE770476827002010B5D0E90234D1E9C4
:107710000220D11AA04101D3012010BD002010BDCC
:1077200010B502460020138806E0546834F8104073
:107730008C4203D0401C80B28342F6D810BD73B592
:107740008CB00646002000900D9880B100246D4654
:1077500021460DA800F0ECFE30B1009805EB40008A
:1077600084800098401C0090641C142CF0D32C22C0
:1077700069463046FEF74AFE0EB070BD70B588B05F
:107780000646002005900690ADF81410ADF81610CE
:107790000190029001AA05A9304690DF050021D092
:1077A00002F09AFB0346114811493246401AC108BB
:1077B000012000EB014004460E4901F0E2FEBDF855
:1077C000042012B9BDF8060028B1BDF806302046E5
:1077D00009A101F0D6FEBDF808201AB120461649CD
:1077E00001F0C8FE08B0284670BD0000A0C6020027
:1077F00098C60200C8BE02005468652072657175A3
:1078000065737465642054582F5258207061636BFF
:107810006574206C656E67746820697320746F6F7F
:10782000206C6F6E672062792025752F2575206F7B
:1078300063746574732E000014BF02000146014892
:10784000FFF770BD242500202DE9F04389B00F46D5
:107850000546914620216846FEF7F1FD95F8C602DF
:1078600095F8C54200EB8001C1EB801005EB4006A6
:1078700004EBC40006EB40013279601C0A319042EF
:1078800032D108AB0022284600F026FC78B310E085
:10789000401EA04201D1002004E004EBC40006EB2E
:1078A00040001C308046024608AB284600F014FC1D
:1078B00090B10020387004208DF8000008984A46E6
:1078C000CDE903500C4802900C486946806800F0EE
:1078D000B7FF09B0BDE8F08395F8C5024146401CEA
:1078E000641C85F8C502E4B23079A042D0D80120EA
:1078F00038700020EDE700002D7A0200C42300203C
:1079000070B500240F4D10E0686800EBC4063078B5
:1079100002F00CFC7178012901D0012100E0002166
:107920004140307800F034FA641C28788442EBDB64
:10793000D5E90401084303D0BDE8704003F03ABE26
:1079400070BD0000F023002030B59FB00C46054606
:107950007C216846FEF773FDADF8024003208DF8E8
:107960000000044801954168002901D06846884715
:107970001FB030BDC42300202DE9F041044690F82B
:10798000C602884600EB8001C1EB801004EB400684
:107990001746304603F0C6FA050042D0D4F8CC02B0
:1079A00006283ED204EBC0107622A0F8D272D4F89A
:1079B000CC02314604EBC01000F53570FEF726FD11
:1079C0000026B8F1000F06D0D4F8CC0204EBC010AA
:1079D00080F8D06206E0D4F8CC12022004EBC1118A
:1079E00081F8D002D4F8CC0204EBC010C0F84C539C
:1079F000D4F8CC020C4D401CC4F8CC02E968884293
:107A00000FD12746002407E007EBC41101F53470BD
:107A1000D1F84C138847641CE8688442F4D3C7F853
:107A2000CC62BDE8F0810000C4230020F0B515460B
:107A30009FB0002281F8C822074691F8C6020C4682
:107A400000EB8002C2EB801001EB400003F06AFA09
:107A5000060009D07C2208496846FEF7D7FCADF83D
:107A6000025068460197B0471FB029462046BDE83E
:107A7000F040FFF769BF00001CBA0200F0B50D46E8
:107A800089B004464FF4BA61FEF7D9FC202168465C
:107A9000FEF7D5FC154E2946B06800F099FE002887
:107AA00021D1A4F8CA52C4F8CC0284F8C70284F8E1
:107AB000C60284F8C5020E4801272A4600682060E5
:107AC00002208DF80000ADF810702068CDF812008B
:107AD0000848CDE902046946B06800F0B1FE00280C
:107AE00001D184F8C87209B0F0BD0000C4230020A1
:107AF000502700202D7A020010B50021024800F026
:107B000043FD80F3100010BD8C2E00204FF4803216
:107B10008A400168C1F848230068C0F8082370470C
:107B20004FF4A07202EB810189B200F0A1B92DE9F6
:107B3000F04105460E464FF4A07000EB860081B27E
:107B400028684FF48034B440984622F07F47C0F84C
:107B500008432868C0F84843286801F088FF28686F
:107B600000EB8600C0F840752868C0F84443B8F1BF
:107B7000000F02D02868C0F80443BDE8F081006817
:107B8000D0F804057047000070B54379234C44F8E1
:107B900023204279231D03EBC202224C1579204A8F
:107BA000121BD4082DB10825022000EB04401EA1B1
:107BB00030E005680A88C5F8082590F9042089781E
:107BC000002A4FEA411104DB02F1E02282F800149E
:107BD00005E002F00F0202F1E02282F8141D90F994
:107BE00004100122002909DB01F01F0502FA05F546
:107BF0004909890001F1E021C1F8005141790025CE
:107C000003EBC1010A71417943F83100032000EB15
:107C100004400EA101F0AAFC284670BD2C240020CF
:107C2000F8C6020098C6020052544320696E73746D
:107C3000616E636520616C726561647920696E694B
:107C40007469616C697A65642E0000005254433A8D
:107C500020696E697469616C697A65642E00000040
:107C600090F90400002809DB00F01F020121914077
:107C70004009800000F1E020C0F8001270470A4679
:107C8000022100F07BB84FF4827100F0F1B8006877
:107C900001210160704700680121416070472DE9B2
:107CA000F05F07460C464FF4A07000EB84001FFA0B
:107CB00080FA38684FF48036A6409B4622F07F4514
:107CC000C0F848633868C0F808633868D0F804859D
:107CD00000EB8402D2F84095C2F8408551463868DE
:107CE00001F0C5FEA9EB080020F07F40012806D175
:107CF000102002F05DF95146386801F0B8FE38688E
:107D0000D0F80485C0F84463A5EB080121F07F4159
:107D10003868012900EB840010D0C0F8405538685D
:107D2000D0F804156FF07F4C6A1A521E22F07F4281
:107D3000ACEB0B03934217D362B118E06D1CC0F893
:107D40004055102002F034F93868D0F80405404559
:107D50000AD10CE000EB84006D1CC0F84055386877
:107D6000D0F80405884202D00D20BDE8F09F012222
:107D70003146384600F002F80020F6E70368C3F801
:107D80004413002A02D00068C0F8041370470000B2
:107D90002DE9F84F0E463449804601EB5001C007EB
:107DA000097801D00F0901E001F00F074FF0000939
:107DB000424601204946FEF715FBDFF8B0A0044615
:107DC0000D46052F4ED2DFE807F003161B282C00C6
:107DD000002E47D00121404603F006FB8DF80090AD
:107DE0006846FEF727FF5046D0E904120C431543BE
:107DF000CAE9044532E00EB1022114E0002112E08C
:107E00004EB10321404603F0EFFA4046BDE8F84F7B
:107E1000012103F0DDBD012105E0002E22D1042166
:107E200001E02EB103214046BDE8F84F03F0DCBA73
:107E30000021404603F0D8FA0021404603F0C8FD77
:107E40008DF800906846FEF7F5FE5046E243D0E913
:107E500004341A4024EA0501CAE904219DF800000F
:107E6000FEF70CFFBDE8F88F48280020F023002023
:107E700010B5006842581AB101F0F9FD012010BD9B
:107E8000002010BD0AB100F05EBB00F046BBC9681F
:107E9000002900D00847704770B50D4601F1100465
:107EA000C98A102901D9092070BD01F06EFC6860F3
:107EB00030B1E2880023A16801F0CDFC002070BD44
:107EC000042070BD70B50D4601F110048969098860
:107ED000102901D9092070BD891C01F056FC686089
:107EE00068B100230222A16801F0B5FCA068E16836
:107EF00002230288686801F0AEFC002070BD0420F7
:107F000070BD000010B50B48FFF739FE094A083A6A
:107F1000D2E90434C018D2E9063244F10001C31A90
:107F200071EB020204D24FF08072801841F100011F
:107F300010BD00001024002010B5C0B2FFF73EFBBA
:107F40000446007802F0F2F801466078012801D07A
:107F5000012000E0002090EA010F08D00449D1E997
:107F60000401084303D1BDE8104003F023BB10BD5A
:107F7000F02300202DE9FC5F0E008346DDE90C476D
:107F8000C6F1000098469246814600D40846012575
:107F900003E000BF90FBFAF06D1C5045FADAA845EB
:107FA00000D9454624B1002E01DB780700D5641EB8
:107FB000B80702D5B8F1000F0AD0F80708D13CB1D4
:107FC000A54205D220215846641EFFF7A1FAF6E724
:107FD000002E02DA4E462D2102E0780703D52B2130
:107FE0005846FFF795FA07F0030002280BD1B8F1C5
:107FF000000F08D13CB1A54205D230215846641E7D
:10800000FFF786FAF6E7CDE9004743465246314688
:10801000584603F083FCBDE8FC9F000070B50D4698
:10802000044600684FF4887101F076FF4FF49071B8
:10803000206801F071FF4FF49271206801F06CFF2D
:108040004FF4A271206801F067FF4FF4AC71206813
:1080500001F062FF20681249C0F804132068690724
:1080600040F30730090E002804DB00F1E02080F81F
:10807000001405E000F00F0000F1E02080F8141D6E
:10808000206840F30730002809DB00F01F020121BF
:1080900091404009800000F1E020C0F8001170BD5F
:1080A00010034200024600201268530713D502F065
:1080B0000300012802D002280CD105E0C2F383108E
:1080C0000B68801C184404E00223086803EB9252FA
:1080D000104408600120704710B509892AB1D08882
:1080E000491C814218D1002010BD90F8C62202EB35
:1080F0008204C4EB821200EB420212899142F2D058
:10810000491C198090F8C61201EB8102C2EB811163
:1081100000EB4100008902E01980D088401E5880A1
:10812000012010BD90F82E00C0F3C100012803D03B
:10813000032801D0002070470120704770B5064623
:108140001B481C4A0C46801A0978C008032202EB1F
:10815000004501290FD0022929D12279284616A1EC
:1081600001F008FA207900284FF002001BD0BDE88A
:108170007040FFF74FB96188221D1948FFF736F8A4
:108180006288284617A101F0F5F9FEF75BFC08B1FB
:10819000FEF7ECFC3046FEF7FDFF002807D0BDE8F7
:1081A0007040FEF7E3BCBDE87040FFF72BB970BD2F
:1081B00010C7020098C60200427574746F6E207377
:1081C00074617465206368616E676564206F6E20FA
:1081D0007065657220746F20307825782E0000005D
:1081E000242500204C454420427574746F6E207322
:1081F00065727669636520646973636F766572651D
:1082000064206F6E20636F6E6E5F68616E646C6574
:1082100020307825782E0000FEF7A8BC17210180B9
:1082200041800021017141711B218171C171704731
:108230002DE9FF410026244800F092F92248001F52
:10824000074600F08DF9214C2149A06800900D6887
:1082500000E000986946284004EB80000C30FFF7EE
:1082600021FF0028F5D101AA009901EA050304EBDA
:108270008303491CDB6842F82030401C009102282F
:10828000F2D3019800F0030001280BD0022810D18E
:108290000198032101EB90500099BDF80A6001EBB1
:1082A000900005E00198BDF80A60C0F3831008440F
:1082B0000090384600F051F908B10098A06004B071
:1082C0003046BDE8F0810000882E0020702A002092
:1082D000602400200EB54FF48041002001F0BAF96F
:1082E00008B1FEF743FC01F017F8FEF75DFC08B19A
:1082F000FEF73CFC0120FFF75BF840F2333201212E
:108300002A48FEF7B1FB08B1FEF730FC01F0ACFAE9
:1083100008B1FEF72BFC01F001FD08B1FEF726FCC9
:10832000002000906946012001F0B2FB08B1FEF781
:108330001DFC684601F02CFC08B1FEF717FC02F0AA
:108340005DFF00211A4800F08AF908B1FEF70EFC23
:10835000194C1848CDE900046846FEF797FD08B1AE
:10836000FEF704FC1548CDE90004154802901048BA
:1083700069461838FEF748FF08B1FEF7F7FB1148C9
:108380001149401AC008032101EB00400FA101F080
:10839000EDF802F05FFF0020FFF73CF800F0CAFFA5
:1083A0000028FBD101F074FAF8E70000B81D0020A6
:1083B0003C2500203D780200902300203D810200F2
:1083C0001982020010C7020098C60200426C696E52
:1083D0006B792043454E5452414C206578616D7055
:1083E0006C6520737461727465642E002DE9F0472A
:1083F000C5881E1DB6FBF5F78946B6FBF5F10446A8
:1084000005FB176C407916686843DDF820A0F71863
:10841000001F874200D9C61A166001E02468491E71
:108420000029FBD1A5EB0C078846B74216D818E007
:1084300004EB0C00001D09EB0803BAF1000F3A46EB
:1084400002D00146184600E01946FDF7DFFF246818
:10845000F61B4FF0000CB844B54201D9374600E096
:108460002F46002EE4D1BDE8F087000030B502466B
:1084700051B101F003F90021074C08E034F8213034
:108480001568AB4202D11160002030BD491C814209
:10849000F4D3052030BD00000000000010B531B15C
:1084A000B2FBF3F403FB14241CB1092010BD0E2011
:1084B00010BD01600021416081608281C381084656
:1084C00010BD70B50C460546FDF7A4FE002802D08D
:1084D00021882868084470BD10B50A8849888A42F6
:1084E00003D1FDF7D9FE012010BD002010BD70B5ED
:1084F0000C460546FDF7B3FE002802D061882868C7
:10850000084470BD10B50A8849888A4203D1FDF736
:108510009DFE012010BD002010BD01F01F030122AF
:108520009A40D243490900EB8100114600F021B87E
:108530004A0950F8220001F01F0201219140084031
:1085400000D00120704701F01F0301229A40490921
:1085500000EB8100114600F01CB8002100F00FB8BC
:10856000012100F016B808B56A46FDF7EAFE00984A
:1085700008BD08B56A46FDF7CAFE009808BD08B5F3
:108580006A46FDF7C4FE08BD08B56A46FDF7A6FEBB
:1085900008BD08B56A46FDF7ADFE009808BD08B5F0
:1085A0006A46FDF7DBFE009808BD38B50446002595
:1085B0008DF800506846FEF73DFB21686268086848
:1085C00090420ED9401E08600178238AE26801FBC0
:1085D0000325227A2168101AC0B20A79824200D299
:1085E00008719DF80000FEF749FB284638BD38B5F4
:1085F000054600208DF800000C466846FEF71AFB81
:10860000E868298A201AB0FBF1F12A681068431C37
:10861000136001709DF80000FEF730FB38BD10B507
:1086200030B1017A42680368891AC9B21A6006E05B
:108630000E2010BD03681A68541C1C601170491E7E
:10864000C9B2F7D2006800210171084610BDC20806
:1086500000F007030120895C98400840704710B57E
:1086600060B10161172120F8021B20F8021B1B21B9
:1086700000F8021BFFF7D2FD002010BD0E2010BD38
:10868000F0B5858893B00C46002D39D101880026BD
:108690003F4F24293BD006DC102909D011290CD0EA
:1086A000232958D14FE03A290BD0552953D129E03D
:1086B0000146204602F0AEF84DE0A01DFFF7AEFDEA
:1086C00049E02246408934F8061F814200D8084616
:1086D0006080172800D217206080106970B160791F
:1086E00060B1D7E90001CDE90301ADF80E50608813
:1086F000ADF81000136903A91046984766712671FA
:1087000013B0F0BD0146204602F046F923E0011DFA
:108710002C2206A8FDF77AFEBDF81800BDF81C2033
:1087200004EBC0014A732269AAB1D7E90423CDE959
:108730000423ADF81200487B8DF81400226920460E
:1087400004A9904707E0017A207B884200D20146C5
:108750002846FFF713F8A07A0028D1D0E1882846F0
:10876000A5DF012580B11128CAD001F0B5FB024672
:108770000848094913B0401AC00805EB0040BDE89D
:10878000F04006A100F0F6BEA672E572B8E7000060
:1087900098BA0200A0C6020098C6020073645F6225
:1087A0006C655F67617474635F65786368616E6749
:1087B000655F6D74755F72657175657374282920C6
:1087C00072657475726E65642025732E000000005A
:1087D0002DE9F0410F4604004FF000050DD002F0E6
:1087E00075FB39462046FEF79BFF218881421ED14A
:1087F000002005464FF6FF7609E00E20BDE8F08127
:10880000626832F81020B24206D1401C80B2814228
:10881000F6D8206901F006F8002021880BE0626894
:1088200032F81020B24204D1616821F81070284655
:10883000E4E7401C80B28142F1D80420DEE700006A
:108840002DE9F04791460D4604004FF0000742D055
:10885000EDB302F03BFB49462046FEF761FF297865
:10886000062902D22188814202D10720BDE8F08783
:10887000A16800EB800601EB860001F072F830B1D0
:108880004946284602F08EFB08B13846EEE72978C3
:10889000DFF8488058F821202AB12069B8B129466C
:1088A00090470028E2D1A068294600EB860001F03D
:1088B00077F8070006D0297858F8210010B16868C9
:1088C00000F093FFA068494600EB860000E002E05C
:1088D00002F064FAD9E70E20C8E70000B0BA02003F
:1088E000F8B505000C4620D0002C1ED02888112891
:1088F00006D0A0F130011F2902D950381F2814D802
:10890000AE8820463146FEF70BFFADF80000218807
:1089100081420AD02988112908D0A16800EB800083
:1089200001EB8000314602F039FAF8BD62684FF67B
:10893000FF7122F810106946E06801F031F8F8BDC7
:108940002DE9F041044600F12E0700F1240590F8CE
:108950002C6090F8230086B001F10208002814D0A2
:108960008BDF14216846FDF76AFD33462A463946F7
:1089700040468CDF05218DF800100190002804D0BE
:10898000E16B002901D06846884706B0BDE8F08158
:108990004FF4C8714185062181841821C1840021CA
:1089A0000185704710F82E1FA0224280502282803D
:1089B00021F018010022C28041F004010170012160
:1089C000417070472DE9F04120B11AB121B1072063
:1089D000BDE8F0810E20FBE7054600F1200490463B
:1089E0001046FDF737FD10F0FF0001D0202801D917
:1089F0000C20EDE7207808B10420E9E7002637468F
:108A000005EB46104146FDF72CFD80B1761C16F0B3
:108A1000FF06F5D04046FDF71DFD02462078414691
:108A200005EB4013401C20701846FDF7EFFC38465C
:108A3000CEE720B1002180F82110084670470E20B3
:108A4000704710B50B46040002D0980702D009E029
:108A50000E2010BD580705D4D80603D4180701D43A
:108A6000072010BD2046FFF7E4FFD80702D0012001
:108A700084F8210084F82220002010BD70B50D4636
:108A8000040012D02321E263FDF7D9FCEDB128796F
:108A900084F82300287B84F82C00296839B10E2241
:108AA00004F12E00FDF7B2FC04E00E2070BD20465C
:108AB000FFF778FFA86820B1016861624068A06292
:108AC0000CE02046FFF764FF08E02046FFF76AFF4E
:108AD0002046FFF75DFF002084F8230004F14000EA
:108AE00020661F20A4F86400002070BD2DE9F04F1F
:108AF00087B00F4604464FF0000A564614216846D8
:108B0000FDF79DFC04F12E0004902046FFF70AFBC0
:108B1000010004F16000059010D002208DF80000E3
:108B20000197E16B68468847002005998ADF39463E
:108B30002046FFF705FF07B0BDE8F08F94F82290BC
:108B400094F821004FF00008E8B194F820B0B88BF9
:108B50004FF0010A0025069013E000BF04EB451218
:108B6000B8690699FEF72CF948B19DF808004FF056
:108B7000010840F001008DF80800761C03E06D1C30
:108B8000EDB25D45EAD30197B9F1000F01D056452A
:108B900002D038EA090007D000208DF800003946DD
:108BA0002046FFF7CDFE02E003208DF80000E16BC8
:108BB00009B168468847002005998ADFBBE770B590
:108BC0000D46014601F108020C1D284609882E3584
:108BD00086B010291ED01B2907D01D292DD106B023
:108BE0001146BDE87040FFF781BF06461421684674
:108BF000241DFDF724FC207801281ED1F06B0028ED
:108C00001BD004208DF80000049520788DF8040016
:108C1000F16B10E0064614216846FDF710FC0620B3
:108C20008DF80000201D01902088ADF80800049503
:108C3000F16B002901D06846884706B070BD00007E
:108C400030B585B0040025D014216846FDF7F7FB48
:108C50008BDF2046FFF766FA012528B1E16B19B1D9
:108C60008DF800506846884704F1600104F12E0039
:108C70008ADF044608280FD074B108480849224604
:108C8000401AC00805EB004006A100F073FC204626
:108C900005B030BD0E20FBE70020F9E7B0C60200AA
:108CA00098C6020073645F626C655F6761705F7392
:108CB00063616E5F73746172742072657475726E35
:108CC000656420307825780000F180400068002835
:108CD00000D00120704708B500F1804000210160FC
:108CE0000068009008BD000070B50D4C012520788B
:108CF00008B185260EE00020A06060602061E06081
:108D0000084801F02DF9064601F054F808B901F0C1
:108D100011F9257001F006F900B1A570304670BD5B
:108D200068270020ED76020038B500258DF8005048
:108D30006846FDF77FFF084CE068401EE060E06891
:108D400028B901F0EFF810B901F01AF9A5709DF8F3
:108D50000000FDF793FF38BD68270020F0B50546F9
:108D60000478154889B0164640F82420124A08694C
:108D7000121DA2F1080742F82400487F385520222E
:108D80006846FDF743FB04942878385C48B10EB17F
:108D90000A4A00E000226946281D01F081FB09B063
:108DA000F0BD0EB1064A00E00022694605F10C0054
:108DB00001F040FAF3E70000D8230020D9B7020001
:108DC00021B602000FB408B50399002904D004AA03
:108DD00000926A4600F00FF801B05DF814FB10B580
:108DE00082680446002A05D0D4E904032168984724
:108DF0000020A06010BD2DE9FC4791460C00804684
:108E000076D014F8011B39B125290ED04046FEF763
:108E10007FFB20780028F4D198F80C00002867D058
:108E20004046BDE8FC47FFF7DABF00200122217869
:108E30002B291BD02D2902D0302908D102E040F087
:108E4000010001E040F00200641C002AEFD100257F
:108E50002A290ED02178A1F130020A2A11D205EB7D
:108E6000850201EB4205641C303DF1E740F004004F
:108E7000EAE7D9F800100B1DC9F800300968641C36
:108E80000D44217800232E290BD114F8011FA1F1E4
:108E900030020A2A05D203EB830201EB4203303B86
:108EA000F3E76C290DD068290BD0692921D00BDCA0
:108EB000252918D0582931D063290ED0642915D11D
:108EC00017E014F8011FECE7702969D0732932D03C
:108ED00075291BD0782909D120E0D9F80000011D9F
:108EE000C9F8001001784046FEF712FB641C90E7B9
:108EF0006CE0D9F800100A1DC9F800200968CDE916
:108F000000500A224046FFF735F8EFE7D9F8001085
:108F10000A1DC9F8002009680A2206E0D9F80010E5
:108F20000A1DC9F8002009681022CDE9005040460A
:108F300002F0F4FCDAE7D9F8001000270A1DC9F89E
:108F400000200E68C00705D112E04046761C7F1C49
:108F5000FEF7DEFA31780029F7D104E020214046FF
:108F60006D1EFEF7D5FABD42C0D9002DF6D1BDE782
:108F70004EB13046FDF76EFA074604E02021404628
:108F80006D1EFEF7C5FABD4206D9002DF6D103E0ED
:108F90004046761CFEF7BCFA31780029F8D1A5E7E7
:108FA000D9F80000011DC9F80010056830214046BD
:108FB000FEF7AEFA78214046FEF7AAFA0820002113
:108FC000CDE90001034610222946B0E7BDE8FC8741
:108FD00070B541EA4201DDE904564FF0A04441EA90
:108FE000830141EA052104EB800041EA0641C0F813
:108FF000001770BD70B541EA4201DDE904564FF03B
:10900000A04441EA830141EA052104EB800041EAE2
:109010000641C0F8001770BD70B541EA4201DDE9B4
:1090200004564FF0A04441EA830141EA052104EBD4
:10903000800041EA0641C0F8001770BD70B541EAF2
:109040004201DDE904564FF0A04441EA830141EAC0
:10905000052104EB800041EA0641C0F8001770BD0D
:109060001CB5002100910B4601220191FFF7D4FFAE
:109070001CBD1CB5002100910B4601220191FFF798
:10908000DDFF1CBD1CB500220B460092114601926B
:10909000FFF7C2FF1CBD1CB500220B460092114613
:1090A0000192FFF7CBFF1CBD1CB5002100910B46C0
:1090B000012201911146FFF7AFFF1CBD1CB5002135
:1090C00000910B46012201911146FFF7B7FF1CBD2D
:1090D0004FF0A04202EB8000D0F8002722F440328B
:1090E000C0F80027D0F8002742EA0141C0F8001775
:1090F0007047000038B5094B44181B6800936B4655
:1091000008E000BF53F82010D1F8205520C2C1F864
:109110002055401C8442F5D838BD0000D8BA020062
:1091200042094FF0000100D1491E00F01F0001224A
:1091300082400A4201D0012070470020704701227E
:109140004FF0A043824011B1C3F808257047C3F81F
:109150000C257047034908B50844002101600068E8
:10916000009008BD0060004002494058012800D02E
:10917000002070470060004030B5154A01460020CD
:10918000D2F8104423460AE0DB681D79854205D1F8
:10919000401C0A28F6DB4FF0FF3030BD1B68002B67
:1091A000F2D1431CF9D0CB681871D2F8103443B116
:1091B000DB68CC681B682360D2F81024D268116089
:1091C00030BDC2F81014C96800220A6030BD00002A
:1091D000702A0020F0B595B01C4615460F4608468B
:1091E0001A9E00F01BFB182109A8FDF728F90E961E
:1091F000CDE909540023082203A9384600F023FBD7
:1092000005980690BDF81000ADF81C00BDF81200DE
:10921000ADF81E0000208DF821000398082600F00C
:109220000300012802D0022818D032E00398334608
:10923000850AC0F3C2008DF8200003980FA9C0F37F
:109240008314A200384600F0FEFA09A8009006AB8D
:1092500022460FA9284600F03DFA1AE00398840D33
:10926000C0F3C2008DF82000082C01D2254600E092
:10927000082533462A460FA9384600F0E4FA2E4462
:10928000641B09AB06AA29460FA800F08BF9002C35
:10929000EAD1384600F0C8FA15B0F0BD7047012099
:1092A00002F0DCB9084810B50178084A515C19B1E0
:1092B000001D01F08FF902E00C3001F089F8BDE8E3
:1092C0001040002002F0CAB944240020D42300201A
:1092D00008B5034A00924023024AFFF77BFF08BD0E
:1092E0002DB30200D82800200A4A012902EBC00051
:1092F00007D0022907D0032907D0042907D000206E
:109300007047022070470420704700797047407909
:109310007047000098C6020010B5FFF7C0FF042197
:109320000348FFF729FF02490120C968487110BDB1
:1093300088C602002DE9F04F8DB0FEF701F918B193
:1093400000200DB0BDE8F08F7E4C4FF0000BC4F84C
:1093500018B4BFF34F8F7C49A06802900D68D846BF
:10936000284004EB80000BE0D4F8180470B9616861
:109370000298814201D8A160E2E7284004EB800016
:109380000C3002A9FEF78EFE0028EDD1002005AAC0
:10939000029901EA050304EB8303491CDB6842F8E8
:1093A0002030401C02910228F2D3059800F00300FF
:1093B000022802D001284DD0AAE005985022810D44
:1093C0008946B2EB905F00D850210E4666F39F505D
:1093D000059008315D4800F0D8F9070078D000F01A
:1093E0001DFA4346082205A9384600F034FA0299CE
:1093F00008F1080A2940681A8000001D864222D917
:10940000504D0C3530B1C2B204EB8101301A904698
:109410000C3104E02946F2B2002590462846C6B237
:109420005346384600F017FA0AEB080325B13246D6
:109430002946384600F00FFA029909F1030001EBC2
:10944000900002903BE004EB8101534632463846DF
:109450000C31EFE70598C0F38310062800D30620EF
:10946000059960F38911C1F38310801C0591810077
:10947000364800F08AF907004AD000F0CFF9434699
:10948000082205A9384600F0E6F908F10808002688
:109490000FE00298434600EA0501401C04EB8101FD
:1094A0000290042238460C3100F0D5F908F1040886
:1094B000761C0598C0F38310B042EAD847B1D4F8BF
:1094C0001054D4F8180478B1384600F0ADF934E0FF
:1094D0001EE0E8684079012804D12A682846394608
:1094E00012689047E8680568002DF2D1384600F010
:1094F0009BF98DF800B06846FDF79CFBD4F8180482
:1095000008B90298A0609DF80000FDF7B7FB14E0D1
:10951000D4F8104405E02168204689688847E0684F
:109520000468002CF7D10A480A49401AC0080221F1
:1095300001EB004008A100F019F8FEF701F880F0F7
:109540000100FEE6702A00206024002044C70200CB
:1095500010C7020098C602004261636B656E6473B7
:1095600020666C75736865640000000000231A466D
:1095700001F052BF08B5012300926A4601F04CFF8A
:1095800008BD1CB5CDE9002302236A4601F044FF63
:109590001CBD3EB5069C8DE81C0003236A4601F005
:1095A0003BFF3EBD2DE9F0470E4680461C469246E5
:1095B000082940D894F80C900020207319461046D2
:1095C00001F094FB0025B54206D218F805201BA136
:1095D0002046FFF7F7FB03E01AA12046FFF7F2FB56
:1095E0006D1C082DEFD318A12046FFF7EBFB0025DB
:1095F000B54212D218F805707E2F08D8FCF702FF8A
:109600000068C05D10F03E0F01D03A4600E02E2207
:109610000EA12046FFF7D6FB03E00DA12046FFF781
:10962000D1FB6D1C082DE3D301222146504601F0E9
:109630003FFB84F80C90BDE8F08700002025303215
:1096400078000000202020007C000000256300003E
:1096500020000000064910B500200870054800F001
:10966000E1F8002803D1044800F0F3F9002010BD10
:10967000702A002044C70200A4BC0200024803492B
:10968000401AC0087047000030C7020098C60200A8
:1096900013B56846FEF7EAFE08B100201CBD02487B
:1096A000009950F831001CBD98C6020070B50848FA
:1096B0000125D0F81044057007E0E0684571216885
:1096C000204649688847E0680468002CF5D170BDE1
:1096D000702A00202DE9FF4781460C9D00200C4692
:1096E0002F7B2873984616462946184601F0FEFA45
:1096F000072E42D2DFE806F004090F161F2A3600B3
:1097000049462846FFF75EFB37E04946284622686F
:10971000FFF758FB31E0D4E9002349462846FFF71C
:1097200051FB2AE0A0680090D4E90023494628466E
:10973000FFF748FB21E0D4E90201CDE90001D4E9BB
:10974000002349462846FFF73DFB16E004F10800D8
:1097500007C88DE80700D4E9002349462846FFF7EB
:1097600031FB0AE004F108000FC88DE80F00D4E9CE
:10977000002349462846FFF725FB0022294640469C
:1097800001F096FA2F73BDE8FF872DE9F041058AB5
:1097900080462D1F4819C01CB0FBF5F0C6B24046EC
:1097A000FEF703FF041E19D0002020710120607114
:1097B000E58000272546761EC4F800800BE0404671
:1097C000FEF7F3FE60B16179491C617128600546BE
:1097D0007F1CC0F80080B742F1D32046BDE8F0817D
:1097E000204600F002F80020F8E72DE9F041457925
:1097F00001466B1E002201E00968521C9A42FBD30D
:109800000F680146002605E038460C68FEF7EFFEBB
:109810002146761CAE42F7D3BDE8F0810121001D40
:10982000FEF7A1BEFEF7FBBE10B504460121001DE8
:10983000FEF7B5FE10F0FF0F04D12046BDE8104042
:10984000FFF7D3BF10BD1CB501920122009201AAFF
:10985000FEF7CCFD1CBD1CB501920022009201AAAE
:10986000FEF7C4FD1CBD0000064910B5002048707D
:10987000091D0860BFF35F8F0349044800F0BEFA7A
:10988000002010BD3824002030BB0200CC2800206E
:1098900008B500208DF800006846FDF7CBF9F1EE21
:1098A000100A20F09F00E1EE100ABFF35F8F084915
:1098B0004020C1F880029DF80000FDF7DFF900F0BC
:1098C00079FA08B141DF08BD20BF40BF20BF08BD05
:1098D00004E000E02DE9F8430446002790460E46D8
:1098E0008DF800706846FDF7A5F9204600F039F8BC
:1098F00038B105279DF80000FDF7C0F93846BDE8EE
:10990000F88320680568B8F1000F05D1016820468A
:1099100000F03FF821680860E268012A0CD0022AB2
:109920000ED0042A11D06068082A13D005FB02016A
:109930003046FCF76BFDDDE76068405D3070D9E7CD
:10994000606830F815003080D4E7606850F8250072
:109950003060CFE700EBC501D1E90001C6E90001A5
:10996000C8E7016808684968884201D1012070474A
:109970000020704701680A6849688068884201D9F8
:10998000491C00E00021914201D1012070470020D4
:1099900070478068884201D9481C70470020704792
:1099A0002DE9F84304464FF000080E468DF800807C
:1099B0006846FDF73FF92046FFF7DCFF07000AD0B5
:1099C000207C40B14FF004089DF80000FDF756F9E7
:1099D0004046BDE8F8832068456841682046FFF7A7
:1099E000D8FF2168486037B1206801682046FFF73A
:1099F000D0FF21680860E268012A14D0022A16D03C
:109A0000042A19D0082A1CD06068314605FB0200E0
:109A1000FCF7FCFC204601F04DFA21688A6882427E
:109A2000D2D28860D0E7616830784855F2E7616843
:109A3000308821F81500EDE76168306841F82500AD
:109A4000E8E7D6E90001626802EBC502C2E900015D
:109A5000E0E782680021916082681161826851614B
:109A60008268D1608268516080680160704708B583
:109A7000002242504058009008BD000020B1034928
:109A800009680160002070470E20704728BD020061
:109A9000FEB502460E460846FFF7F0FF002867D1E4
:109AA000002500950195012706208DF80020ADF8CE
:109AB000040002958DF8027069462020326869DF43
:109AC0002C492D4A891AC908012202EB014430B100
:109AD00000F002FA024620462849FFF74BFD0095A8
:109AE0008DF801508DF80270019502958DF8037084
:109AF00069464020326869DF30B100F0EDF9024676
:109B000020461F49FFF736FD00950A208DF800001A
:109B10000195029569460120326869DF30B100F095
:109B2000DBF9024620461749FFF724FDF820009094
:109B3000019502956946A120326869DF30B100F0D5
:109B4000CBF9024620461049FFF714FD0095019518
:109B500002958DF800506946A020326869DF30B167
:109B600000F0BAF9024620460849FFF703FD00203D
:109B7000FEBD000020C7020098C6020000C502001A
:109B800048C5020060C40200ACC402000CC402005C
:109B90002DE9F0410546076860DF804619491A48FB
:109BA0002A68081AC608BA4219D9022000EB0644EE
:109BB00016A12046FFF7DAFC20463A461FA12B6883
:109BC000FFF7DFFC4FF08050D0F80C0129688002CD
:109BD00000F10050421A204625A1FFF7CBFCB8F156
:109BE00000004FF001040AD000F076F9024604EBC1
:109BF00006402AA1FFF7BEFC4046BDE8F0812F4891
:109C00000470F9E720C7020098C60200496E737518
:109C10006666696369656E742052414D20616C6CA3
:109C20006F636174656420666F7220746865205389
:109C30006F66744465766963652E00004368616EE3
:109C40006765207468652052414D20737461727499
:109C5000206C6F636174696F6E2066726F6D203067
:109C600078257820746F20307825782E0000000049
:109C70004D6178696D756D2052414D2073697A652B
:109C800020666F72206170706C69636174696F6EB9
:109C900020697320307825782E00000073645F629D
:109CA0006C655F656E61626C6528292072657475EC
:109CB000726E65642025732E00000000B72400201A
:109CC00030B5144891B00078002820D05FF03405FA
:109CD000ADF8405010A903A861DF30B1052816D0B7
:109CE00011B0BDE83040FCF741BF03AC0A496846FB
:109CF00000F084F807E000BFD0E90021204690473B
:109D0000684600F092F802980028E1D0F4E711B01C
:109D100030BD0000B72400202CBD02007CB5194CDA
:109D2000207808B108207CBD0120A070002001F03F
:109D3000CFFA112819D0002001F0E2FA12480026CB
:109D4000006801908DF800606846FCF773FF0F49CA
:109D500001A810DF05000AD0002020709DF8000047
:109D6000FCF78CFF2DB128467CBD00207CBD012076
:109D7000F3E7A670667001F005FB012001F0C0FA60
:109D8000F3E70000B4240020C0BC0200E96A02002E
:109D90000EB50749684600F031F805E0D0E900103B
:109DA0008847684600F041F802980028F6D10EBDB9
:109DB000DCBC02000148007870470000B424002099
:109DC0001FB568464BDF30B1052814D004B0BDE89C
:109DD0001040FCF7CBBE084901A800F00FF806E0E0
:109DE000D0E900210098904701A800F01EF80398E0
:109DF0000028E6D0F4E71FBD48BD020001600968F5
:109E00004160AFF3008010B5D0E90021536899425A
:109E100001D1002104E0D1E90034A34202D0194667
:109E2000816010BD08314160F0E7816800290BD0E6
:109E3000026892680A44826041684B689A4203D182
:109E400008314160FFF7DFBF704770B50D46064629
:109E5000446804E0B2682946904718B12468206835
:109E60000028F7D120682860256070BD4068006830
:109E7000704741680868002801D002680A6070478E
:109E800002460020526806E08B4203D10868106049
:109E9000012070471A461368002BF5D17047000067
:109EA0000C4A10B502F594730EE0991AC91001EB33
:109EB000D171491002EBC1010C68844201D90B46F3
:109EC00002E005D201F108029A42EED3002010BD53
:109ED000486810BD50BB020000B5FFF7E1FF002845
:109EE00000D1014800BD00003CBB020040580028E2
:109EF00000D00120704708B5002242504058009021
:109F000008BDD0F80403084000D001207047405835
:109F1000002800D00120704708B500224250405868
:109F2000009008BD02480068002800D0012070475A
:109F30000004014008480068012110F0010F06D11B
:109F40004FF0E020C02280F800248430C16703492C
:109F5000012008607047000000E100E018050040A3
:109F60000649024600200B790BB1852070470A6034
:109F700001220A7100224A7170470000E02300208C
:109F8000022010B54107C1F808034FF48270FEF7B4
:109F9000A2FE05490120086004480168C1F30041A0
:109FA0000029FAD110BD00000C0000401804004048
:109FB000002802D0014980010847704701BB020018
:109FC0002DE9F0410E46054600F0F8FD0028284630
:109FD00019D0FDF739FB083800F062FE032802D0E3
:109FE00001280ED007E04FF0A040D0F81005E8405F
:109FF00010F0010F05D003212846BDE8F041FFF71E
:10A0000067B80221F8E700F0E5FD002822D02846D5
:10A01000FDF71AFB04464FF4807000EB84000E4FEE
:10A0200081B207EB8400D0F8102542F00102C0F89D
:10A0300010250846FFF78EF8002E0BD02846FDF7B6
:10A0400003FB064951F82000002803D00120A0405E
:10A05000C7F80403BDE8F081006000407C270020C1
:10A060002DE9FC41DFF8B880044608EB0400002726
:10A0700090F930001346C0170E46401C01D0082747
:10A080004AE0B0781946C0F340022046FDF7B8FA1E
:10A090000546401C3FD0B078410717D4C0070AD00E
:10A0A0004FF0A04000EB8400D0F8001721F002012F
:10A0B000C0F8001707E000217378204600910A4697
:10A0C0000191FEF797FF204600F06AFDB078800707
:10A0D00018D51448317800EB8500D0F81025124BC4
:10A0E0001A40C0F810254FF4F8524FF4403302EAFA
:10A0F000042203EA01410A43D0F810150A43C0F8CC
:10A10000102509E008EB0500327810F8481F41EAF5
:10A110008211017000E004273846BDE8FC81000090
:10A120007C27002000600040FFE0FCFF4FF0A041D2
:10A13000D1F81015C14011F0010000D00120704786
:10A1400070B5194D95F8580008B1082070BD00246D
:10A15000661E2046FEF7E4FF10B1281980F8306033
:10A16000641CE4B2202CF4D300242046FDF73AFA14
:10A17000641CE4B20C2CF8D300200D4968650B4C2C
:10A18000C02081F8000401264020891FC1F8000189
:10A190004FF4BE70FEF7DEFFA004C4F8040385F898
:10A1A0005860002070BD00007C2700200060004047
:10A1B00006E000E0034890F85800002800D0012095
:10A1C000704700007C2700200121B1EB507F01D1B6
:10A1D000012070470020704738B50D4600F0D2FDD1
:10A1E000040014D000208DF800006846FCF722FD22
:10A1F000207928B19DF80000FCF740FD112038BD02
:10A200000120256020719DF80000FCF737FD00203B
:10A2100038BD10B500F0B6FD002802D00021016065
:10A22000017110BD0149024801F040BAD827002051
:10A23000002000402DE9F0410546007916460F4602
:10A2400000EB40012D4A01EBC00102EB810494F8C0
:10A250002A1011B10820BDE8F081294951F82010D9
:10A260002868FFF7B9FF08B11120F4E739462846FE
:10A27000FCF71EFD66603869206030004FF0010673
:10A280002FD03F7F4FF48E712868FFF734FE4FF4D4
:10A29000A2712868FFF72FFE28681A49C0F8041336
:10A2A00028684FEA471140F30730002804DB00F12B
:10A2B000E02080F8001405E000F00F0000F1E0203D
:10A2C00080F8141D286840F30730002809DB00F0EF
:10A2D0001F0106FA01F14009800000F1E020C0F8FA
:10A2E000001128680421C0F800150020A061E06179
:10A2F00084F8290044F8140FA675ACE7D82700208D
:10A30000DCBA0200800002002DE9F05F054600790A
:10A310000B4600EB400101EBC000244901EB800437
:10A32000284600F045F810B11120BDE8F09F6261A9
:10A330004FF00009C4F82090A36084F828904FF4EF
:10A340008E784E4641462868FFF7D5FD28684FF0C5
:10A35000010AC0F808A02146286801F037F96068B2
:10A3600008BBD5F800B067690FE000BF94F828007B
:10A3700008B10F2615E041465846FFF7B7FD002803
:10A38000F4D02146584601F021F9206AB842F2D3B0
:10A39000574641462868FFF7A9FD0028F9D02868EC
:10A3A000C760C4F814903046BFE70000D8270020EB
:10A3B000007900EB400101EBC000044901EB800093
:10A3C0004069002800D0012070470000D8270020F5
:10A3D0002DE9F047044600794FF0000900EB4001F9
:10A3E00001EBC000284901EB80072068C0F8009508
:10A3F0007868B0B120682549C0F80813206840F398
:10A40000073000280DDB00F01F02012191404009B8
:10A41000800000F1E020C0F88011BFF34F8FBFF340
:10A420006F8F2068D0F80C25D0F81485D0F8086517
:10A43000D0F810554FF0FF31C0F81415C0F80C15C6
:10A440002068C0F80815C0F81015501C02D010463E
:10A45000FEF706FEB8F1FF3F02D04046FEF700FED1
:10A46000681C02D02846FEF7FBFD701C02D0304667
:10A47000FEF7F6FD2068FFF7CCFE87F82A90C7F8B4
:10A480000490BDE8F0870000D82700208402020075
:10A490000149024801F0B8B904280020002000401A
:10A4A0002DE9F0410546164600790F46154A00EBA6
:10A4B000C00102EB810494F8201011B10820BDE81E
:10A4C000F081114951F820102868FFF785FE08B186
:10A4D0001120F4E739462846FCF72EFC66603869FF
:10A4E00020601EB1397F2846FDF798FD28680821B5
:10A4F000C0F800150020A061E0616061012184F8CE
:10A500002010DCE704280020E0BA02002DE9F04723
:10A5100004460E460079274900EBC00001EB800598
:10A5200017463046FFF750FE30B1204600F044F8A1
:10A5300020B11120BDE8F0871020FBE76F61AE600D
:10A540004FF490774FF0000839462068FFF7E4FC9D
:10A550004FF4AC7631462068FFF7DEFC2068AA682D
:10A560006969C0F84425C0F8481520684FF0010912
:10A57000C0F808906868D0B9BA4651462068FFF71D
:10A58000C6FC074631462068FFF7C1FC0743F4D0FC
:10A5900010B14FF00F0808E02068C0F80C90314669
:10A5A0002068FFF7B4FC0028F9D00020686140461D
:10A5B000C0E70000042800200079054900EBC00036
:10A5C00001EB80004069002800D0012070470000A6
:10A5D000042800202DE9F047064600793D4900EBAC
:10A5E000C00001EB8005346868680127A8B13A49CA
:10A5F000C4F80813306840F3073000280DDB00F082
:10A600001F0107FA01F14009800000F1E020C0F8C5
:10A610008011BFF34F8FBFF36F8FD4F8000220F08B
:10A620002000C4F80002A8694FF4A27820B1414686
:10A630002046FFF771FC67604FF4AC79494620462D
:10A64000FFF76AFCE760474649462046FFF75FFC94
:10A650000028F9D0A86928B139462046FFF757FCF1
:10A660000028F1D04FF0000AC4F800A53068D0F8F7
:10A670000C25D0F81495D0F80885D0F810754FF057
:10A68000FF31C0F80C15C0F814153068C0F8081573
:10A69000C0F81015501C02D01046FEF7EAFCB9F1C4
:10A6A000FF3F02D04846FEF7E4FC781C02D0384653
:10A6B000FEF7DFFCB8F1FF3F02D04046FEF7D9FCC1
:10A6C0002046FFF7A6FD85F820A0C5F804A0BDE848
:10A6D000F087000004280020100342002DE9F84F05
:10A6E00005460C460888B5F8CA12884279D195F813
:10A6F000C6024FF0000A00EB8001C1EB801005EBB1
:10A7000040066088002860D13079E288A71D814624
:10A71000D1B250FA82F2062A02D80844307111E010
:10A7200006203071374838493288401AC108022063
:10A7300000EB014080463549FEF71CFF4046344996
:10A74000FEF714FF48460022D0461BE000EBC00194
:10A7500002EB820307EB430306EB4101D3F802C08F
:10A76000C1F80AC0D3F806C0C1F80EC05B894B829D
:10A77000A1F81480A1F81680A1F81880401CA1F857
:10A780001A80521C31798142E0D895F8C61200EB4C
:10A79000C00001EB8102C2EB811105EB410136F8EB
:10A7A00010000989884210D2307906280DD085F82A
:10A7B000C50221882846FCF74FFF002811D02288C7
:10A7C0002946BDE8F84FFDF731B985F8C5A22288C2
:10A7D00069462846FDF738F828B122882946FDF752
:10A7E00025F9BDE8F88F9DF800000028F9D02288EF
:10A7F00001212846FDF7C0F82188284600F082F99B
:10A80000EFE7000098C6020098C60200DCBD020017
:10A8100024BE020070B58D88027900EBC504227356
:10A82000C97BA41D012902D0022904D101E00088BE
:10A8300000E04088208021886088814211D9284624
:10A84000A5DF0126B0B1112816D0FFF745FB02465F
:10A850000B480C49401AC00806EB00400AA1FEF75D
:10A8600089FEA179E079814208D92846BDE8704087
:10A87000FCF784BF6671F4E72671F2E770BD000053
:10A88000A0C6020098C6020073645F626C655F67D1
:10A89000617474635F65786368616E67655F6D742A
:10A8A000755F72657175657374282920726574759A
:10A8B000726E65642025732E00000000F8B5054611
:10A8C0000C460888B5F8CA12884255D195F8C602D8
:10A8D000A21D00EB8001C1EB801005EB400695F84E
:10A8E000C50200EBC00006EB400160880A3138B3B6
:10A8F00029E000BF00EB400302EB43039F88B7F55C
:10A90000245F0CD06FF4245C17EB0C070AD0012FE6
:10A9100002D0072F0BD108E05B884B8107E05B88F2
:10A920008B8104E05B88CB8101E05B880B824B89E3
:10A930002BB18B891BB1CB890BB10B8A1BB9401C86
:10A9400013888342D6D800208DF8000095F8C50200
:10A950003179401C884203D101208DF8000010E0BD
:10A9600085F8C502228869462846FCF76DFF20B1AC
:10A9700022882946FDF75AF8F8BD9DF80000002806
:10A98000FAD0228801212846FCF7F6FF21882846C4
:10A9900000F0B8F8F8BD00007CB506468D88C88880
:10A9A00006EBC504A41D172800D217202188814278
:10A9B00000D8084660800020207121882846B5DF35
:10A9C00060B1FFF789FA02460F481049401AC008E3
:10A9D000012101EB00400EA1FEF7CCFD60790028BB
:10A9E00010D1306900280DD01549D1E90201CDE917
:10A9F0000001ADF802506088ADF804003269694684
:10AA0000304690477CBD0000A0C6020098C60200F8
:10AA100073645F626C655F67617474735F657863AC
:10AA200068616E67655F6D74755F7265706C7928BB
:10AA3000292072657475726E65642025732E00007E
:10AA400098BA020070B505460C4690F8C6022288F6
:10AA500000EB8001C1EB801005EB4001B5F8CA02A4
:10AA6000824238D1608848B100212846FCF784FF33
:10AA700021882846BDE8704000F044B8E268C1F87B
:10AA80000620E28895F8C412D0B251FA82F2062A62
:10AA900003D8084485F8C40211E0062085F8C402F2
:10AAA0000D480E49401AC108022000EB01460CA1D6
:10AAB0003046FEF75BFD30461149FEF757FD218811
:10AAC0002846FCF7C9FD002805D022882946BDE8A4
:10AAD0007040FCF7ABBF70BD98C6020098C602007C
:10AAE0004E6F7420656E6F75676820737061636563
:10AAF00020666F722073657276696365732E00003D
:10AB000080BE020070B588B00D460446202168461C
:10AB1000FBF795FC94F8C7021E4B401CC0B284F8AA
:10AB2000C702DA68002190422CD284F8C51294F84A
:10AB3000C602194E401CC2B202EB820084F8C62243
:10AB4000C0EB821006EB820204EB40001268026048
:10AB5000017102218DF800100121ADF8101000687C
:10AB6000CDF812000D48CDE902042A4669469868DE
:10AB7000FDF766FE002803D02A462146FCF756FF63
:10AB800008B070BD84F8C81229462046FCF7DCFEE8
:10AB9000F6E70000C4230020502700202D7A020091
:10ABA00010B50549C20800F00703885C01249C40E9
:10ABB0002043885410BD0000D027002004490844D9
:10ABC00090F93000082801DB012070470020704711
:10ABD0007C2700200449084490F93000082801D25D
:10ABE00001207047002070477C2700202DE9F05F8E
:10ABF0002A4F06464FF0A04A4FF0010B00243819A7
:10AC000090F95010491C3CD090F85000314620F08B
:10AC1000C0052846FDF71BFD20B3204600F040F894
:10AC200081460AEB8500D0F80007C0F30148B8F16F
:10AC3000020F18D002212846FEF74AFA0BFA05F156
:10AC4000CAF820152846FCF7FFFC57F820204AB127
:10AC50004846B9F1030F11D0B8F1020F05D0B8F191
:10AC6000030F07D00DE00321E5E74846B9F1010FD6
:10AC700004D006E04846B9F1020F02D10146284649
:10AC80009047641C042CBAD3324601210020FEF701
:10AC900031FA30680028B1D1BDE8F09F7C27002050
:10ACA0000249084490F85000800970477C27002032
:10ACB00010B50C46017A052908D0407A38B1084809
:10ACC00008A102682046FEF77DF800E01AB106A14F
:10ACD0002046FEF777F82046BDE81040FEF77FB823
:10ACE00090240020257300000D0A000038B5C388A9
:10ACF0000D46044633B114A0009015A216A12846B3
:10AD0000FEF760F8217A05291CD0607A48B1A08846
:10AD1000FEF7EAFA164951F8202016A12846FEF758
:10AD200051F8A0880021FEF7B3FC03461049207AB1
:10AD3000143951F8202001B02846BDE830400EA15A
:10AD4000FEF740B838BD00001B5B306D000000000E
:10AD50001B5B313B33316D0025734C6F677320648F
:10AD6000726F70706564202825642925730D0A00B0
:10AD700090240020257300003C25733E2025733A63
:10AD8000200000000349884201D103487047002099
:10AD90007047000000200040E8230020F0B591B08B
:10ADA0000E46074601226946FEF794FD04005AD17B
:10ADB0009DF8000004AD06285DD2DFE800F0030A2C
:10ADC000181F2327BDF81220BDF810103046A1DF50
:10ADD0000BE00CA806900146BDF816200023019850
:10ADE000FEF731FD29463046A3DF044626E0BDF8D4
:10ADF000101030460DF112029BDFF6E7294630466F
:10AE00009DDFF2E7294630469EDFEEE70CA807906B
:10AE10000023022208A90198FEF715FD08A8069054
:10AE2000BDF82020022307990198FEF70CFDBDF81C
:10AE300020E029463046AEDF040016D0112C12D097
:10AE40009DF80000114951F8200010B10198FEF75B
:10AE5000CCFC002269463846FEF73CFD22463146CE
:10AE6000684600F07BF811B0F0BDBDF820008645C3
:10AE7000E6D00C24E4E706480649401AC00802213F
:10AE800001EB004004A1FEF771FBD9E7B0BA020064
:10AE9000A8C6020098C60200556E696D706C656D9B
:10AEA000656E746564204741545420526571756520
:10AEB0007374000001680A684968914201D3881AD6
:10AEC00070478068801A0844401C704770B58CB089
:10AED0000446C068002209A9FEF7FCFC104D1BE0E7
:10AEE000BDF82410A06801EB810100EB810607E0AA
:10AEF0009DF8000055F8200010B10198FEF775FC90
:10AF0000002269463046FEF7E5FC0028F0D000221A
:10AF100009A9E068FEF7DEFC0028E1D00CB070BDA6
:10AF2000B0BA020070B50C4B00210A4ADC680DE093
:10AF300002EB81058678AD78B54206D132F8215012
:10AF40000688B54201D1586870BD491CA142EFD3B3
:10AF5000002070BD50270020C4230020F8B5150044
:10AF60000E46044616D00C480C490095401AC008FD
:10AF7000012101EB0040227833460949FEF709FB25
:10AF8000A368002B06D0E16801B032462846BDE830
:10AF9000F0401847F8BD0000A8C6020098C602009D
:10AFA0006CBF02002DE9F041044600780E460025F2
:10AFB00004F11001062828D2DFE800F003080B1185
:10AFC0001418628A218A3046A1DF0DE03046A3DFE3
:10AFD0000AE0218A04F1120230469BDF04E0304689
:10AFE0009DDF01E030469EDF054605E0A069078849
:10AFF0003046AEDF050002D0112D18D00FE0A06959
:10B000000088B8420BD00C2509E00A480A49401ACA
:10B01000C008022101EB004008A1FEF7A7FA2A466A
:10B0200031462046FFF79AFF0120BDE8F08100205D
:10B03000FBE70000A8C6020098C60200556E696DC5
:10B04000706C656D656E7465642047415454205280
:10B05000657175657374000070B50546FCF713FEE5
:10B06000134C40B1D4E904024FF08071411842F111
:10B070000000C4E9041000212846FCF751FD30B15E
:10B08000606820B1606800F011FA00206060012162
:10B090002846FCF745FD18B1FCF734FFC4E906016A
:10B0A000284600F02FFA2846BDE8704000F034B87A
:10B0B0000824002070B5054600200C460870FCF7F7
:10B0C00021FFD5E90223101A63EB01030026314664
:10B0D000361A994112DAB0F5350F03D3FBF752FD5A
:10B0E0000B4942184FF4960300210A48FCF7D7FD9C
:10B0F00010B10D2806D009E0012070BD00210548DF
:10B10000FCF704FD284600F0D1F92070002070BD46
:10B11000FFFFB40010240020F8B51A4C07460026A3
:10B120001948FEF7A3FED0B1616871B1D0E90210F1
:10B130006268D2E90232C91A904120D26068007F69
:10B1400018B161681048FEF780FE00F047F9054627
:10B150006946FFF7AFFF98B1606840B10AE06068E8
:10B1600000280CD13846BDE8F840FCF794BD3846BD
:10B17000FCF78DFD65609DF800000028D0D1F8BD7A
:10B180006660CDE708240020F4BA020070B50546D9
:10B1900088690C4600284FF4847128460AD0FEF7CF
:10B1A000AAFED5F81805626AE1688854606A401CF6
:10B1B000606270BDFEF79FFED5F8180570BD1FB523
:10B1C00001238DF80030CDE90121D0E90012684655
:10B1D00090471FBD1FB501238DF80030CDE9012137
:10B1E000D0E90012684690471FBD0178052904D1B7
:10B1F0004068002801D0FBF7B9BC70471FB500209C
:10B20000009001900290039001208DF804008DF8C9
:10B210000C000D4A69460D48FDF730FC08B1FBF7FC
:10B22000A5FC002201210948FDF70BFC08B1FBF742
:10B230009DFC074A00210548FDF7C4FB002801D00A
:10B24000FBF794FC1FBD0000EBB10200BC24002002
:10B2500004BA020010B50748FDF7F2FC08B1FBF78D
:10B2600085FC0120FCF7CEF8BDE810400020FCF77B
:10B27000D1B80000BC24002038B50021012548B118
:10B28000012810D003280DD1FEF754FEBDE8384048
:10B29000FDF74ABD4FF0E020C0F88051BFF34F8F5B
:10B2A000BFF36F8F38BD8DF800106846FBF7C2FC06
:10B2B000064C207808B9FDF717FDE068401CE060F7
:10B2C000A5709DF80000FBF7D9FC38BD6827002069
:10B2D0003EB5044609496846FEF790FD08E000BF08
:10B2E000D0E900212046904730B16846FEF79DFD29
:10B2F00002980028F4D13EBD11203EBDC4BC02001E
:10B300003EB5044608496846FEF778FD07E000BFF1
:10B31000D0E90021204690476846FEF786FD029856
:10B320000028F5D13EBD0000D0BC020070B50D4C28
:10B330000020D2B22070201D0B4D0378EB5C1BB1B6
:10B34000001DFFF7E3F802E00C30FEF7DDFF08B167
:10B35000FBF70CFC6078002802D021780029FAD095
:10B3600070BD000040240020D4230020002805D117
:10B370000349012048700020FCF7A4B97047000081
:10B380006827002010B51620FBF72EFBA0B111484E
:10B3900090F800044009082811D20121814011F0E1
:10B3A000EC0F0CD00C4882684FF480016AB1016840
:10B3B00041F48001016010BD42F2010001E042F25F
:10B3C0000200BDE81040FBF7D1BB4FF0E020C0F811
:10B3D000001110BD16E000E0C02800200148FEF773
:10B3E00048BD0000F4BA0200C207002A03D000BF23
:10B3F0004FF00F0201E04FF0F00201D04FEA0111CF
:10B40000044B03EB5003187800EA020040EA010005
:10B4100018707047482800202DE9F84F074621484A
:10B420009146884605681E46012269461846FCF783
:10B4300025F8DFF874A060B3009800210446801C52
:10B440000AE000BF00EA050259F821C00AEB8202B7
:10B45000401C491CC2F80CC0B142F3D34FEA174953
:10B46000FCF74AFB611C29400AEB810149EA0042D2
:10B470002C40CA600AEB8401C86867F3C50066F314
:10B48000891068F39F2020F00300401C20F0040086
:10B49000C8609AF8000001E0FDF74CFF0028FBD1DE
:10B4A000BDE8F88F60240020702A002070B50446A3
:10B4B000124800250078F8B1F4B1207FE0B1FCF724
:10B4C00021FDD4E90223801A994110D32069002676
:10B4D00000B92677D4E905108847206960B1217F3B
:10B4E00051B1D4E9022110187141C4E90201214689
:10B4F0000348FEF7AAFC0125284670BD0824002059
:10B50000F4BA0200F8B51B4C69462068FCF7EFFF5F
:10B5100000260127184D29E0017821B101290CD01E
:10B5200002291BD114E041680A7FBAB90F7741683C
:10B5300010480830FEF789FC10E0416868688142D5
:10B5400001D16E600AE00B480830FEF799FC05E077
:10B55000FFF744FF08B10677FAE72F7069462068C5
:10B56000FCF7BAFF69462068FCF7C1FF0028D3D179
:10B57000F8BD0000ECBA020008240020F8B50B4C1E
:10B580000D46064669462068FCF79BFF58B10670D9
:10B59000456069462068FCF7B5FF10B10448FCF728
:10B5A0005FFB0020F8BD0420F8BD0000ECBA0200EB
:10B5B00010240020034880684108034800224068A6
:10B5C000FBF720BBF0230020E4BA020070B50C4664
:10B5D00005464FF48E71FEF78EFC216AA068415C2F
:10B5E000206A401C2062C5F81C1570BD1FB50022E2
:10B5F0008DF800200291816801914261D0E900122A
:10B60000684690471FBD1FB500228DF800200291AB
:10B61000816801914261D0E90012684690471FBDE0
:10B620001FB50A4601788DF8001041680191017A32
:10B630008DF80810C0680390044850F82210001FCD
:10B6400050F82220684690471FBD0000DC230020F0
:10B6500001490120087070474024002010B588B0CF
:10B66000044620220E496846FAF7D0FE06200090D4
:10B67000C01F0190029003904FF0EB7006900CB148
:10B68000084A00E0002269460748FDF767FB08B159
:10B69000FBF76CFA0448001F447008B010BD0000AE
:10B6A00084BC020051B60200442400202DE9FF476B
:10B6B0000C4605464FF40071FEF723FC01274FF4BA
:10B6C0000178002618B34FF4927949462846FEF7D0
:10B6D0000DFCE0B149462846FEF70DFCC5F808838D
:10B6E00094F8290000B96F6002208DF80000D5F8A9
:10B6F0008004C5F880040390A0690290E06801907E
:10B70000A661E661D4E900126846904728E004216A
:10B710002846FEF7F6FB18B34FF484712846FEF76F
:10B72000E5FBE8B121462846FFF730FD616AA069D4
:10B73000884215D1E06938B1E268616AA061206988
:10B74000E6616662E06008E094F8290000B96F6085
:10B75000C5F80883A661E268616A2046FFF72FFDFD
:10B760004FF48E7841462846FEF7C0FB80B16069F1
:10B77000216A814202D294F8280028B34146284623
:10B78000FEF7B9FB606918B161692046FFF72EFF2B
:10B790004FF4A27841462846FEF7A8FB002818D0AF
:10B7A00041462846FEF7A7FB94F8290000B12F6018
:10B7B000A06900280DD0A661E268616A04B0204645
:10B7C000BDE8F047FFF7FBBC21462846FFF7FEFE29
:10B7D000DEE7BDE8FF8700001FB50A4601788DF857
:10B7E000001041680191017A8DF80810C06803903B
:10B7F000044850F82210001F50F822206846904755
:10B800001FBD0000DC2300202DE9FF410C464FF452
:10B81000927705463946FEF77AFB0026B8B13946DD
:10B820002846FEF779FB02208DF80000D5F8800449
:10B83000C5F880040390D5F83C050290E0680190BB
:10B84000A661E661D4E900126846904723E04FF410
:10B85000887739462846FEF75AFBE0B13946284634
:10B86000FEF75AFBD5F83C15A069884213D1E06970
:10B8700060B1E268D5F8000220F02000C5F80002AF
:10B88000E069A0612069E661E06001E0A661E2682C
:10B890002046FFF79FFC4FF4A27739462846FEF773
:10B8A00036FB68B139462846FEF736FBA06938B149
:10B8B000A661E661D5F83C152046E268FFF78AFCF0
:10B8C0004FF4907631462846FEF721FB60B13146B1
:10B8D0002846FEF721FB0120E860606920B1D5F819
:10B8E0004C152046FFF78FFE4FF4AC7631462846C4
:10B8F000FEF70DFB00280ED031462846FEF70CFB64
:10B900006069002807D0D5F84C1504B02046BDE882
:10B91000F041FFF778BEBDE8FF8100002DE9F05F40
:10B920008346DDE90A4A994690460D4608460127B6
:10B9300003E000BFB0FBF8F07F1C4045FAD2B945E8
:10B9400000D94F465FEACA7012D18CB15FEA8A70A3
:10B9500002D5B9F1000F01D0202607E0302605E01E
:10B9600031465846641EFBF7D3FD0CB1A742F7D30E
:10B970005FF00106B9F1010F02D9A9F1010903E055
:10B98000B5FBF6F0404502D306FB08F6F2E7DFF818
:10B990003C9000BFB5FBF6F000FB165519F80010FF
:10B9A0005846FBF7B5FDB6FBF8F6002EF2D15FEA7C
:10B9B000CA7009D0002C07D0A74205D220215846D2
:10B9C000641EFBF7A5FDF5E7BDE8F09F06BB02008E
:10B9D00070B50C460546FBF7F1FD002807D042681C
:10B9E000002A04D021462846BDE87040104770BDAB
:10B9F000F025002050250020040000002000000059
:10BA0000010000004E6F726469635F426C696E6B87
:10BA10007900111213140D0E0F1000000100000028
:10BA20000000000000000000000000000000000016
:10BA30000000000000000000000000000000000006
:10BA400000000000000000000000000000000000F6
:10BA500000000000000000000000000000000000E6
:10BA600000000000000000000000000000000000D6
:10BA700000000000000000000000000000000000C6
:10BA800000000000000000000000000000000000B6
:10BA90000000000000000000770A00000000000025
:10BAA000770A0000000000007ADA000000000000C1
:10BAB00000000000997E020000000000000000006D
:10BAC00000000000C57E020023D1BCEA5F78231588
:10BAD000DEEF1212000000000000005025A202005C
