:020000022000DC
:1060000000000120756302005D6302005F6302000F
:106010006163020063630200656302000000000028
:1060200000000000000000000000000067630200A4
:1060300069630200000000006B6302006D630200F0
:106040006F6302006F6302006F6302006F63020000
:106050006F6302006F6302006F6302006F630200F0
:106060006F6302006F6302006F6302006F630200E0
:106070006F6302006F6302006F6302006F630200D0
:106080006F6302006F6302006F6302006F630200C0
:106090006F6302006F630200116802006F63020009
:1060A0006F6302006F6302006F6302006F630200A0
:1060B0006F6302006F630200000000000000000038
:1060C0006F6302006F6302006F6302006F63020080
:1060D0006F6302006F6302006F6302000000000044
:1060E00000000000000000000000000000000000B0
:1060F00000000000000000000000000000000000A0
:10610000000000000000000000000000000000008F
:10611000000000000000000000000000000000007F
:10612000000000000000000000000000000000006F
:10613000000000000000000000000000000000005F
:10614000000000000000000000000000000000004F
:10615000000000000000000000000000000000003F
:10616000000000000000000000000000000000002F
:10617000000000000000000000000000000000001F
:10618000000000000000000000000000000000000F
:1061900000000000000000000000000000000000FF
:1061A00000000000000000000000000000000000EF
:1061B00000000000000000000000000000000000DF
:1061C00000000000000000000000000000000000CF
:1061D00000000000000000000000000000000000BF
:1061E00000000000000000000000000000000000AF
:1061F000000000000000000000000000000000009F
:10620000354936480A1A02D0072291438D4634494F
:1062100034480A1A06D00722914381F309880222E2
:1062200082F3148830483149314A00F044F831484B
:106230003149324A00F03FF831483249324A00F0E1
:106240003AF832483249334A00F035F83248334997
:10625000334A00F030F833483349344A00F02BF821
:1062600033483449344A00F026F83448344900228F
:1062700000F02CF833483449002200F027F8334866
:106280003349091A082902DB002202604160314AC1
:1062900090471F481F49884205D00268043003B464
:1062A000904703BCF7E700208646EC46002000211B
:1062B000294A9047FEE7884207D0521A05D0037852
:1062C00001300B700131013AF9D17047884202D098
:1062D00002700130FAE770470000012000E0002062
:1062E00000000120000001209C6802006859002085
:1062F0006C590020D0630200D0630200586802008D
:106300009C680200685900206859002060680200FB
:106310006068020060680200606802006068020055
:106320006068020060680200606802009C68020009
:10633000A06802006C5900206C5900206C590020A4
:106340006C5900206C5900206C5900206C590020B9
:106350006C7900209D630200D9640200FEE7FEE72D
:10636000FEE7FEE7FEE7FEE7FEE7FEE7FEE7FEE705
:1063700000F002B8FFF7FCBF0F484FF00701884359
:1063800085460E4880470E48016841F4700101605F
:10639000BFF34F8FBFF36F8FFFF732BF09480A4932
:1063A0000A4A884207D0521A05D0037801300B7090
:1063B0000131013AF9D170470000012069650200FE
:1063C00088ED00E0606802006859002068590020EC
:1063D000044B1A5C012393404FF0A042C2F80835E9
:1063E000704700BF6068020008B50020FFF7F0FFAB
:1063F0000120FFF7EDFF0220FFF7EAFFBDE80840AC
:106400000320FFF7E5BF0000074A4FF0A041105CF2
:10641000D1F804350122824022EA03001340C1F87A
:106420000805C1F80C3570476068020008B583079D
:1064300015D54FF0A0410323C1F84437C1F84837C0
:10644000C1F84C37C1F85037FFF7CEFF0C23C1F825
:106450003437C1F83837C1F83C37C1F8403708BD88
:106460001FB50021039001AA44F20100CDE90111FA
:1064700000F004F805B05DF804FB000072B6094BAB
:10648000D3F8F020D20700D500BEBFF34F8FD968F4
:10649000054A01F4E0610A43DA60BFF34F8F00BFA1
:1064A000FDE700BF00ED00E00400FA050B684A6854
:1064B0004360934208BF0023016008BF43607047F8
:1064C000436843B10268916852680B449342436049
:1064D00004BF00234360704770B50220094DFFF7E9
:1064E000A5FF45F0010500242046FFF78DFF4FF47E
:1064F000FA764FF47A40A847013EFAD10134042CD1
:10650000F2D1F0E7706802004FF08052D2F83031DB
:10651000591C09BF4FF07042D2F83401D2F8E80F8D
:1065200092F8E03F08BFC0F30310062B05D10338F3
:1065300003288CBF00200120704700207047000016
:106540004FF0704393F8E02F062A09D1D3F8E83FC3
:10655000C3F30313033B032B02D8024AD05C7047FA
:10656000002070477E68020008B5FFF7CDFF40B1FC
:106570004FF080538F4AD3F82433C3F30423C2F877
:106580004035FFF7DDFF10B18B4B8C4A5A67FFF7A0
:10659000BBFF48B14FF080534FF08042D3F84432F4
:1065A000C3F34233C2F83C35FFF7CAFF30B1844A27
:1065B000D2F8FC3023F08073C2F8FC30FFF7A4FF60
:1065C00040B14FF080430022C3F80C21C3F81021E2
:1065D000C3F83825FFF7B4FF20B14FF08043032202
:1065E000C3F8A025FFF7ACFF60B1764B0522C3F8D6
:1065F00010260122C3F888260022C3F818263F225D
:10660000C3F814264FF08053D3F83021511C09BF32
:106610004FF07043D3F8343193F8E02FD3F8E83FCC
:1066200008BFC3F30313062A4DD1033B032B4AD8FB
:10663000654AD35C002B46D04FF08052634BD2F8B2
:106640000414C3F82015D2F80814C3F82415D2F89E
:106650000C14C3F82815D2F81014C3F82C15D2F86E
:106660001414C3F83015D2F81814C3F83415D2F83E
:106670001C14C3F84015D2F82014C3F84415D2F8FE
:106680002414C3F84815D2F82814C3F84C15D2F8CE
:106690002C14C3F85015D2F83014C3F85415D2F89E
:1066A0003414C3F86015D2F83814C3F86415D2F85E
:1066B0003C14C3F86815D2F84014C3F86C15D2F82E
:1066C0004424C3F87025FFF71FFF48B14FF08053F3
:1066D0004FF08042D3F8583203F04F03C2F8E43E43
:1066E000FFF712FF48B14FF08043D3F80024D207E0
:1066F00044BF6FF00102C3F800244FF08053D3F879
:106700003021062A0ED1D3F83431033B032B09D8AC
:106710002F4AD35C33B12F4AD2F83C3743F480631D
:10672000C2F83C37264AD2F8883043F47003C2F8E6
:106730008830BFF34F8FBFF36F8F4FF01023D3F824
:106740000022002A03DBD3F80432002B2EDA224B7E
:106750000122C3F80425D3F80024002AFBD04FF00F
:1067600010221521C2F80012D3F80024002AFBD011
:106770004FF010231522C3F80422174BD3F800243E
:10678000002AFBD00022C3F80425D3F80024002AF5
:10679000FBD0BFF34F8F0A49104BCA6802F4E06286
:1067A0001343CB60BFF34F8F00BFFDE70C4B0D4A87
:1067B0001A6008BD0030014000C007400DF0ADBABE
:1067C00000ED00E0005000407668020000C000408C
:1067D0007A6802000010004000E001400400FA0561
:1067E000685900200090D00307B508496846FFF7B4
:1067F0005DFE019B13B903B05DF804FBD3E90020F3
:1068000090476846FFF75CFEF3E700BF846802002C
:10681000FFF7EABF4BDF70471FB50E4C01A8FFF72B
:10682000F9FF70B9214602A8FFF740FE039B002B39
:10683000F4D00198D3E90021904702A8FFF740FE69
:10684000F4E7052804D004B0BDE81040FFF708BE07
:0868500004B010BD90680200C5
:086858001968020000000000B5
:1068600011121314000000000000000000000000DE
:106870000338FDD87047000001010000000101004D
:106880000000000058680200606802000800000074
:0C68900058680200586802000800000070
:04689C000090D00395
:040000032000637501
:00000001FF
