:020000040000FA
:100000000810002019020000210200002302000055
:100010002502000027020000290200000000000065
:100020000000000000000000000000002B020000A3
:100030002D020000000000002F020000310200002D
:1000400033020000330200003302000033020000DC
:100050003302000000000000330200000000000036
:1000600033020000330200003302000033020000BC
:1000700033020000330200003302000033020000AC
:10008000330200003302000033020000330200009C
:10009000330200003302000033020000330200008C
:1000A00033020000330200003302000000000000B1
:1000B0000000000000000000000000000000000040
:1000C0000000000000000000000000000000000030
:1000D00000000000000000000000000033020000EB
:1000E0000000000000000000000000000000000010
:1000F0000000000000000000000000000000000000
:1001000000000000000000000000000000000000EF
:1001100000000000000000000000000000000000DF
:1001200000000000000000000000000000000000CF
:1001300000000000000000000000000000000000BF
:1001400000000000000000000000000000000000AF
:10015000000000000000000000000000000000009F
:10016000000000000000000000000000000000008F
:10017000000000000000000000000000000000007F
:10018000000000000000000000000000000000006F
:10019000000000000000000000000000000000005F
:1001A000000000000000000000000000000000004F
:1001B000000000000000000000000000000000003F
:1001C000000000000000000000000000000000002F
:1001D000000000000000000000000000000000001F
:1001E000000000000000000000000000000000000F
:1001F00000000000000000000000000000000000FF
:10020000DFF810D000F01AF800480047F5040000AD
:10021000AFF30080081000200648804706480047DA
:10022000FEE7FEE7FEE7FEE7FEE7FEE7FEE7FEE7A6
:10023000FEE7FEE76102000001020000064C074DE8
:1002400006E0E06840F0010394E8070098471034A6
:10025000AC42F6D3FFF7D8FF700500009005000010
:10026000F0B54FF08051684FD1F83001674E421C15
:1002700009D0D1F834410346012500220D2B07D0C7
:10028000102B05D00FE032783B78C2F30314F3E76C
:100290000CB1012C07D14FF08043C3F80C21C3F8F7
:1002A00010215B4B1A60431C07D0D1F83441034640
:1002B0000D2B07D0102B05D05DE034783B78C4F3CC
:1002C0000314F5E70CB1012C55D1524B1B68524C6D
:1002D0002360504B1B1D1B68241D23604D4B0833AE
:1002E0001B68241D23604B4B0C331B68241D2360AB
:1002F000484B10331B68241D2360464B14331B6886
:10030000241D2360434B18331B68434C2034236067
:10031000404B1C331B68241D23603E4B20331B685D
:10032000241D23603B4B24331B68241D2360394B61
:1003300028331B68241D2360364B2C331B68241D77
:100340002360344B30331B68334C40342360314BD3
:1003500034331B68241D23602E4B38331B68241D47
:1003600023602C4B3C331B68241D2360294B4033F6
:100370001B68241D2360431C06D0D1F834110D28BE
:1003800007D0102805D00EE031783878C1F303117A
:10039000F5E709B1012906D120480168C90702D053
:1003A0006FF0010101604FF01021D1F80002002828
:1003B00003DBD1F80402002821DA194C2560194822
:1003C0000368002BFCD01223C1F800320568002D11
:1003D000FCD0C1F8043201680029FCD02260016819
:1003E0000029FCD0BFF34F8F0F4801680F4A01F47A
:1003F000E06111430160BFF34F8F00BFFDE70D497E
:100400000B480860F0BD0000E00F00F0E80F00F0BE
:10041000380500400404001020C5004000040040DE
:1004200004E5014000E401400CED00E00400FA05A1
:100430000090D0030000002002E008C8121F08C18D
:10044000002AFAD170477047002001E001C1121F55
:10045000002AFBD1704700002DE9FC4106468007C9
:100460001FD50025104F2C460122785D00940023F3
:100470001146019400F056F86D1C042DF4D300F0E1
:100480002FF8B0070DD5084E0025361D0022705DEF
:10049000032300941146019400F044F86D1C042DD0
:1004A000F4D3BDE8FC8100006605000007490B5C41
:1004B0004FF0A041D1F804250120984020EA020322
:1004C000C1F808351040C1F80C05704766050000FA
:1004D0000249085C012100F037B800006605000001
:1004E00010B500242046FFF7F3FF641C042CF9D359
:1004F00010BD00000220FFF7AFFF094C4FF4FA785F
:100500004FF47A4700263046FFF7D0FF4546611C7E
:10051000384688476D1EFAD1761C042EF3DBF1E7CE
:100520006005000070B541EA4201DDE904564FF074
:10053000A04441EA830141EA052104EB800041EA3D
:100540000641C0F8001770BD01224FF0A043824061
:1005500011B1C3F808257047C3F80C257047000097
:100560000338FDD870470D0E0F100B0C1819000042
:100570009005000000000020040000003804000086
:10058000940500000400002004100000480400004E
:040590000090D00304
:0400000500000201F4
:00000001FF
